:020000040800F2
:10000000C8180020B101000831200008E11A0008DA
:100010009D1F000815130008673700080000000046
:10002000000000000000000000000000D5270008CC
:100030003D1600080000000011210008592F00089B
:100040006B37000801210008E12F00084525000852
:10005000B7170008752300088517000889170008DE
:100060008B1700088D1700088F170008D913000898
:10007000DB130008DD130008DF130008E11300089C
:10008000E3130008E5130008490F0008CB0100083E
:10009000CB010008CB010008CB0100089117000834
:1000A000E32F0008E92F0008E72F0008E52F0008DC
:1000B000EB2F0008ED2F0008EF2F0008F71A0008BB
:1000C000F51A0008FB1A0008F91A0008D1270008E1
:1000D000D327000861350008B9350008BB35000892
:1000E000871700081B2500086537000800F002F894
:1000F00000F04FF80AA090E8000C82448344AAF173
:100100000107DA4501D100F044F8AFF2090EBAE870
:100110000F0013F0010F18BFFB1A43F0010318473B
:100120003844000058440000103A24BF78C878C111
:10013000FAD8520724BF30C830C144BF04680C60ED
:10014000704700000023002400250026103A28BF35
:1001500078C1FBD8520728BF30C148BF0B60704739
:10016000642900F0D980732900F0E58300207047EE
:100170001FB59DE8030000F01FFB00F04BFC0400DE
:100180000020002104F0D2F9401C60601FBD10B5B2
:1001900010BD00F050FE1146FFF7EAFF03F0B8FE75
:1001A00000F076FE03B4FFF7F2FF03BC00F0A6FEFA
:1001B0000948804709480047FEE7FEE7FEE7FEE7FB
:1001C000FEE7FEE7FEE7FEE7FEE7FEE70448054937
:1001D000054A064B7047000019130008ED0000089F
:1001E000C8080020C8180020C8100020C81000202F
:1001F00070B5064600F0C4FA056806F10B0020F061
:100200000704B4429CBF002070BD2B466A68BAB197
:100210001068A04210D304F1080188423CBF506826
:10022000586007D35168101941601168091B0160BB
:1002300058601460101D70BD13465268002AE7D143
:100240002146284600F0A4FA0028DED170BD70B522
:100250000446051F00F094FA0068002C14BF44689F
:1002600070BD002C18BFAC423CBF20466468F8D378
:1002700001680A18AA4218BF456003D12A680546DA
:100280001144016028684119A1421CBF6C6070BD17
:100290006168696021680844286070BD0FB41CB5AE
:1002A000074B06AA7B4469460090059800F019FBAD
:1002B0000020694600F028FB1CBC5DF814FB000020
:1002C0006106000070B50C460546012A05D0287865
:1002D000800600D5EA69002302E0012305E05B1CEB
:1002E000934202D2E05C0028F9D1A869E618C01A4E
:1002F000A861286A184428622846AFF3008004E009
:10030000D5E9012114F8010B9047B442F8D32846EF
:10031000AFF3008070BD00002DE9F04106460024D7
:1003200010687529314616A510D0AFF3008000285B
:1003300002DA404213A507E031688A0701D512A509
:1003400002E0490704D511A5012401E0AFF30080C4
:1003500000210A2206F1240709E0B0FBF2FCB0FB01
:10036000F2F302FB1C00303078541846491C002878
:10037000F3D123462A463046BDE8F04100F052BA98
:10038000000000002D0000002B00000020000000F5
:100390002DE9F0474FF0000A89460446C0F820A036
:1003A0002046E1688847002876D0252806D0D4E981
:1003B00001219047206A401C2062F1E7E168204655
:1003C00000258847C4F81CA006460027C4F818A0DA
:1003D0002A2E09D0304603F0A3FB38B304EB87087C
:1003E000303EC8F8186019E059F8041B204604EBA9
:1003F00087029161E1688847012F064618D1E069BC
:10040000002820DA25F020051DE0D8F8180000EBC0
:10041000800006EB40003038C8F818002046E1683C
:100420008847064603F07CFB0028EED1012F0AD056
:100430002E2E08D12046E16888477F1C0646022FF1
:1004400045F02005C4DBA069002803DA404245F0EE
:100450000105A061E80701D025F01005B6B1A6F1AD
:100460004100192802D8203645F400654A46314635
:10047000204625604D46FFF773FE58B1012806D08F
:10048000ED1D25F0070000F1080989E704E005F1FA
:10049000040985E730468AE7206ABDE8F087000056
:1004A0000FB400B58DB010A9099000910B904FF0DA
:1004B000FF300A9000200C900648784406900648C9
:1004C00078446A4607900F9909A800F04DFA0DB0DC
:1004D0005DF814FBCB040000E30400002DE9FF5F8E
:1004E0001D464FF0FF3B91464FF000085F46D5E9AF
:1004F0000146A96901987F1C8847296A8246884776
:100500000028F6D1BAF1FF3F0CD0002E24F4C064CD
:1005100019DD600614D5BAF12B0F09D0BAF12D0FF1
:100520000ED103E0584604B0BDE8F09F44F4806467
:10053000A96901987F1C8847761E8246002E02DD3D
:10054000BAF1300F03D0B9F1000F26D032E0A9691B
:10055000761E01987F1C44F400748847002E824662
:1005600005DDBAF1780F06D0BAF1580F03D0B9F112
:10057000000F10D01EE0B9F1000F02D0B9F1100F3A
:1005800018D1A969761E01987F1C24F4007488474D
:100590008246102002E0082000E00A20814609E09F
:1005A000A96908FB0908761E01987F1C44F40074B1
:1005B00088478246002E05DD4946504600F0BFF9C7
:1005C0000028EDDAE96901988847A00502D46FF0A8
:1005D0000100A8E7E00725D1600613D5600502D524
:1005E000C8F1000000E0404629680A1D2A60096839
:1005F000220501D5087015E0220701D5088011E019
:1006000008600FE02868011D29600068210502D5F7
:1006100080F8008006E0210702D5A0F8008001E004
:10062000C0F8008038467EE730B505460B462A46BE
:1006300013F8014B12F8010B08B1A042F8D01CB11D
:10064000002802D06D1CF1E7284630BD10B5431CD0
:1006500002E010F8011B71B18107FAD14FF00132AD
:1006600002C88C1A8C4314EAC211F9D0C01A0A06C7
:1006700003D0C01E10BDC01A10BD0A0401D0801ED8
:1006800010BD0902FCD0401E10BD421E12F8013FF1
:10069000002BFBD111F8013B002B02F8013BF9D1F3
:1006A000704710B5044610F0030F08BF11F0030F98
:1006B00040F015804FF0013E121FC0F20E8051F83D
:1006C000043BA3EB0E0C2CEA030C1CEACE1C08BF67
:1006D00040F8043BF0D0A1F1040102F10402521EE3
:1006E00008DB11F8013B002B00F8013BF7D1114664
:1006F00000F06AF9204610BD4FF0013C50F8042B81
:1007000051F8043B9A4221D1A2EB0C03934313EA24
:10071000CC1317D150F8042B51F8043B9A4215D151
:10072000A2EB0C03934313EACC130BD150F8042B28
:1007300051F8043B9A4209D1A2EB0C03934313EA0C
:10074000CC13DBD04FF00000704700BFD01A01BAC5
:10075000B1FA81F101F0180122FA01F0CB40C1F1A8
:100760002001DBB2C0B2C01A2CFA01F3D11A9143B6
:1007700011EAC311E6D17047704770477047000017
:10078000004870476C0800207047704770477047FA
:1007900038B504460A4600206946AFF300800028B9
:1007A00008BF38BD02460099204600F037F9012005
:1007B00038BD012000F010BBF8B5AFF3008005464E
:1007C00000200C46102000BF0646A819A0420DD9F3
:1007D000324669460020AFF30080070008BF00F0F2
:1007E000FBFA0098A04218BF0546C419FFF7C8FFDE
:1007F00005600746F01D20F007004619284600F066
:100800000AF8B44208BFF8BDA21B31463868BDE8FB
:10081000F84000F003B900210160C0E90110704701
:10082000102070472DE9F0470D4699469246044640
:1008300000F124080168880604D5E06921F0100160
:10084000216000E00120A84201DD471B00E00027F5
:10085000A1697A1902EB0900081AA0612078C00684
:1008600002D42046AFF30080002608E0D4E901213D
:100870001AF806009047206A401C761C20624E45FC
:10088000F4DB2078C0060AD52046AFF3008006E0EE
:10089000D4E9012130209047206A401C2062381E94
:1008A000A7F10107F4DC07E0D4E9012118F80500FD
:1008B0009047206A401C2062281EA5F10105F3DC48
:1008C0002046AFF300802078000602D50220BDE864
:1008D000F0870120FBE7000001694A1C02610878EB
:1008E000704700B58FB0CDE9013100210591054970
:1008F0007944CDE9031011466846FFF749FD0FB072
:1009000000BD0000E5FFFFFF0A6802F8010B0A6066
:10091000704710B5436913B1AFF3008001E0FFF7F2
:10092000D1FC012010BD127800F124010A700022D0
:100930004A700122EDE711684FF0FF32E9E73A28EB
:1009400000D2303820F02002412A01D3A2F1370032
:10095000884201D34FF0FF30704700000268114415
:100960001378016018467047D16005497944516198
:1009700004497944116200211161114600F072B8F6
:10098000EDFFFFFFDB000000426842B1016811F893
:10099000013B23B1521EC0E90012184670470121E5
:1009A000C160881E704742685AB1C368016843B984
:1009B00083688B4205D0491E521CC0E900120020FA
:1009C00070474FF0FF3070474FF000020429C0F02D
:1009D000128010F0030C00F00882CCF1040CBCF182
:1009E000020F18BF00F8012BA8BF20F8022BA1EBC3
:1009F0000C0100F0FAB95FEAC17C24BF00F8012BBA
:100A000000F8012B48BF00F8012B704700487047E1
:100A100064080020004870478408002003464068AE
:100A20008C46002818BF88423CBF03464068F8D374
:100A300018681844884207D00CF1030020F0070022
:100A4000001D411A521A0146081D0A60FFF7FFBB3C
:100A500010B5044600F014FA0068005D00F00100D3
:100A600010BD00002DE9F34F4FF0000A0C4656462A
:100A70008DB001200C9001F10C000B9062690B9875
:100A800001219047051E2DD0252D2CD0216A8847A5
:100A9000C0B162690B9801219047216A88470028FC
:100AA000F7D16269411E0B98904700E0761CA1695E
:100AB0000D988847216A88470028F7D1E1690D9889
:100AC0008847DBE7A1690D988847A842074601D10E
:100AD000761CD3E7E1690D9888477F1C02D1BAF1F3
:100AE000000F6FD06BE162690B9800273D463946D5
:100AF00090472A2804D162690B980121904701256B
:100B0000DFF8D08262690B9801219047A0F1300193
:100B10000A290AD24745E5DC07EB870100EB4107CC
:100B2000303FDFD445F01005ECE7E90601D46FF063
:100B300000476C280AD04C2814D0682815D06A28A1
:100B40000DD074281CD07A281AD01DE062690B9849
:100B5000012190476C2802D045F0040514E045F0CF
:100B600002050DE045F020050AE062690B980121BD
:100B70009047682802D045F0080505E045F4006577
:100B800062690B9801219047C4E9015765283DD05F
:100B900019DC58287AD00CDC452837D004DC25280D
:100BA00026D041289ED131E046282FD0472899D120
:100BB0002CE05B2877D0612828D063287CD064287B
:100BC00023D15AE0F6E06F2848D008DC66281DD013
:100BD00067281BD0692821D06E2816D127E07028FD
:100BE00045D0732868D0752847D078280DD14DE0BE
:100BF000A1690D988847252805463FF469AFE1694A
:100C00000D9888476D1C3FF46AAFD8E00D992346D4
:100C10006A466FF00100AFF30080C5E045F0400088
:100C200023464FF000026060A80736D43EE0E80794
:100C30007FF447AF2068011D21600068290501D5B8
:100C400006701BE7290701D5068017E7A90703D51A
:100C5000F117C0E9006111E706600FE745F04000B9
:100C600023464FF008026060A80716D41EE040F645
:100C70000E0125EA0100606016E045F040002346C1
:100C80004FF00A026060A80707D40FE045F040006B
:100C90006060A80708D5234610220D996FF0010067
:100CA000AFF3008080E007E0102223460D996FF03B
:100CB0000100FFF713FC77E04FF0000963284F466F
:100CC000C8464B46CB4602D05B2806D038E0E80643
:100CD00001D40120A060012732E06269D4F80CB091
:100CE0000B98012190475E2807D14FF00109494632
:100CF0006269D4F80CB00B989047216939B900218A
:100D00000A4603AB43F82120491C0829FADBD8B373
:100D1000216949B308F1010862690B9801219047E4
:100D20005D28F4D1B9F1000F09D0002003A951F8D2
:100D30002020D24341F82020401C0828F7DB03ABD9
:100D40002069002820794FEA40701ED05B46224679
:100D5000CDF80080CDE901970D9900286FF00100D2
:100D600020DAAFF300801FE0C11703AA00EBD161C6
:100D70004B1121F01F0102EB8302411A136801207D
:100D8000884003431360C7E719E00D992246002805
:100D90006FF00100009702DAAFF3008004E0AFF3D8
:100DA000008001E0AFF3008000280ADA401C06D181
:100DB0000C9820B14FF0FF300FB0BDE8F08F5046D7
:100DC000FAE7E90701D10AF1010A064400200C9074
:100DD00054E60000CCCCCC0C10B500F067F8BDE8B0
:100DE000104000F05EB84FF0000200B51346944684
:100DF0009646203922BFA0E80C50A0E80C50B1F173
:100E00002001BFF4F7AF090728BFA0E80C5048BF86
:100E10000CC05DF804EB890028BF40F8042B08BF24
:100E2000704748BF20F8022B11F0804F18BF00F820
:100E3000012B704770477546FFF7E8FDAE46050089
:100E40006946534620F00700854618B020B5FFF7E5
:100E5000BDF9BDE820404FF000064FF000074FF00D
:100E600000084FF0000B21F00701AC46ACE8C009C8
:100E7000ACE8C009ACE8C009ACE8C0098D467047D1
:100E800010B5FFF7C7FD001D10BD00BFA136000063
:100E900010B50446AFF300802046BDE81040FFF7D0
:100EA00081B9002801D000F029B8704710B5012899
:100EB00005D0002103A000F027F8012010BD09A1F2
:100EC000F8E7000053494752544D454D3A204F75BD
:100ED00074206F662068656170206D656D6F727932
:100EE000000000003A2048656170206D656D6F72EA
:100EF0007920636F727275707465640001491820FF
:100F0000ABBEFEE72600020070B505460C460A207F
:100F100000E06D1C00F011F835B128780028F8D1F8
:100F200002E0641C00F009F814B120780028F8D120
:100F3000BDE870400A20AFF3008008B569468DF81F
:100F400000000320ABBE08BD704721B1826842F0AB
:100F50000102826003E0826822F001028260704731
:100F600021B1826842F48072826003E0826822F4D8
:100F7000807282607047014600208A6802F0040295
:100F80000AB1012000E000207047014600208A6875
:100F900002F008020AB1012000E0002070470000C2
:100FA00030B502460020002350680F4C20400D79D8
:100FB0000C6844EA05242043506090680B4C2040A4
:100FC000D1E902542C434D7944EA45042043906012
:100FD000D06A20F470000C7C641EE4B2234340EA23
:100FE0000350D06230BD0000FFFEF0FFFDF7F1FFBF
:100FF000F0B504460D4600200021092D11DDE06802
:10100000A5F10A0606EB4607072606FA07F188430C
:10101000A5F10A0606EB460603FA06F10843E0606E
:101020000CE0206905EB4507072606FA07F188431F
:1010300005EB450603FA06F108432061072A0FDA9B
:10104000606B561E06EB86071F2606FA07F18843DB
:10105000561E06EB860605FA06F10843606322E099
:101060000D2A0FDA206BD61F06EB86071F2606FA1D
:1010700007F18843D61F06EB860605FA06F10843FA
:10108000206310E0E06AA2F10D0606EB86071F263A
:1010900006FA07F18843A2F10D0606EB860605FA6B
:1010A00006F10843E062F0BD816841F0080181600B
:1010B000704721B1826842F4A002826003E0826836
:1010C00022F4A00282607047816841F004018160CF
:1010D0007047000000B585B00020009001208DF819
:1010E00004008DF805004FF460200290002003906A
:1010F00002208DF8100069462148FFF751FF0723B1
:10110000012211461E48FFF773FF072302221146F2
:101110001B48FFF76DFF0723032204211848FFF740
:1011200067FF0723042203211548FFF761FF072308
:10113000052211461248FFF75BFF072306221946D6
:101140000F48FFF755FF01210D48FFF709FF012167
:101150000B48FFF7FAFE0A48FFF7A6FF00BF084852
:10116000FFF713FF0028FAD10548FFF7ADFF00BFD6
:101170000348FFF700FF0028FAD105B000BD0000CA
:101180000024014010B5012001F000F8002000F01B
:10119000FDFF10BD10B5002400BF12E00A48006832
:1011A00020F4004008490860642002F091FC0648E1
:1011B000006840F4004004490860642002F088FCA4
:1011C000641C052CEADB10BD0C0C01402DE9F84332
:1011D00005460F4600241034A41C0834E41CE868BB
:1011E000FFF734FA204484B2601C84B2A01C84B29D
:1011F00004F1080084B2E01C84B22869FFF726FAE3
:10120000204484B2601C84B2A01C84B204F10900A2
:1012100084B2A01C84B2601C84B2002611E0A01C21
:1012200084B2A01D84B2E01C84B206EB460157F8DC
:101230002100FFF70BFA204484B2601C84B2701CBA
:10124000C6B26878B042EADC012004EB400084B208
:101250002046FEF7CDFF80466878009017A14046F3
:10126000D5E90323FFF71AF800261DE0324623A133
:101270004846FFF713F823A14046FFF706FA494610
:101280004046FFF702FA20A14046FFF7FEF906EBC1
:10129000460057F820104046FFF7F7F91BA14046DB
:1012A000FFF7F3F9701CC6B26878B042DEDC18A113
:1012B0004046FFF7EAF94046BDE8F8837B22416EDD
:1012C0007377223A2248656C6C6F21222C22776951
:1012D000666953534944223A222573222C227769A6
:1012E000666950617373223A222573222C22506C56
:1012F000616E7473436E74223A256400506C616EA3
:10130000742564002C220000223A220022000000F2
:101310007D00000000BFFEE710B501F095F801F078
:1013200012F9044801F02EFE00F034FB00F0CEFE6E
:1013300010BD0000405489001CB51248006820F41C
:10134000704040F440500F4908600E480830006873
:1013500020F400600B49083108600846006840F43A
:1013600080500860642002F0B3FB06480830006833
:1013700020F48050034908310860694601A802F052
:10138000A9FC1CBD040801400146114A01290DD1E8
:1013900005E0101EA2F1010201D1012070470D48A5
:1013A000006800F400600028F3D00CE005E0101E97
:1013B000A2F1010201D10120F0E70648006800F423
:1013C00000600028F3D1034800680020E6E7000031
:1013D000A0860100080801407047704770477047B9
:1013E00070477047704721B1026842F00102026005
:1013F00004E002684FF6FE731A4002607047000076
:1014000001684FF6FE7211400160002101604160E9
:101410008160C1604B49884208D14A49083949680E
:1014200041F00F01474A083A51608AE045491431BA
:10143000884208D143490839496841F0F001414ADE
:10144000083A51607DE03F492831884208D13D4942
:101450000839496841F470613A4A083A516070E0CD
:1014600038493C31884208D136490839496841F445
:101470007041344A083A516063E032495031884241
:1014800008D130490839496841F470212D4A083A99
:10149000516056E02B496431884208D12949083906
:1014A000496841F47001274A083A516049E02549EA
:1014B0007831884208D123490839496841F0706180
:1014C000204A083A51603CE01F49884206D1011F7A
:1014D000096841F00F01021F116032E01A4914310E
:1014E000884208D11849091F096841F0F001164ADD
:1014F000121F116025E014492831884208D1124991
:10150000091F096841F470610F4A121F116018E049
:101510000D493C31884208D10B49091F096841F443
:101520007041094A121F11600BE00749503188428F
:1015300007D10549091F096841F47021024A121FA9
:1015400011607047080002400804024010B50022F4
:10155000026847F6F0739A430C6A8B6823430C6960
:1015600023434C6923438C692343CC6923434C6A4E
:1015700023438C6A23431A430260CB6843600B68A1
:1015800083604B68C36010BD30B58BB005460C4618
:101590001048FFF735FF1048009001950020029099
:1015A00003940490802005904000069080000790EE
:1015B000202008904FF44050099000200A9069467E
:1015C0000448FFF7C3FF01210248FFF70CFF0BB0EF
:1015D00030BD0000080002404C24014030B58BB003
:1015E00005460C461348FFF70BFF13480090019582
:1015F0000020029003940490802005904000069003
:1016000000200790202008904FF4405009900020BF
:101610000A9069460748FFF799FF012240210648D2
:10162000001F01F0D7FF01210248FFF7DCFE0BB0DD
:1016300030BD0000580002400438014070470000EF
:1016400010B504460448047000F058FA4FF4FA60EC
:1016500002F03EFA10BD00000F00002038B504462D
:10166000052002F035FAA1B26B460122034800784A
:1016700000F066FA9DF8000038BD00000F00002061
:1016800038B50446102C30DA4FF4006000EBC4107B
:1016900084B2142002F01CFA6B4601222146144841
:1016A000007800F04DFA9DF80000002815DD1420A8
:1016B00002F00EFA9DF80000FEF79AFD0546601C48
:1016C00081B22B469DF800200948007800F038FAD6
:1016D00000209DF80010685405E00120FEF788FD09
:1016E000054600202870284638BD0020FCE7000091
:1016F0000F00002013B50446142002F0E9F9A1B24E
:1017000001AB01220248007800F0CCFA1CBD0000B9
:101710000F000020F8B504460E463046FEF796FF4F
:10172000401CC0B200900027102C27DA4FF4006054
:1017300000EBC41084B29DF8000080281EDA6B46CE
:10174000012221460E48007800F0ACFA384487B2F6
:1017500000250FE0052002F0BBF97319601C284436
:1017600081B201220648007800F09CFA384487B222
:10177000681CC5B29DF800008542EBDB3846F8BD19
:101780000F000020704770477047704770477047E0
:10179000704710B54FF4B4624FF4FA71080701F0C6
:1017A000FDFD00220421080701F026FE4FF08040D5
:1017B00001F008FE10BD70470549096821F01001CD
:1017C000034A116011460968014311607047000027
:1017D0000020024001460020034A106800F0380053
:1017E0000843106070470000002002402DE9F041DE
:1017F000024600250026002000230024002791F83F
:1018000003C00CF00F0591F803C00CF0100CBCF1F4
:10181000000F03D091F802C04CEA050591F800C012
:10182000BCF1000F31D0146800202BE04FF0010C08
:101830000CFA00F3B1F800C00CEA03069E4220D176
:1018400083004FF00F0C0CFA03F7BC4305FA03FCBE
:101850004CEA040491F803C0BCF1280F06D14FF004
:10186000010C0CFA00FCC2F814C00AE091F803C0A5
:10187000BCF1480F05D14FF0010C0CFA00FCC2F886
:1018800010C0401C0828D1D31460B1F800C0BCF1CE
:10189000FF0F34DD546800202EE000F1080C4FF0FB
:1018A000010808FA0CF3B1F800C00CEA03069E42E6
:1018B00021D183004FF00F0C0CFA03F7BC4305FA5B
:1018C00003FC4CEA040491F803C0BCF1280F05D1D5
:1018D00000F1080C08FA0CF8C2F8148091F803C063
:1018E000BCF1480F07D100F1080C4FF0010808FACD
:1018F0000CF8C2F81080401C0828CED35460BDE814
:10190000F0810000F0B50A460023002400210025E4
:1019100000F00046B6F1004F02D11D4EF16901E022
:101920001B4E7168C0F3034583B200F44016B6F550
:10193000401F08D121F07061154E766826F0706660
:10194000134F7E6012E000F48016B6F5801F06D1BA
:10195000032606FA05F4A14341F0706106E0460D46
:10196000360103FA06F6B14341F0706122B1460D2B
:10197000360103FA06F6314300F00046B6F1004F97
:1019800002D1034EF16101E0014E7160F0BD000033
:101990000000014008B501214D48FFF7B3FF0121C8
:1019A0000420FFF7AFFF4FF47040ADF800001020A7
:1019B0008DF8030003208DF8020069464548FFF7C3
:1019C00015FF4020ADF8000018208DF8030003201B
:1019D0008DF8020069463F48FFF708FF8020ADF808
:1019E000000048208DF8030003208DF802006946AE
:1019F0003848FFF7FBFE0320ADF8000010208DF8FB
:101A0000030003208DF8020069463248FFF7EEFE1E
:101A10003020ADF8000010208DF8030003208DF871
:101A2000020069462C48FFF7E1FE4FF4C050ADF8C4
:101A3000000010208DF8030003208DF80200694695
:101A40002648FFF7D3FE7E20ADF8000000208DF879
:101A5000030003208DF8020069462048FFF7C6FE08
:101A60000820ADF8000010208DF8030003208DF849
:101A7000020069461848FFF7B9FE4FF40070ADF850
:101A8000000010208DF8030003208DF80200694645
:101A90001148FFF7ABFE4FF48070ADF8000048200E
:101AA0008DF8030001208DF8020069460B48FFF70E
:101AB0009DFE4FF44060ADF8000003208DF8020059
:101AC0001C208DF8030069460248FFF78FFE08BD11
:101AD00000023000000C01400010014000080140ED
:101AE0000348006820F400400149086000BFFEE799
:101AF0000C0C014070477047704770471FB50121BB
:101B0000880500F023FB0020ADF804004BF6FF70C1
:101B1000ADF806004FF48060ADF80A000001ADF8A2
:101B20000C00054800906946044800F073F9012153
:101B3000024800F04AF91FBD801A06000058004014
:101B40002DE9F04180460D4616461F4644F62064B6
:101B50005148008840F480704F49088006E0201EFC
:101B6000A4F1010402D10120BDE8F0814B494A48AB
:101B700000F016F90028F2D000224146464800F055
:101B8000BFF905E0201EA4F1010401D10220EBE71A
:101B90004349414800F004F90028F3D0C5F303217C
:101BA0003D4800F0B6F905E0201EA4F1010401D182
:101BB0000320D9E73A49891C374800F0F1F800289A
:101BC000F2D0E9B2344800F0A4F905E0201EA4F1F7
:101BD000010401D10420C7E73149891C2E4800F0D7
:101BE000DFF80028F2D02C48008840F480702A49A1
:101BF000088005E0201EA4F1010401D10520B3E70F
:101C00002649254800F0CCF80028F3D001224146AF
:101C1000214800F075F92048008840F480601E4992
:101C2000088005E0201EA4F1010401D106209BE7F5
:101C30001A49491C184800F0B3F80028F2D01FE0F8
:101C400036B11548008840F48060134908800AE0E6
:101C50001148008820F480600F49088008460088F9
:101C600040F40070088000BF0C493F310A4800F082
:101C700097F80028F8D008481030008807F8010BC2
:101C8000301EA6F10101CEB2DAD10121024800F0E6
:101C90007BF8002068E700000058004001000300C6
:101CA000820007002DE9F04107460D4690461E468A
:101CB00044F620640121314800F093F806E0201E2C
:101CC000A4F1010402D10120BDE8F0812C492B4888
:101CD00000F066F80028F2D000223946274800F0CC
:101CE0000FF905E0201EA4F1010401D10220EBE769
:101CF0002449224800F054F80028F3D0290A1F484C
:101D000000F007F905E0201EA4F1010401D1032031
:101D1000DAE71C49891C194800F042F80028F2D083
:101D2000E9B2164800F0F5F805E0201EA4F1010420
:101D300001D10420C8E71349891C104800F030F88D
:101D40000028F2D00CE016F8010B0C491031088085
:101D500000BF0C49891C094800F022F80028F8D07F
:101D6000B8F10000A8F1010101F0FF08EBD1012159
:101D7000024800F042F80020A6E7000000580040AA
:101D8000010003008200070021B1028842F4806252
:101D9000028004E002884FF6FF331A400280704749
:101DA00070B502460024002500230020958A138B7D
:101DB0001B0445EA030626F07F4404EA01068E422E
:101DC00001D1012000E0002070BD21B1028842F065
:101DD0000102028004E002884FF6FE731A4002807E
:101DE000704721B1028842F48072028004E00288C8
:101DF0004FF6FF631A400280704721B1028842F417
:101E00000072028004E002884FF6FF531A400280FD
:101E1000704700002DE9F04385B004460D460026CA
:101E2000B1460427DFF8CC80A6884FF6C070064084
:101E3000684600F0D7F9DDF808802F48B8FBF0F0CD
:101E40001FFA80F946EA0906A68020884FF6FE713F
:101E50000840208000262949286888420CD8286834
:101E60004000B8FBF0F087B2042F00DA04273E43AD
:101E700009F10100208427E0E8884BF6FF718842D1
:101E800006D1286800EB4000B8FBF0F087B209E00B
:101E9000286800EBC00101EB0010B8FBF0F087B23E
:101EA00047F48047C7F30B0008B947F0010747F430
:101EB000004006434FF4967009FB00F04FF47A712E
:101EC00090FBF1F0401C2084A683208840F00100A4
:101ED000208026884FF6F5300640A8886989084397
:101EE00006432680A88929890843208105B0BDE8DA
:101EF000F083000000127A0040420F00A08601002B
:101F000012B141F0010102E04FF6FE731940018267
:101F100070470182704700002DE9F04780460E4669
:101F200041463046FEF780FB05461BA12846FEF7DA
:101F30007BFB81466DB3B9F1000F08D04046FEF738
:101F400085FBA9EB0501891E081AC4B20DE03046D5
:101F5000FEF77CFBA91BA0EB010AAAF1050A40468B
:101F6000FEF774FBAAEB0000C4B2601CFEF740F958
:101F700007464046FEF76AFB284400F1030A224662
:101F800051463846FEF78DFB002139553846BDE8ED
:101F9000F0870020FBE700002C00000000BFFEE7F8
:101FA0002DE9F04104460E46A020FFF749FB4FF40F
:101FB000E13001F095FA00210846FFF79BFB002075
:101FC000FFF74CFB074667B10220207017A0E060C6
:101FD00016A0206115A0606014A0A06000206070B1
:101FE00021E00120FFF73AFB60700020FFF748FB7B
:101FF000E0600120FFF744FB20610220FFF740FB77
:1020000060600320FFF73CFBA060002508E0281D6E
:10201000FFF736FB05EB450146F82100681CC5B209
:102020006078A842F3DCBDE8F08100000000000009
:102030007047000070B5002100230F22C47804B35C
:10204000154C246804F4E064C4F5E064210AC1F18D
:102050000403CA40447804FA03F18478144021430D
:1020600009010E4C0678A155047804F01F050124DF
:10207000AC4005786D11AD0005F1E025C5F80041D3
:1020800009E0047804F01F050124AC40044D0678F3
:10209000761145F8264070BD0CED00E000E400E04C
:1020A00080E100E002490143024A116070470000EC
:1020B0000000FA050CED00E0024A0A400243024B20
:1020C0001A60704780FFFF1F08ED00E008B500218F
:1020D0004FF00060FFF7F0FF4FF4A060FFF7E2FF62
:1020E00025208DF8000001208DF8010000208DF8DA
:1020F000020001208DF803006846FFF79BFF08BD32
:1021000070470000014908627047000000000E425D
:102110007047000001460020034A506820F4404008
:1021200008435060704700000010024029B1064A81
:1021300052690243044B5A6104E0034A52698243E4
:10214000014B5A61704700000010024029B1064A55
:10215000D2690243044BDA6104E0034AD269824344
:10216000014BDA61704700000010024029B1064AB5
:1021700092690243044B9A6104E0034A92698243E4
:10218000014B9A617047000000100240014908604D
:1021900070470000400442420F48006840F00100D0
:1021A0000D490860084640680C4908400A494860E3
:1021B000084600680A490840074908600846006860
:1021C00020F4802008600846406820F4FE00486043
:1021D0004FF41F0088607047001002400000FFF8B5
:1021E000FFFFF6FE30B500210022002400232D4D14
:1021F0006D6805F00C0121B1042905D0082923D10F
:1022000005E0294D056022E0274D05601FE0254DC2
:102210006D6805F47012234D6D6805F48034022555
:1022200005EB92421CB9214D554305600BE01D4D55
:102230006D6805F400351DB11C4D5543056002E085
:10224000194D5543056002E0174D056000BF00BF02
:10225000144D6D6805F0F0010909154D6B5C0568BA
:10226000DD4045600F4D6D6805F4E061090A104DD1
:102270006B5C4568DD4085600A4D6D6805F4605112
:10228000C90A0B4D6B5C4568DD40C560054D6D6846
:1022900005F44041890B074D6B5CC568B5FBF3F550
:1022A000056130BD0010024000127A0000093D00B7
:1022B000100000202000002010B50146002200235D
:1022C00000204A11012A02D1094C236806E0022AA3
:1022D00002D1074C236A01E0054C636A01F01F023A
:1022E000012494401C400CB1012000E0002010BDEE
:1022F000001002400248406800F00C0070470000E7
:102300000010024001460020034A506820F0F0000F
:1023100008435060704700000010024011490968EE
:1023200021F480310F4A11601146096821F480219F
:102330001160B0F5803F03D0B0F5802F0ED106E0DC
:102340000849096841F48031064A116007E00549EF
:10235000096841F4A021034A116000E000BF00BFFA
:1023600070470000001002400149086070470000FB
:1023700000004242704700000149086070470000B9
:102380008004424201460020034A506820F4E06085
:1023900008435060704700000010024001460020D2
:1023A000034A506820F4605040EAC1005060704712
:1023B00000100240014908667047000000004242D8
:1023C00002460020044B586820F47C1042EA0103C6
:1023D0001843014B586070470010024001490860E3
:1023E000704700003C0442420249096A0143014A25
:1023F000116270470010024001460020034A5068F5
:1024000020F00300084350607047000000100240B5
:1024100038B5002000900024002500BF3120FFF7D0
:102420004BFF05460098401C00900098B0F5A06F47
:1024300001D0002DF2D03120FFF73EFF08B101247A
:1024400000E00024204638BD10B5FFF7A5FE4FF48C
:102450008030FFF763FFFFF7DBFF0446012C5BD101
:102460001020FFF7A9F90220FFF7B4F90020FFF7C9
:1024700049FF0020FFF792FFA002FFF783FF4FF410
:10248000E0112004FFF79CFF0120FFF793FF00BF3E
:102490003920FFF711FF0028FAD00220FFF7ACFF28
:1024A00000BFFFF727FF0828FBD10020FFF75CFFE4
:1024B0004FF44040FFF72EFE01210846FFF756FE7D
:1024C00001214020FFF752FE01210420FFF74EFEBC
:1024D00001210820FFF74AFE01211020FFF746FEE8
:1024E00001210846FFF732FE01218803FFF73EFE77
:1024F00001218805FFF72AFE01210807FFF726FEC4
:102500000121C806FFF722FE01214802FFF72EFE37
:1025100001210846FFF70AFE10BD704703480088F6
:1025200040F0100001490880704700000428004076
:10253000034800884FF6EF71084001490880704752
:1025400004280040704710B50120FFF7DBFDFEF7BF
:1025500019FE0120FFF710FF00BF6120FFF7ACFE5E
:102560000028FAD04FF40070FFF73EFF0120FFF77C
:1025700035FF00F023F800F017F849F2646000F02E
:1025800003F800F011F810BD00B50246FFF7C6FFD2
:10259000C2F3034003490880091D0A80FFF7C8FF02
:1025A00000BD00000828004000BF0348008800F07C
:1025B00020000028F9D07047042800400748008810
:1025C0004FF6F77108400549088000BF03480088AE
:1025D00000F008000028F9D07047000004280040EF
:1025E0002DE9F04F9BB081460D46164655480088B0
:1025F0005449091F098840EA014A4FF0020B0020A4
:102600001A9051A003906868049051A00590A968A1
:10261000069151A00790012252A117A8FDF73EFE96
:1026200017A9089150A009906A784EA116A8FDF745
:1026300035FE16A90A914FA00B9050A00D9051A005
:102640000F9052A0119000240AE004EB440056F8C9
:102650002010201D03AA02EBC0004160601CC4B220
:102660006878A042F1DC4DE0BBF1010F17D0BBF15F
:10267000020F46D147A000F0AFF84B48C06D80B2C2
:1026800019900420CDE900906878001DC3B203AA18
:1026900046A1002000F054F94FF0010B31E01998E9
:1026A00000F0E8FE029000F00DFB074647B31998D2
:1026B00000F0E0FE029000F0BFF88046002417E032
:1026C000621C41A114A8FDF7E9FD414614A8FFF7DB
:1026D00023FC139004EB440006EB8000021D21A1B3
:1026E0001398FDF7DDFE1398FDF7B1FD601CC4B231
:1026F0006878A042E4DC4FF0000B4046FDF7A7FDF0
:1027000000BF00BF0F4800880E49091F098840EA32
:102710000140A0EB0A000A2802D2BBF1000FA3D1AE
:10272000084800880749091F098840EA0140A0EBD2
:102730000A000A2801D901201A901A981BB0BDE896
:10274000F08F00001C2800404C6F67696E0000008D
:1027500050617373000000004465766963654964E5
:102760000000000025640000506C616E7473436EBD
:1027700074000000506C616E74310000506C616E2A
:1027800074320000506C616E74330000506C616EE6
:10279000743400007777772E64617769646B756CA9
:1027A00070612E706C000000000002402F73657491
:1027B000446576696365436F6E66696753637269E2
:1027C00070742E7068700000506C616E7425640027
:1027D000704770477047000030B589B00446224604
:1027E0000BA101A8FDF75AFD0D48C06D85B201A9E6
:1027F0000CA001F0D1F92A4604210DA001F03AFA0B
:102800002946042001F014FA002009B030BD000070
:1028100022544350222C222573222C3830000000F1
:1028200000000240434950535441525400000000FC
:10283000434F4E4E45435400F8B5064600200090E5
:102840000FA13046FDF7F0FE04466A4613A120466C
:10285000FDF726FE009880B17CB11F340099081D59
:10286000FDF7C6FC054621462846009AFDF719FFEC
:102870000020009968542846F8BD0020FCE70000BD
:10288000436F6E74656E742D547970653A2074656B
:1028900078742F68746D6C0D0A0D0A00436F6E74A6
:1028A000656E742D547970653A20746578742F685C
:1028B000746D6C0D0A0D0A2578000000F8B5064607
:1028C0000020009011A13046FDF7AEFE04466A4696
:1028D00013A12046FDF7E4FD16A13046FDF7A4FE46
:1028E0000446009880B17CB1241D0099481CFDF776
:1028F0007FFC054621462846009AFDF7D2FE0020BF
:10290000009968542846F8BD0020FCE7436F6E74B8
:10291000656E742D4C656E6774683A200000000087
:10292000436F6E74656E742D4C656E6774683A20E3
:10293000256400000D0A0D0A4D6574686F6400007F
:102940002DE9FF4F85B0814616469846DDF848A030
:1029500000270025002410E056F83400FDF776FE2D
:10296000284485B206EBC4014868FDF76FFE284491
:1029700085B2A81C85B2601CC4B24445ECDB681E5D
:1029800085B22A4637A101A8FDF788FC00240AE099
:102990001AF83400022804D101A80AEBC4014860E7
:1029A00004E0601CC4B213988442F1DB00BFB9F1AB
:1029B000000F01D1052700E004270698FDF746FE29
:1029C000384487B207F1090087B2B81C87B2504675
:1029D000139900F0D5F9384487B27A1921A103A8D8
:1029E000FDF75CFC2048C06D1FFA80FB03A91FA007
:1029F00001F0D2F85946022001F0E8F8B9F1000FD1
:102A000003D11CA000F0A0FD02E01CA000F09CFD82
:102A1000069800F099FD1BA000F096FD1CA000F0A8
:102A200093FD5046139900F0DFF9002414E056F8A6
:102A3000340000F089FD17A000F086FD06EBC4010C
:102A4000486800F081FDA8F10100A04202DD12A05B
:102A500000F07AFD601CC4B24445E8DB09B0BDE873
:102A6000F08F0000256400000000024043495053ED
:102A7000454E4400504F5354200000004745542019
:102A80000000000020485454502F312E3100000027
:102A90000D0A00003D00000026000000F8B50020EF
:102AA0003B4908723B48008800F0E4FC06463AA126
:102AB000FDF7BAFD68B13748008800F0DBFC064638
:102AC000334A37A1FDF7ECFC002031494870012062
:102AD00088702F488078E0B12E48008800F0CAFC4A
:102AE000064632A1FDF7A0FD00284ED0142000F0CC
:102AF000EFFF2848008800F0BDFC0646FFF7DEFE29
:102B000023494860002088702B48C06D2149088007
:102B10003BE01F484078002837D11D48416824A079
:102B200000F0ECF8054625A12846FDF7E5FDC4B206
:102B300034B9174908782349096800F059F80DE0BD
:102B400021A12846FDF7D8FDC4B23CB91049087848
:102B50001FA100F04DF801200D4908720C480278C1
:102B60001FA16846FDF79AFB69461EA001F014F804
:102B70000120074948700846007A10B108464068AD
:102B8000F8BD03494868FDF762FB0020F8E7000044
:102B9000340000200C0000202B49504400000000AD
:102BA0002B4950442C256868752C00000D0A0D0A2D
:102BB0004D6574686F6400000000024054616C6BE6
:102BC0000000000008000020436F6E666967000087
:102BD0007B22416E7377223A20224F4B21227D00C7
:102BE00025640000434950434C4F5345000000000A
:102BF000F0B587B004460D461548026815A101A836
:102C0000FDF74CFB2846FDF721FD00F125073B466B
:102C1000224611A104A8FDF741FB1148C66D04A985
:102C200010A000F0B9FFB1B2012000F0CFFF10B149
:102C3000012007B0F0BD0DA000F086FC284600F092
:102C400083FCB2B2042113A001F014F80020F0E7D5
:102C5000000000202564000025642C25640000008D
:102C60000000024043495053454E440048545450DC
:102C70002F312E3120323030204F4B0D0A436F6EF2
:102C80006E656374696F6E3A636C6F73650D0A0DE0
:102C90000A00000053454E44204F4B000549086090
:102CA0000021054A917051700449C96D044A118090
:102CB000704700000800002034000020000002409F
:102CC0000C00002070B5064608A13046FDF7ACFCAC
:102CD000044608A13046FDF7A7FC054624B11DB106
:102CE000A54201D9012070BD0020FCE73230302020
:102CF0004F4B0000434C4F53454400002DE9F04733
:102D000080460E4641463046FDF78EFC05461BA127
:102D10002846FDF789FC81466DB3B9F1000F08D054
:102D20004046FDF793FCA9EB0501491E081AC4B201
:102D30000DE03046FDF78AFCA91BA0EB010AAAF1C1
:102D4000010A4046FDF782FCAAEB0000C4B2601CF9
:102D5000FDF74EFA07464046FDF778FC284400F19F
:102D6000010A224651463846FDF79BFC00213955A1
:102D70003846BDE8F0870020FBE700002600000091
:102D80002DE9F04106460F460024002524E016F800
:102D9000350030B1012807D0022809D003280FD10F
:102DA0000AE0A01D84B20BE004F1080084B207E041
:102DB00004F1100084B203E004F10E0084B200BFFD
:102DC00000BF06EBC5014868FDF740FC204484B213
:102DD000A01C84B2681CC5B2BD42D8DBA01C84B262
:102DE0002046BDE8F081000070B505460E4600247F
:102DF00024E015F8340030B1012808D002280AD0A8
:102E0000032810D10BE010A000F09EFB0BE010A0F7
:102E100000F09AFB07E011A000F096FB03E014A07D
:102E200000F092FB00BF00BF05EBC401486800F052
:102E30008BFB13A000F088FB601CC4B2B442D8DB4B
:102E40000FA000F081FB70BD486F73743A20000042
:102E50004163636570743A2000000000436F6E7434
:102E6000656E742D4C656E6774683A200000000032
:102E7000436F6E74656E742D547970653A2000004E
:102E80000D0A000010B506210748FEF77DFBFEF78E
:102E900021F901210548FEF70CF90548C06840F00A
:102EA00008000349C86010BD28000020002401402C
:102EB0000010014070B504460D462548006840F4F6
:102EC0008040234908600846006840F400500860CC
:102ED0000846006840F4004008600846006840F476
:102EE000805008600846006820F400500860FEF733
:102EF00050FCFFF7C7FFFEF71FFA29462046FFF7F1
:102F00004FF81348006840F4005011490860114818
:102F1000006800F4807010B1207802280CD10020E5
:102F200000F024FC29462046FEF750F90646FFF73C
:102F3000B5FE0120207008E0012000F017FC002001
:102F40002070D4E9030100F077FD002070BD00007F
:102F50000C0C01400808014008480068401C074963
:102F600008600846006800F0010028B904480068BD
:102F700080F4804002490860704700000000002093
:102F80000C0C014070B50146B1F1807F01D30020E7
:102F900070BD21F07F40401E4FF0E022506150177D
:102FA0000022002807DA1407260E0B4C00F00F054C
:102FB0002D1F665503E01407250E084C255400BF4D
:102FC00000204FF0E02290610323431F1046006968
:102FD000184310610020DBE718ED00E000E400E09A
:102FE0007047704770477047704770477047704729
:102FF00021B1028842F08002028004E002884FF68C
:103000007F731A400280704721B1028842F00102AA
:10301000028004E002884FF6FE731A400280704777
:1030200031B1B0F8442042F40042A0F8442005E059
:10303000B0F84420C2F30E02A0F84420704700000C
:1030400070B5002400220023058C4FF6FE76354033
:103050000584028C8388048B4FF68F752C40B51E37
:103060002C400D882C43751E2A400D892A434D881B
:103070002A43144DA8420BD0134DA84208D0134D3B
:10308000A84205D0124DA84202D0124DA84213D139
:103090004FF6F7752A404D892A434FF6FB752A40B3
:1030A0008D882A434FF6FF652B404FF6FF552B4086
:1030B0008D892B43CD892B4383800483CD888586DE
:1030C000028470BD002C01400034014000400140EA
:1030D00000440140004801400A460021018B4FF6A0
:1030E000F7731940114301837047000070B5002445
:1030F00000220023058C4FF6EF7635400584028CC4
:103100008388048B48F6FF752C404FF6FF452C4012
:103110000D884FF6FF7606EA05252C434FF6DF753E
:103120002A400D8906EA05152A434D8806EA051549
:103130002A43154DA84202D0144DA8421DD14FF686
:103140007F752A404D894FF6FF7606EA05152A431A
:103150004FF6BF752A408D8806EA05152A434FF6BB
:10316000FF352B404FF2FF752B408D8906EA850510
:103170002B43CD8906EA85052B4383800483CD88C4
:103180000587028470BD0000002C0140003401401E
:103190000A460021018B4FF2FF7319404FF6FF736F
:1031A00003EA0223194301837047000070B500242D
:1031B00000220023058C4FF6FF6635400584028C03
:1031C0008388848B4FF68F752C404FF6FC752C400E
:1031D0000D882C434FF6FF552A400D894FF6FF7698
:1031E00006EA05252A434D8806EA05252A43154D9A
:1031F000A84202D0144DA8421DD14FF2FF752A40BB
:103200004D894FF6FF7606EA05252A434FF6FF352E
:103210002A408D8806EA05252A434EF6FF752B4085
:103220004DF6FF752B408D8906EA05152B43CD8998
:1032300006EA05152B4383808483CD888587028425
:1032400070BD0000002C0140003401400A460021FE
:10325000818B4FF6F773194011438183704700004B
:1032600070B5002200230024058C4EF6FF76354011
:103270000584038C8488828B48F6FF752A404FF6BC
:10328000FF452A400D884FF6FF7606EA05252A43BA
:103290004DF6FF752B400D8906EA05352B434D8809
:1032A00006EA05352B430B4DA84202D00A4DA84231
:1032B00008D14BF6FF752C408D894FF6FF7606EA54
:1032C00085152C4384808283CD88A0F840500384E8
:1032D00070BD0000002C0140003401400A4600216E
:1032E000818B4FF2FF7319404FF6FF7303EA0223FD
:1032F0001943818370470000002202881D4B9842C9
:103300000ED01D4B98420BD0B0F1804F08D01B4B14
:10331000984205D01A4B984202D01A4B984204D1D9
:103320004FF68F731A404B881A43174B984207D0B9
:10333000164B984204D04FF6FF431A40CB881A43ED
:1033400002808B8883850B8803850A4B98420BD0BB
:10335000094B984208D00E4B984205D00D4B98422D
:1033600002D00D4B984201D10B7A03860123838250
:1033700070470000002C0140003401400004004070
:1033800000080040000C0040001000400014004005
:10339000004001400044014000480140FEB506469F
:1033A0000C461546A0B2ADF80000A8B2ADF8040076
:1033B0000020ADF80600ADF8020069463046FFF780
:1033C0009BFFFEBD10B504460948844202D009485F
:1033D000844203D101210648FFF722FE0121204645
:1033E000FFF706FE01212046FFF70EFE10BD00008C
:1033F000002C0140003401407FB506460C461546BE
:10340000ADF80C506020ADF800000120ADF80200CE
:103410003220ADF806000020ADF80800012C08D1DC
:1034200069463046FFF70CFE08213046FFF754FE90
:103430001FE0022C08D169463046FFF757FE0821ED
:103440003046FFF7A5FE14E0032C08D1694630464C
:10345000FFF7ACFE08213046FFF7F8FE09E0042C28
:1034600007D169463046FFF7FBFE08213046FFF7DB
:1034700035FF7FBD70B504461548C56DAC4222D0FE
:10348000AC420BD9621B1348011B1348FDF709F925
:103490000021601B401C104A115417E00D48011B0D
:1034A00022460D48FDF7FDF8C5F580620A49081966
:1034B0000A49FDF7F6F8002104F58060401B401C26
:1034C000054A115402E0002003490870024870BD0B
:1034D0000000024040040020400400204000002082
:1034E0001FB504464FF480610E48FEF777F80121BE
:1034F0008803FEF73BFE00940020ADF80400ADF811
:103500000600ADF80800ADF80C000C20ADF80A007C
:103510006946054800F0B6F80121034800F04EF86E
:103520001FBD000040000020003801403EB50446A9
:10353000224604A16846FCF7B1FE684600F004F894
:103540003EBD00002564000010B5044603E014F8F9
:10355000010B00F0CBFF20780028F8D110BD00004F
:1035600010B540F22771104800F03DF8D0B10F4877
:1035700000780F49097888420ED00D480078401C29
:1035800000F01F000A4908700A480A461278815C58
:10359000054800F0E3F805E0002240F227710248F8
:1035A00000F04BF810BD000000380140240000205E
:1035B00025000020410800207047704721B1828912
:1035C00042F40052828104E082894DF6FF731A4072
:1035D000828170471AB1838A0B43838202E0838A17
:1035E0008B438382704770B5024600240023002578
:1035F000002040F66A16B14200D100BFC1F3421567
:1036000001F01F03012606FA03F3012D02D196896A
:10361000334006E0022D02D1168A334001E0968A3B
:1036200033400C12012606FA04F41688344013B114
:103630000CB1012000E0002070BDF0B5034600246D
:1036400000260025002040F66A17B94200D100BFCD
:103650001846C1F3421401F01F06012707FA06F5C8
:10366000012C01D10C3004E0022C01D1103000E01B
:1036700014301AB107682F43076002E00768AF43B0
:103680000760F0BD2DE9F04786B005460E460024E0
:10369000A24600BFA1460027B08900B100BF2F4657
:1036A0002C8A4CF6FF700440F08804432C82AC89CD
:1036B0004EF6F3100440B0883189084371890843FD
:1036C0000443AC81AC8A4FF6FF400440B089044308
:1036D000AC8201A8FEF786FD1F48874202D1DDF8C3
:1036E00010A001E0DDF80CA0A88900F4004040B172
:1036F0000AEBCA0000EB0A1031684900B0FBF1F890
:1037000007E00AEBCA0000EB0A1031688900B0FB41
:10371000F1F86420B8FBF0F004012009642101FBFA
:103720001089A88900F4004040B1322000EBC900A4
:10373000B0FBF1F000F00700044308E0322000EB9A
:1037400009106421B0FBF1F000F00F0004432C815C
:1037500006B0BDE8F087000000380140C1F3080260
:1037600082807047704700BFFEE770472DE9F04147
:1037700005463948006820F40050374908604FF486
:10378000E130FFF7ADFE3448006840F400503249A4
:1037900008600846006840F00200086008460068BB
:1037A00020F0010008602D48C06D87B2142000F0A1
:1037B0008FF92948006840F001002749086028482F
:1037C000C06840F020002649C8600846C06840F044
:1037D0001000C860234800882249091F098840EA70
:1037E000014600BF3846FFF745FE80461EA1FCF7A4
:1037F0001BFF48B91B4800881A49091F098840EA7D
:103800000140801B0A28EDD31348006820F4805043
:10381000114908600846006820F40050086035B976
:10382000042213A116A000F035F8044602E000F0CF
:10383000B1F80446012C07D1FDF7ACFC064800683E
:1038400040F48050044908600348006840F4005088
:1038500001490860BDE8F0810C0C01400000024005
:10386000001001401C28004072656164790000006E
:103870006D796E6577706C616E7470617373000042
:10388000506C616E74436C6F756453797374656DBD
:1038900000000000F0B58BB004460D4616462848DF
:1038A000C06D87B227A128A000F076F93946032021
:1038B00000F0BEF910B101200BB0F0BD2048C06D82
:1038C00087B22B46224622A101A80096FCF7E6FC0F
:1038D00001A923A000F060F93946032000F0A8F9FF
:1038E00008B10120E8E71648C06D87B21EA11FA0ED
:1038F00000F052F93946032000F09AF908B101208E
:10390000DAE70F48C06D87B21AA11CA000F044F995
:103910003946032000F08CF908B10120CCE70848B3
:10392000C06D87B218A119A000F036F939460320FE
:1039300000F07EF908B10120BEE70020BCE70000DE
:10394000000002403200000043574D4F4445000044
:10395000222573222C222573222C332C256400006F
:103960004357534150000000310000004349504D7F
:1039700055580000312C38300000000043495053A6
:103980004552564552000000330000004349505351
:10399000544F000010B50848C06D84B207A108A0BC
:1039A00000F0FAF82146032000F042F908B10120A6
:1039B00010BD0020FCE700000000024031000000C4
:1039C00043574D4F444500000148007870470000C0
:1039D0000E00002070B50C48C06D84B20BA000F042
:1039E000C5F8224604210BA000F044F90546214603
:1039F000052000F01DF920B90DB9002070BD01208F
:103A0000FCE70020FAE700000000024043574A416B
:103A1000500000004E6F2041500000000448006834
:103A200020F0010002490860012002490870704737
:103A30000C0C01400E00002070B590B004460D46FD
:103A40000B48C06D86B22B4622460AA101A8FCF79E
:103A500025FC01A90AA000F09FF83146142000F0CF
:103A6000E7F810B1012010B070BD0020FBE70000A6
:103A700000000240222573222C2225732200000020
:103A800043574A415000000010B50C48C06D84B245
:103A90000B48006840F001000949086022460321F4
:103AA00008A000F0E7F820B10020084908700120C4
:103AB00010BD00200549087000BFF9E70000024072
:103AC0000C0C014072656164790000000E0000205A
:103AD00010B504464FF47A7104FB01F000F002F8CF
:103AE00010BD000010B501464FF0E0239B6901EBCB
:103AF000C104181B084B1A68002802DA521C074B35
:103B0000184400BF044B1B689A42FBD84FF0E023D7
:103B10009B698342F6D810BD000000204054890004
:103B200030380A2801D20120704700207047000079
:103B300070B504462046FFF79DFC054608A1FCF73A
:103B400073FD08B1002070BD2046FFF793FC0546C9
:103B500004A1FCF769FD08B10120F4E70220F2E7B7
:103B60004F4B00004552524F5200000010B5044622
:103B700006A0FFF7E9FC2046FFF7E6FC04A0FFF7EC
:103B8000E3FC04A0FFF7E0FC10BD000041542B0053
:103B90003F0000000D0A000070B505460C4608A065
:103BA000FFF7D2FC2846FFF7CFFC06A0FFF7CCFCBE
:103BB0002046FFF7C9FC04A0FFF7C6FC70BD00005B
:103BC00041542B003D0000000D0A00002DE9F0419A
:103BD00004460D46144800881349091F098840EA25
:103BE00001402044461C00BF2846FFF743FC07461F
:103BF0000EA1FCF719FD40B90B4800880A49091FBE
:103C0000098840EA0140B042EED3074800880649DF
:103C1000091F098840EA0140B04202D20020BDE8F5
:103C2000F0810120FBE700001C2800403E0000005E
:103C300070B504460D460E4800880D49091F0988D5
:103C400040EA01402044461C00BF2846FFF770FFB1
:103C5000022808D1064800880549091F098840EA5A
:103C60000140B042F1D32846FFF762FF70BD00006B
:103C70001C2800402DE9F04104460D461646144824
:103C800000881349091F098840EA01402844471C5D
:103C900000BF3046FFF7EEFB80462146FCF7C4FC30
:103CA00040B90B4800880A49091F098840EA0140C9
:103CB000B842EED3064800880549091F098840EA42
:103CC0000140B84202D20020BDE8F0810120FBE7AC
:103CD0001C280040F0B587B005460E46002404E0DD
:103CE000002005A90855601CC4B2052CF8DB3F482C
:103CF000006820F4704040F440503C4908603B4864
:103D00000830006820F400603849083108601E203F
:103D1000FFF7DEFE35480830006840F400603349A4
:103D2000083108601420FFF7DDFE3048006820F4F9
:103D3000704040F400402D4908600120FDF724FB4D
:103D400010B1012007B0F0BD0020FDF71DFB08B148
:103D50000220F7E7002433E00120FDF715FB08B14E
:103D60000320EFE701A800F0C1F8DDE90101CDE98A
:103D700003010020FDF708FB08B10420E2E7DDE9BC
:103D8000030100F035F8282818D9E21704EB527225
:103D9000D21005AB9A5C2146E31704EB5373DB109A
:103DA000A4EBC303C3F107070123BB401A4320461A
:103DB000E31704EB5373DB1005AFFA54601CC4B275
:103DC000282CC9DB9DF814009DF8161008449DF8B6
:103DD0001810884201D00520B4E79DF8160028701D
:103DE0009DF8140030700020ACE70000040801408A
:103DF00003B50C4901980968884208D14FF0E020CA
:103E00008069092190FBF1F00099081A0CBD4FF070
:103E1000E0208069092190FBF1F00349081A00991C
:103E20000844F3E7000000204054890010B513480F
:103E3000C06820F008001149C8606420FFF748FE00
:103E40000F4840896421484340F2262190FBF1F05D
:103E5000C4B21420FFF73CFE0AA0FFF775FB084927
:103E60004889FFF763FB0EA0FFF76EFB0348C068AD
:103E700040F008000149C860204610BD0010014014
:103E800028000020202320496E736F6C6174696FD5
:103E90006E204144432056616C75653A2000000055
:103EA0002023200070B504460E48C06820F00800AA
:103EB0000C49C8606420FFF70BFE0B4830F8140073
:103EC0006421484340F6BE2190FBF1F0C5B21420B6
:103ED000FFF7FEFD0348C06840F008000149C860D4
:103EE000284670BD00100140280000200CB54FF09E
:103EF000E0218969092291FBF2F1009103490968E7
:103F00000191DDE90012C0E900120CBD00000020A3
:103F1000BCB04FF00008C346002029902A9027909B
:103F200028902590269023902490219022902BA9D0
:103F300037A8FEF7BFFF00208DF820008DF8220083
:103F40008DF82300FD48006840F40050FB490860EC
:103F50000846006820F4804008606420FFF7B8FD40
:103F6000F648006840F40050F449086008460068CC
:103F700040F480400860F2A0099038980A90F2A0BE
:103F80000B9039990C91F2A00D9021A90E91F2A0FD
:103F90000F90F4A11091F4A0119029A91291F6A00C
:103FA000139027A91491F7A0159025A91691F8A0B0
:103FB000179023A9189100208DF86400F7A01A909B
:103FC00001208DF86C00F9A11C9102208DF874007D
:103FD000DEA11E9103208DF87C00F5A119A8C16116
:103FE000FC480088FB49091F098840EA0140A0F20B
:103FF0003A20069071E29DF8DC00002877D1B8F1F4
:10400000000F74D09DF82300D0B1CC48006820F494
:104010000040CA4908600846006820F40050086063
:10402000FDF78AF900208DF82300C448006840F4A9
:104030000050C24908600846006840F4004008602B
:10404000E4480088E349091F098840EA01400699CD
:10405000401AB0F5167FCDD9FFF7B6FC012801D183
:10406000FFF712FD9DF8200070B9FFF7B3FC01289F
:104070000AD0B248006840F48050B0490860DDE9D9
:104080003A01FFF7D9FC28E2AC48006820F48050E0
:10409000AA4908609DF82200002875D09DF82000EC
:1040A00001283CD10A20FFF713FD5046FFF7E2F943
:1040B0000290FEF707FE0746012F0AD0C548008888
:1040C000C449091F098840EA0140A0EB09001E28E5
:1040D00090D99DF821109DF8DD00401E814207DA3D
:1040E0009DF82100401CC0B28DF8210013E099E03A
:1040F00000208DF82200FFF791FC9048006840F402
:1041000080508E490860B3480088B249091F098869
:1041100040EA0140069000208DF82000DDE19DF886
:10412000210000EB40002BA901EB8000AAA142680E
:1041300021A8FCF7B3F89DF8210000EB40002BA963
:1041400001EB8000027AA4A129A8FCF7A7F8A3A09C
:10415000FEF742FB01208DF82000A548C06D1FFA34
:1041600080FA042019A9082309AACDE90010A1A109
:104170000020FEF7E5FB974800889649091F09884B
:1041800040EA0149A9E1FFE76C48006820F40050CB
:104190006A49086000240AE02046FFF783FE04EB2A
:1041A00044012BAA02EB81010872601CC4B29DF885
:1041B000DD00A042F0DC0DF1B501481CFFF78AFDDF
:1041C00006465EB101208DF8230090A127A8FCF7D8
:1041D00065F88EA125A8FCF761F80BE09DF8B520E5
:1041E0007DA127A8FCF75AF89DF8B6207AA125A84A
:1041F000FCF754F8FFF71AFE024677A1029023A8B5
:10420000FCF74CF89DF8230028B901208DF8220016
:1042100000208DF821004948006840F400504749CB
:1042200008605AE19DF8DC0038BBB8F1000F24D1DA
:104230000BF1010000F0FF0B4FF47A70FFF748FC20
:104240003E48006820F400503C4908602BAA37A97A
:1042500019A8FEF7C5F948B94FF00108FFF7DEFBD2
:104260003648006840F4805034490860334800689C
:1042700040F40050314908602FE19DF8DC0001282E
:10428000CFD1FEF70BFC0546002D56D0294660A085
:10429000FEF734FD059000200599FDF73BFA0598DF
:1042A000FBF7D5FFC820FFF713FC29465BA0FEF7FC
:1042B00025FD059001200599FDF72CFA0598FBF7DF
:1042C000C6FFC820FFF704FC294657A0FEF716FDDD
:1042D000059002200599FDF71DFA0598FBF7B7FF39
:1042E000C820FFF7F5FB294652A0FEF707FD059011
:1042F00003200599FDF70EFA0598FBF7A8FFC820E3
:10430000FFF7E6FB29464EA0FEF7F8FC059003AA4E
:1043100031A10598FCF7C4F80398C1B20120FDF75C
:10432000E9F90598FBF793FFC820FFF7D1FB0820B8
:10433000FBF75EFF049000249EE0B1E00C0C01400E
:104340004C6F67696E0000005061737300000000DD
:10435000506C616E744964005761746572696E6770
:104360000000000030000000536F696C4D6F6973EE
:10437000747572650000000041697248756D69646A
:104380006974790054656D70657261747572650049
:10439000496E736F6C6174696F6E00006461776958
:1043A000646B756C70612E706C0000002A2F2A00FF
:1043B0006170706C69636174696F6E2F782D7777A7
:1043C000772D666F726D2D75726C656E636F6465A7
:1043D000640000001C280040256400007777772ED9
:1043E00064617769646B756C70612E706C0000009D
:1043F000000002402F736574506C616E74446174E8
:10440000615363726970742E706870002D31000002
:10441000776966695353494400000000776966690B
:104420005061737300000000757365724C6F6769AB
:104430006E000000757365725061737300000000B8
:10444000506C616E7473436E74000000224623A1A9
:104450000498FBF723FF29460498FEF74FFC0590CC
:10446000201D0599FDF756F9C820FFF731FB059887
:10447000FBF7EDFE601CC4B203988442E6D30498B7
:10448000FBF7E5FE2846FBF7E2FE00210846FDF7B4
:1044900031F92BA937A8FCF799FE0290FEF7FEFB35
:1044A000104800880F49091F098840EA0140069911
:1044B000401A12D00C48006880F480500A49086005
:1044C0000846006880F400500860064800880549E6
:1044D000091F098840EA014006908CE5506C616E26
:1044E000742564001C2800400C0C014070B5054682
:1044F0000A480078401C00F01F0400BF08480078FC
:104500008442FBD00748055504480470012240F25C
:1045100027710548FFF791F870BD000024000020C6
:1045200025000020410800200038014010B5002976
:104530000AD00878002807D005487844FCF7DCF852
:10454000002801D0002010BD0248784410BD0000B2
:104550003E000000360000008846000800000020F1
:104560002800000028010008B046000828000020AC
:10457000A0180000440100081001000043000000E2
:10458000F8FFFFFF00404040404040404040414174
:104590004141414040404040404040404040404018
:1045A00040404040400502020202020202020202B2
:1045B00002020202022020202020202020202002AF
:1045C000020202020202909090909090101010103F
:1045D00010101010101010101010101010101010DB
:1045E000020202020202888888888888080808086F
:1045F000080808080808080808080808080808083B
:104600000202020240000000000000000000000062
:10461000000000000000000000000000000000009A
:10462000000000000000000000000000000000008A
:10463000000000000000000000000000000000007A
:10464000000000000000000000000000000000006A
:10465000000000000000000000000000000000005A
:10466000000000000000000000000000000000004A
:10467000000000000000000000000000000000003A
:10468000000000000000000000000000000000002A
:104690000000000000000000000000000102030410
:1046A00001020304060708090204060800000000CE
:04000005080000ED02
:00000001FF
