:020000040800F2
:100000007018002001010008311D0008E1170008E8
:10001000611C0008191000081F34000800000000CF
:10002000000000000000000000000000D5240008CF
:100030004113000800000000111E00083D2C0008BC
:1000400023340008011E0008C52C000845220008C2
:10005000B7140008752000088514000889140008EA
:100060008B1400088D1400088F140008DD100008A0
:10007000DF100008E1100008E3100008E510000898
:10008000E7100008E91000084D0C00081B010008EB
:100090001B0100081B0100081B0100089114000847
:1000A000C72C0008CD2C0008CB2C0008C92C000858
:1000B000CF2C0008D12C0008D32C0008F71700081B
:1000C000F5170008FB170008F9170008D1240008ED
:1000D000D324000819320008713200087332000876
:1000E000871400081B2200081D340008DFF80CD01C
:1000F00000F05CFB00480047AD4400087018002089
:100100000648804706480047FEE7FEE7FEE7FEE7B1
:10011000FEE7FEE7FEE7FEE7FEE7FEE71D1000084C
:10012000ED000008421E12F8013F002BFBD111F830
:10013000013B02F8013B002BF9D1704730B5054671
:100140002A460B4612F8010B13F8014B08B1A042E6
:10015000F8D01CB1002802D06D1CF1E7284630BD54
:1001600010B5044604E00B7800F8013B03B1491CCC
:10017000521EF8D2204610BD421C10F8011B002967
:10018000FBD1801A704710B5002200E0521C835C3E
:100190008C5CA34201D1002BF8D1D8B2E1B2401A55
:1001A00010BD00000FB400B58DB010A909900B90E0
:1001B00000914FF0FF300A9000200C900548069007
:1001C000054807906A4609A80F9900F009F90DB093
:1001D0005DF814FBFD0300081B0400082DE9FF5F18
:1001E0001D464FF0FF3BD5E9014691465F464FF073
:1001F0000008A9697F1C01988847296A82468847B8
:100200000028F6D1BAF1FF3F0CD024F4C064002ED0
:1002100019DD600614D5BAF12B0F09D0BAF12D0FF4
:100220000ED103E0584604B0BDE8F09F44F480646A
:10023000A9697F1C01988847761E8246002E02DD40
:10024000BAF1300F03D0B9F1000F26D032E0A9691E
:10025000761E44F400747F1C019888478246002E65
:1002600005DDBAF1780F06D0BAF1580F03D0B9F115
:10027000000F10D01EE0B9F1000F02D0B9F1100F3D
:1002800018D1A969761E24F400747F1C0198884750
:100290008246102002E0082000E00A20814609E0A2
:1002A00008FB0908A969761E44F400747F1C0198B4
:1002B00088478246002E05DD4946504600F07BF80F
:1002C0000028EDDAE96901988847A00502D46FF0AB
:1002D0000100A8E7E00725D1600613D5600502D527
:1002E000C8F1000000E0404629680A1D2A6009683C
:1002F000220501D5087015E0220701D5088011E01C
:1003000008600FE02868011D29600068210502D5FA
:1003100080F8008006E0210702D5A0F8008001E007
:10032000C0F8008038467EE730B50B460146002015
:100330002022012409E021FA02F59D4205D303FAA7
:1003400002F5491B04FA02F52844151EA2F1010228
:10035000F1DC30BD2DE9F05F0546002092469B465A
:1003600088460646814640241BE0284641464746CB
:10037000224600F03CFA53465A46C01A914110D327
:1003800011461846224600F023FA2D1A67EB0108A1
:100390004F4622460120002100F01AFA17EB00090F
:1003A0004E41201EA4F10104DFDC484631462A46B6
:1003B0004346BDE8F09F3A2800D2303820F02002B2
:1003C000412A01D3A2F13700884201D34FF0FF3018
:1003D00070470000026811441378016018467047A6
:1003E000D160044951610449116200211161114633
:1003F00000F024BAD503000833080008426842B16F
:10040000016811F8013B23B1521EC0E900121846E1
:1004100070470121C160881E704742685AB1C368A5
:10042000016843B983688B4205D0491E521CC0E95C
:100430000012002070474FF0FF3070472DE9FE4F4B
:10044000804681EA0300C00F0C46009021F0004175
:1004500023F00045B8EB0200A94105D240462146F1
:1004600090461C460B46024623F00040104347D0FE
:10047000270DC7F30A00C3F30A510290401A0190F6
:1004800040286BDAC3F3130040F4801B00989246B7
:1004900020B10023D2EB030A63EB0B0B0198594602
:1004A000C0F14002504600F093F906460D46504612
:1004B0005946019A00F0ABF910EB080061410024A5
:1004C00087EA115284EAE7731A4340D0009A62B374
:1004D000019A012A4FEA075215DC001B61EB020169
:1004E0004FF0004202EA0752CDE90042001C41F5FC
:1004F000801132462B4600F046FB03B0BDE8F08F7A
:1005000040462146F9E7001B61EB0201001C41F562
:10051000801300185B412018A2F5001747EB030178
:1005200040EAD570B6196D4111E06D084FEA360604
:1005300045EAC0754FEA0752001B61EB0201001C3F
:1005400041F5801149084FEA300000195141324607
:100550002B4603B0BDE8F04F00F006BB0098012227
:1005600040000023D0EB020263EBE07300982146C9
:100570004FEAE074B8EB000061EB0401E9E783F0B7
:1005800000435BE781F0004158E72DE9FE4F81EA27
:10059000030404F0004421F0004100944FF0000BEC
:1005A00023F0004350EA01045ED052EA03045BD01A
:1005B000C3F30A54C1F30A552C44A4F2F334019452
:1005C000A0FB0254C1F3130141F48011C3F31303E0
:1005D00043F4801301FB024400FB034E840A970A94
:1005E00044EA815447EA8357A4FB076802958D0AC1
:1005F00005FB07854FEA932C04FB0C542705029D4D
:100600004FEA065847EA1637B5EB08056EEB070CBC
:10061000870E920E47EA811742EA8312A7FB020176
:10062000B6EB0B0164EB00042B0D43EA0C335E18B0
:1006300044EB1C50DA465146E7FB0201C5F31304B4
:100640004FEA0B3343EA14534FEA0432019C43EA66
:100650000603A4F10C040294009CCDE900B400F060
:1006600092FA03B0BDE8F08F00200146F9E72DE9CA
:10067000F04D81EA030404F0004B21F000451446DC
:100680004FF0000A23F0004150EA050220D054EA5E
:1006900001021DD0C5F30A570246C5F31303C1F387
:1006A0001300C1F30A5640F4801543F48013A7EBFE
:1006B0000608101BD64608F2FD3873EB050002D37E
:1006C00008F1010801E092185B41B8F1000F03DA6C
:1006D00000200146BDE8F08D00204FF48011064651
:1006E00084460EE0171B73EB050705D3121B63EB63
:1006F000050306434CEA010C49084FEA3000921802
:100700005B4150EA0107EDD152EA030012D082EAC0
:10071000040083EA0501084305D0101BAB4106D253
:100720000122002306E000224FF0004302E06FF0B8
:10073000010253101AEB06004CEB085110EB0A00B3
:1007400041EB0B01BDE8F04D00F00EBAC1F30A52C7
:10075000C1F3130140F2FF3341F480119A4202DAEF
:1007600000200146704740F233439A42A2F23342DE
:1007700002DC524200F03BB800F02AB830B5041E4B
:1007800071F1000404DB4FF00044404264EB0101CE
:10079000141E73F1000405DB1C464FF00043524267
:1007A00063EB0403994208BF904230BD064C074DED
:1007B00006E0E06840F0010394E807009847103431
:1007C000AC42F6D3FFF796FC944B0008B44B0008FC
:1007D000202A04DB203A00FA02F100207047914001
:1007E000C2F1200320FA03F3194390407047202AF6
:1007F00004DB203A21FA02F00021704721FA02F3CB
:10080000D040C2F120029140084319467047202A87
:1008100006DBCB17203A41FA02F043EAE07306E028
:1008200041FA02F3D040C2F1200291400843194638
:100830007047C0B24FF4F05100F0F4B92DE9F34F16
:100840008BB04FF0000801F10C000C464FF0010B8B
:1008500046460DF1080A019062690121019890470E
:10086000051E2DD0252D2CD0216A8847C0B1626984
:10087000012101989047216A88470028F7D1411E3D
:1008800062690198904700E0761CA1690B9888473F
:10089000216A88470028F7D1E1690B988847DBE790
:1008A000A1690B9888470746A84201D1761CD3E777
:1008B000E1690B9888477F1C02D1B8F1000F6FD017
:1008C00046E1002762693D463946019890472A284B
:1008D00004D162690121019890470125DFF88492D3
:1008E0006269012101989047A0F130010A290AD2DA
:1008F0004F45E5DC07EB870100EB4107303FDFD4D4
:1009000045F01005ECE7E90601D46FF000476C28CC
:100910000AD04C2814D0682815D06A280DD0742825
:100920001CD07A281AD01DE06269012101989047F5
:100930006C2802D045F0040514E045F002050DE0F6
:1009400045F020050AE06269012101989047682876
:1009500002D045F0080505E045F400656269012113
:1009600001989047C4E9015765283DD019DC582803
:100970007AD00CDC452837D004DC252826D0412845
:1009800031D131E046282FD047282CD12CE05B28EC
:1009900077D0612828D063287CD0642823D15AE0FE
:1009A000D0E06F2848D008DC66281DD067281BD00F
:1009B000692821D06E2816D127E0702845D07328E9
:1009C00068D0752847D078280DD14DE0A1690B98E3
:1009D0008847054625283FF469AFE1690B988847A9
:1009E0006D1C3FF46AAFB3E023466A466FF0010026
:1009F0000B99AFF300809EE045F040006060A807CF
:100A000023464FF0000236D43EE0E8077FF447AFBC
:100A10002068011D21600068290501D506701BE7CB
:100A2000290701D5068017E7A90703D5F117C0E903
:100A3000006111E706600FE745F040006060A8071D
:100A400023464FF0080216D41EE040F60E0125EAB8
:100A50000100606016E045F040006060A807234692
:100A60004FF00A0207D40FE045F040006060A8078D
:100A700008D5234610226FF001000B99AFF30080D8
:100A800059E007E0234610226FF001000B99FFF7B1
:100A9000A5FB50E04FF000094F464B46632802D0BB
:100AA0005B2806D040E0E80601D40120A0600127C1
:100AB0003AE062690121019890475E2805D14FF024
:100AC00001096269494601989047216939B90021B5
:100AD0000A46534643F82120491C0829FADBB0B3E3
:100AE000216969B9C11700EBD16253110AEB830187
:100AF00022F01F02821A01200B68904003430B6012
:100B000062690121019890475D28E8D1B9F1000F91
:100B100009D00020514651F82020D24341F820202E
:100B2000401C0828F7DB02AB224600976FF001005B
:100B30000B99AFF3008000280CDA401C08D1BBF100
:100B4000000F05D04FF0FF300DB0BDE8F08FFFE78C
:100B50004046F9E7E90701D108F1010806444FF0E2
:100B6000000B79E6CCCCCC0C10B5141E73F100044C
:100B700008DA401C41F1000192185B411A4301D18F
:100B800020F0010010BD2DE9F04D92469B4611B1B9
:100B9000B1FA81F202E0B0FA80F220329046FFF71B
:100BA00017FE04460F4640EA0A0041EA0B0153468D
:100BB0005A46084313D0114653EA010019D0C8F130
:100BC00040025046FFF713FE05460E465046594672
:100BD0004246FFF7FDFD084305D0012004E0204612
:100BE0003946BDE8F08D0020054346EAE0762C4307
:100BF00037430A986305E40AA0EB08000022FD0AC7
:100C000044EA47540A3002D500200146E9E70105CD
:100C100010196941DDE9084500196941BDE8F04D49
:100C2000A2E700007F2801D9002208E0064A02EB73
:100C30005002C007127800D1120902F00F02012001
:100C40009040084070470000544B0008704721B1A5
:100C5000826842F00102826003E0826822F00102B1
:100C60008260704721B1826842F48072826003E042
:100C7000826822F4807282607047014600208A6890
:100C800002F004020AB1012000E000207047014692
:100C900000208A6802F008020AB1012000E000206A
:100CA0007047000030B502460020002350680F4C0A
:100CB00020400D790C6844EA052420435060906878
:100CC0000B4C2040D1E902542C434D7944EA4504B1
:100CD00020439060D06A20F470000C7C641EE4B263
:100CE000234340EA0350D06230BD0000FFFEF0FF16
:100CF000FDF7F1FFF0B504460D4600200021092D57
:100D000011DDE068A5F10A0606EB4607072606FA9C
:100D100007F18843A5F10A0606EB460603FA06F139
:100D20000843E0600CE0206905EB4507072606FA5A
:100D300007F1884305EB450603FA06F108432061F5
:100D4000072A0FDA606B561E06EB86071F2606FA87
:100D500007F18843561E06EB860605FA06F108439E
:100D6000606322E00D2A0FDA206BD61F06EB8607A0
:100D70001F2606FA07F18843D61F06EB860605FAFA
:100D800006F10843206310E0E06AA2F10D0606EBCD
:100D900086071F2606FA07F18843A2F10D0606EB27
:100DA000860605FA06F10843E062F0BD816841F06D
:100DB00008018160704721B1826842F4A00282601C
:100DC00003E0826822F4A00282607047816841F0EB
:100DD000040181607047000000B585B000200090DC
:100DE00001208DF804008DF805004FF4602002907A
:100DF0000020039002208DF8100069462148FFF77B
:100E000051FF0723012211461E48FFF773FF0723F6
:100E1000022211461B48FFF76DFF0723032204211E
:100E20001848FFF767FF0723042203211548FFF73F
:100E300061FF0723052211461248FFF75BFF0723D6
:100E4000062219460F48FFF755FF01210D48FFF70D
:100E500009FF01210B48FFF7FAFE0A48FFF7A6FF3A
:100E600000BF0848FFF713FF0028FAD10548FFF735
:100E7000ADFF00BF0348FFF700FF0028FAD105B01F
:100E800000BD00000024014010B5012000F0FEFF6D
:100E9000002000F0FBFF10BD10B5002400BF12E0E1
:100EA0000A48006820F4004008490860642002F005
:100EB0008AFC0648006840F4004004490860642049
:100EC00002F081FC641C052CEADB10BD0C0C014017
:100ED0002DE9F84305460F4600241034A41C0834BD
:100EE000E41CE868FFF748F9204484B2601C84B22F
:100EF000A01C84B204F1080084B2E01C84B228690A
:100F0000FFF73AF9204484B2601C84B2A01C84B27A
:100F100004F1090084B2A01C84B2601C84B20026D3
:100F200011E0A01C84B2A01D84B2E01C84B206EBC8
:100F3000460157F82100FFF71FF9204484B2601CD6
:100F400084B2701CC6B26878B042EADC012004EBBF
:100F5000400084B2204603F0A7FD804668780090E8
:100F600017A14046D5E9032302F00AFC00261DE044
:100F7000324623A1484602F003FC23A14046FFF776
:100F8000D1F849464046FFF7CDF820A14046FFF78B
:100F9000C9F806EB460057F820104046FFF7C2F8A4
:100FA0001BA14046FFF7BEF8701CC6B26878B0427D
:100FB000DEDC18A14046FFF7B5F84046BDE8F883EF
:100FC0007B22416E7377223A2248656C6C6F212236
:100FD0002C227769666953534944223A22257322A9
:100FE0002C227769666950617373223A2225732235
:100FF0002C22506C616E7473436E74223A25640027
:10100000506C616E742564002C220000223A22008C
:10101000220000007D00000000BFFEE710B501F0D7
:1010200093F801F010F9044801F01EFE00F032FBC5
:1010300000F0CCFE10BD0000405489001CB51248E1
:10104000006820F4704040F440500F4908600E489A
:101050000830006820F400600B4908310860084639
:10106000006840F480500860642002F0ACFB064841
:101070000830006820F48050034908310860694650
:1010800001A803F00FF91CBD040801400146114AF4
:1010900001290DD105E0101EA2F1010201D10120AC
:1010A00070470D48006800F400600028F3D00CE0A1
:1010B00005E0101EA2F1010201D10120F0E706486F
:1010C000006800F400600028F3D1034800680020A5
:1010D000E6E70000A086010008080140704770475D
:1010E0007047704770477047704721B1026842F0FF
:1010F0000102026004E002684FF6FE731A400260CB
:101100007047000001684FF6FE7211400160002137
:10111000016041608160C1604B49884208D14A4901
:101120000839496841F00F01474A083A51608AE09E
:1011300045491431884208D143490839496841F08A
:10114000F001414A083A51607DE03F492831884228
:1011500008D13D490839496841F470613A4A083A72
:10116000516070E038493C31884208D1364908392D
:10117000496841F47041344A083A516063E03249A9
:101180005031884208D130490839496841F470210A
:101190002D4A083A516056E02B496431884208D103
:1011A00029490839496841F47001274A083A5160D1
:1011B00049E025497831884208D1234908394968EE
:1011C00041F07061204A083A51603CE01F49884272
:1011D00006D1011F096841F00F01021F116032E0C2
:1011E0001A491431884208D11849091F096841F089
:1011F000F001164A121F116025E014492831884277
:1012000008D11249091F096841F470610F4A121F81
:10121000116018E00D493C31884208D10B49091F83
:10122000096841F47041094A121F11600BE0074937
:101230005031884207D10549091F096841F47021DE
:10124000024A121F11607047080002400804024061
:1012500010B50022026847F6F0739A430C6A8B6857
:1012600023430C6923434C6923438C692343CC6992
:1012700023434C6A23438C6A23431A430260CB689E
:1012800043600B6883604B68C36010BD30B58BB0A2
:1012900005460C461048FFF735FF104800900195B1
:1012A0000020029003940490802005904000069056
:1012B00080000790202008904FF4405009900020B3
:1012C0000A9069460448FFF7C3FF01210248FFF76F
:1012D0000CFF0BB030BD0000080002404C24014060
:1012E00030B58BB005460C461348FFF70BFF13488B
:1012F00000900195002002900394049080200590B6
:101300004000069000200790202008904FF44050A5
:10131000099000200A9069460748FFF799FF0122CB
:1013200040210648001F01F0B1FF01210248FFF7EC
:10133000DCFE0BB030BD0000580002400438014014
:101340007047000010B504460448047000F056FAD7
:101350004FF4FA6002F037FA10BD00000F000020D1
:1013600038B50446052002F02EFAA1B26B460122E0
:101370000348007800F064FA9DF8000038BD0000D2
:101380000F00002038B50446102C20DA4FF48050AE
:1013900000EB042084B26B46012221460D48007800
:1013A00000F04EFA142002F00EFA9DF8000003F04F
:1013B0007BFB0546601C81B22B469DF8002005484A
:1013C000007800F03DFA00F04DF8284638BD0020C6
:1013D000FCE700000F00002013B50446142002F0C3
:1013E000F2F9A1B201AB01220348007800F0C6FA7D
:1013F00000F038F81CBD00000F000020F8B50446CE
:101400000E463046FEF7B8FE401CC0B20090102CCD
:1014100025DA4FF4805000EB042084B29DF80000E0
:10142000FF281CDC6B46012221460D48007800F0A5
:10143000A5FA00250DE0142002F0C5F97319601C0F
:10144000284481B201220648007800F097FA681C0F
:10145000C5B29DF800008542EDDB00F003F8F8BD51
:101460000F00002008B500200090142002F0ABF916
:101470006B46002211460248007800F07FFA08BD52
:101480000F000020704770477047704770477047E3
:10149000704710B54FF4B4624FF4FA71080701F0C9
:1014A000EFFD00220421080701F018FE4FF08040F4
:1014B00001F0FAFD10BD70470549096821F01001DF
:1014C000034A11601146096801431160704700002A
:1014D0000020024001460020034A106800F0380056
:1014E0000843106070470000002002402DE9F041E1
:1014F000024600250026002000230024002791F842
:1015000003C00CF00F0591F803C00CF0100CBCF1F7
:10151000000F03D091F802C04CEA050591F800C015
:10152000BCF1000F31D0146800202BE04FF0010C0B
:101530000CFA00F3B1F800C00CEA03069E4220D179
:1015400083004FF00F0C0CFA03F7BC4305FA03FCC1
:101550004CEA040491F803C0BCF1280F06D14FF007
:10156000010C0CFA00FCC2F814C00AE091F803C0A8
:10157000BCF1480F05D14FF0010C0CFA00FCC2F889
:1015800010C0401C0828D1D31460B1F800C0BCF1D1
:10159000FF0F34DD546800202EE000F1080C4FF0FE
:1015A000010808FA0CF3B1F800C00CEA03069E42E9
:1015B00021D183004FF00F0C0CFA03F7BC4305FA5E
:1015C00003FC4CEA040491F803C0BCF1280F05D1D8
:1015D00000F1080C08FA0CF8C2F8148091F803C066
:1015E000BCF1480F07D100F1080C4FF0010808FAD0
:1015F0000CF8C2F81080401C0828CED35460BDE817
:10160000F0810000F0B50A460023002400210025E7
:1016100000F00046B6F1004F02D11D4EF16901E025
:101620001B4E7168C0F3034583B200F44016B6F553
:10163000401F08D121F07061154E766826F0706663
:10164000134F7E6012E000F48016B6F5801F06D1BD
:10165000032606FA05F4A14341F0706106E0460D49
:10166000360103FA06F6B14341F0706122B1460D2E
:10167000360103FA06F6314300F00046B6F1004F9A
:1016800002D1034EF16101E0014E7160F0BD000036
:101690000000014008B501214D48FFF7B3FF0121CB
:1016A0000420FFF7AFFF4FF47040ADF800001020AA
:1016B0008DF8030003208DF8020069464548FFF7C6
:1016C00015FF4020ADF8000018208DF8030003201E
:1016D0008DF8020069463F48FFF708FF8020ADF80B
:1016E000000048208DF8030003208DF802006946B1
:1016F0003848FFF7FBFE0320ADF8000010208DF8FE
:10170000030003208DF8020069463248FFF7EEFE21
:101710003020ADF8000010208DF8030003208DF874
:10172000020069462C48FFF7E1FE4FF4C050ADF8C7
:10173000000010208DF8030003208DF80200694698
:101740002648FFF7D3FE7E20ADF8000000208DF87C
:10175000030003208DF8020069462048FFF7C6FE0B
:101760000820ADF8000010208DF8030003208DF84C
:10177000020069461848FFF7B9FE4FF40070ADF853
:10178000000010208DF8030003208DF80200694648
:101790001148FFF7ABFE4FF48070ADF80000482011
:1017A0008DF8030001208DF8020069460B48FFF711
:1017B0009DFE4FF44060ADF8000003208DF802005C
:1017C0001C208DF8030069460248FFF78FFE08BD14
:1017D00000023000000C01400010014000080140F0
:1017E0000348006820F400400149086000BFFEE79C
:1017F0000C0C014070477047704770471FB50121BE
:10180000880500F023FB0020ADF804004BF6FF70C4
:10181000ADF806004FF48060ADF80A000001ADF8A5
:101820000C00054800906946044800F055F9012174
:10183000024800F02CF91FBD801A06000058004035
:101840002DE9F04107460C4615461E464FF0C808E4
:101850004748008840F480704549088008E0B8F1A6
:101860000000A8F1010101F0FF0801D1BDE8F081FD
:1018700040493F4800F0F6F80028F0D000223946F1
:101880003B4800F09FF907E0B8F10000A8F1010122
:1018900001F0FF0800D1E9E73749354800F0E2F8E8
:1018A0000028F1D0C4F30321314800F094F900BFBF
:1018B0003149891C2E4800F0D5F80028F8D0E1B253
:1018C0002B4800F088F900BF2B49891C284800F0FC
:1018D000C9F80028F8D02648008840F480702449D0
:1018E000088000BF2349224800F0BCF80028F9D046
:1018F000012239461E4800F065F91D48008840F471
:1019000080601B49088000BF1A49491C184800F034
:10191000A9F80028F8D01FE035B11548008840F438
:101920008060134908800AE01148008820F4806034
:101930000F4908800846008840F40070088000BF06
:101940000C493F310A4800F08DF80028F8D00848CB
:101950001030008806F8010B281EA5F10101CDB258
:10196000DAD10121024800F071F801207EE7000081
:101970000058004001000300820007002DE9F041FB
:1019800006460C4617461D464FF0C80801212C4854
:1019900000F089F808E0B8F10000A8F1010101F0B9
:1019A000FF0801D1BDE8F0812649254800F05AF82A
:1019B0000028F0D000223146214800F003F907E06A
:1019C000B8F10000A8F1010101F0FF0800D1E9E73A
:1019D0001D491B4800F046F80028F1D0210A18489C
:1019E00000F0F9F800BF1849891C154800F03AF8D2
:1019F0000028F8D0E1B2124800F0EDF800BF12491B
:101A0000891C0F4800F02EF80028F8D00CE015F8DB
:101A1000010B0B491031088000BF0B49891C084895
:101A200000F020F80028F8D0381EA7F10101CFB24D
:101A3000EDD10121024800F042F80120B2E7000098
:101A400000580040010003008200070021B1028815
:101A500042F48062028004E002884FF6FF331A40AD
:101A60000280704770B50246002400250023002044
:101A7000958A138B1B0445EA030626F07F4404EA8B
:101A800001068E4201D1012000E0002070BD21B18D
:101A9000028842F00102028004E002884FF6FE73E1
:101AA0001A400280704721B1028842F4807202809D
:101AB00004E002884FF6FF631A400280704721B1AC
:101AC000028842F40072028004E002884FF6FF535D
:101AD0001A400280704700002DE9F04385B00446AB
:101AE0000D460026B1460427DFF8CC80A6884FF6C5
:101AF000C0700640684600F0F5F9DDF808802F4810
:101B0000B8FBF0F01FFA80F946EA0906A6802088A3
:101B10004FF6FE7108402080002629492868884237
:101B20000CD828684000B8FBF0F087B2042F00DA28
:101B300004273E4309F10100208427E0E8884BF6A2
:101B4000FF71884206D1286800EB4000B8FBF0F036
:101B500087B209E0286800EBC00101EB0010B8FB78
:101B6000F0F087B247F48047C7F30B0008B947F09D
:101B7000010747F4004006434FF4967009FB00F05C
:101B80004FF47A7190FBF1F0401C2084A6832088EA
:101B900040F00100208026884FF6F5300640A888E6
:101BA0006989084306432680A8892989084320813A
:101BB00005B0BDE8F083000000127A0040420F003B
:101BC000A086010012B141F0010102E04FF6FE7360
:101BD0001940018270470182704700002DE9F047EB
:101BE00080460E4641463046FEF7A8FA05461BA140
:101BF0002846FEF7A3FA81466DB3B9F1000F08D06D
:101C00004046FEF7B9FAA9EB0501891E081AC4B2CD
:101C10000DE03046FEF7B0FAA91BA0EB010AAAF1CD
:101C2000050A4046FEF7A8FAAAEB0000C4B2601C01
:101C300002F03AFF07464046FEF79EFA284400F1BC
:101C4000030A224651463846FEF78AFA00213955E2
:101C50003846BDE8F0870020FBE700002C000000BC
:101C600000BFFEE72DE9F04104460E46A020FFF735
:101C700069FB0020FFF774FB074667B10220207064
:101C80001EA0E0601DA020611CA060601BA0A060E1
:101C9000002060702FE00020FFF774FBE06001205F
:101CA000FFF770FB20610220FFF76CFB60600320F0
:101CB000FFF768FBA0600120FFF752FB6070002572
:101CC00008E0281DFFF75EFB05EB450146F8210003
:101CD000681CC5B26078A842F3DC09A0E0600AA0E5
:101CE00020610CA0606008A0A060022060700BA0C2
:101CF00030600DA0F060BDE8F08100000000000041
:101D0000646C696E6B00000073696B616B616D617F
:101D1000310000003164617769646B00506F7A694B
:101D20006F6D6B61000000004C6177656E6461004F
:101D30007047000070B5002100230F22C47804B35F
:101D4000154C246804F4E064C4F5E064210AC1F190
:101D50000403CA40447804FA03F184781440214310
:101D600009010E4C0678A155047804F01F050124E2
:101D7000AC4005786D11AD0005F1E025C5F80041D6
:101D800009E0047804F01F050124AC40044D0678F6
:101D9000761145F8264070BD0CED00E000E400E04F
:101DA00080E100E002490143024A116070470000EF
:101DB0000000FA050CED00E0024A0A400243024B23
:101DC0001A60704780FFFF1F08ED00E008B5002192
:101DD0004FF00060FFF7F0FF4FF4A060FFF7E2FF65
:101DE00025208DF8000001208DF8010000208DF8DD
:101DF000020001208DF803006846FFF79BFF08BD35
:101E000070470000014908627047000000000E4260
:101E10007047000001460020034A506820F440400B
:101E200008435060704700000010024029B1064A84
:101E300052690243044B5A6104E0034A52698243E7
:101E4000014B5A61704700000010024029B1064A58
:101E5000D2690243044BDA6104E0034AD269824347
:101E6000014BDA61704700000010024029B1064AB8
:101E700092690243044B9A6104E0034A92698243E7
:101E8000014B9A6170470000001002400149086050
:101E900070470000400442420F48006840F00100D3
:101EA0000D490860084640680C4908400A494860E6
:101EB000084600680A490840074908600846006863
:101EC00020F4802008600846406820F4FE00486046
:101ED0004FF41F0088607047001002400000FFF8B8
:101EE000FFFFF6FE30B500210022002400232D4D17
:101EF0006D6805F00C0121B1042905D0082923D112
:101F000005E0294D056022E0274D05601FE0254DC5
:101F10006D6805F47012234D6D6805F48034022558
:101F200005EB92421CB9214D554305600BE01D4D58
:101F30006D6805F400351DB11C4D5543056002E088
:101F4000194D5543056002E0174D056000BF00BF05
:101F5000144D6D6805F0F0010909154D6B5C0568BD
:101F6000DD4045600F4D6D6805F4E061090A104DD4
:101F70006B5C4568DD4085600A4D6D6805F4605115
:101F8000C90A0B4D6B5C4568DD40C560054D6D6849
:101F900005F44041890B074D6B5CC568B5FBF3F553
:101FA000056130BD0010024000127A0000093D00BA
:101FB000100000202000002010B501460022002360
:101FC00000204A11012A02D1094C236806E0022AA6
:101FD00002D1074C236A01E0054C636A01F01F023D
:101FE000012494401C400CB1012000E0002010BDF1
:101FF000001002400248406800F00C0070470000EA
:102000000010024001460020034A506820F0F00012
:1020100008435060704700000010024011490968F1
:1020200021F480310F4A11601146096821F48021A2
:102030001160B0F5803F03D0B0F5802F0ED106E0DF
:102040000849096841F48031064A116007E00549F2
:10205000096841F4A021034A116000E000BF00BFFD
:1020600070470000001002400149086070470000FE
:1020700000004242704700000149086070470000BC
:102080008004424201460020034A506820F4E06088
:1020900008435060704700000010024001460020D5
:1020A000034A506820F4605040EAC1005060704715
:1020B00000100240014908667047000000004242DB
:1020C00002460020044B586820F47C1042EA0103C9
:1020D0001843014B586070470010024001490860E6
:1020E000704700003C0442420249096A0143014A28
:1020F000116270470010024001460020034A5068F8
:1021000020F00300084350607047000000100240B8
:1021100038B5002000900024002500BF3120FFF7D3
:102120004BFF05460098401C00900098B0F5A06F4A
:1021300001D0002DF2D03120FFF73EFF08B101247D
:1021400000E00024204638BD10B5FFF7A5FE4FF48F
:102150008030FFF763FFFFF7DBFF0446012C5BD104
:102160001020FFF7A9F90220FFF7B4F90020FFF7CC
:1021700049FF0020FFF792FFA002FFF783FF4FF413
:10218000E0112004FFF79CFF0120FFF793FF00BF41
:102190003920FFF711FF0028FAD00220FFF7ACFF2B
:1021A00000BFFFF727FF0828FBD10020FFF75CFFE7
:1021B0004FF44040FFF72EFE01210846FFF756FE80
:1021C00001214020FFF752FE01210420FFF74EFEBF
:1021D00001210820FFF74AFE01211020FFF746FEEB
:1021E00001210846FFF732FE01218803FFF73EFE7A
:1021F00001218805FFF72AFE01210807FFF726FEC7
:102200000121C806FFF722FE01214802FFF72EFE3A
:1022100001210846FFF70AFE10BD704703480088F9
:1022200040F0100001490880704700000428004079
:10223000034800884FF6EF71084001490880704755
:1022400004280040704710B50120FFF7DBFDFEF7C2
:102250001BFE0120FFF710FF00BF6120FFF7ACFE5F
:102260000028FAD04FF40070FFF73EFF0120FFF77F
:1022700035FF00F023F800F017F849F2646000F031
:1022800003F800F011F810BD00B50246FFF7C6FFD5
:10229000C2F3034003490880091D0A80FFF7C8FF05
:1022A00000BD00000828004000BF0348008800F07F
:1022B00020000028F9D07047042800400748008813
:1022C0004FF6F77108400549088000BF03480088B1
:1022D00000F008000028F9D07047000004280040F2
:1022E0002DE9F04F9BB081460D46164655480088B3
:1022F0005449091F098840EA014A4FF0020B0020A7
:102300001A9051A003906868049051A00590A968A4
:10231000069151A00790012252A117A801F030FAAE
:1023200017A9089150A009906A784EA116A801F04B
:1023300027FA16A90A914FA00B9050A00D9051A01A
:102340000F9052A0119000240AE004EB440056F8CC
:102350002010201D03AA02EBC0004160601CC4B223
:102360006878A042F1DC4DE0BBF1010F17D0BBF162
:10237000020F46D147A000F0AFF84B48C06D80B2C5
:1023800019900420CDE900906878001DC3B203AA1B
:1023900046A1002000F04CF94FF0010B31E01998F4
:1023A00000F0DAFE029000F0FFFA074647B31998F2
:1023B00000F0D2FE029000F0B7F88046002417E04B
:1023C000621C41A114A801F0DBF9414614A8FFF7F3
:1023D00005FC139004EB440006EB8000021D21A1D4
:1023E0001398FDF7DFFE139801F034FF601CC4B2B0
:1023F0006878A042E4DC4FF0000B404601F02AFF71
:1024000000BF00BF0F4800880E49091F098840EA35
:102410000140A0EB0A000A2802D2BBF1000FA3D1B1
:10242000084800880749091F098840EA0140A0EBD5
:102430000A000A2801D901201A901A981BB0BDE899
:10244000F08F00001C2800404C6F67696E00000090
:1024500050617373000000004465766963654964E8
:102460000000000025640000506C616E7473436EC0
:1024700074000000506C616E74310000506C616E2D
:1024800074320000506C616E74330000506C616EE9
:10249000743400007777772E64617769646B756CAC
:1024A00070612E706C000000000002402F73657494
:1024B000446576696365436F6E66696753637269E5
:1024C00070742E7068700000506C616E742564002A
:1024D000704770477047000030B589B00446224607
:1024E00009A101A801F04CF90B48C06D801C85B210
:1024F00001A90AA001F010FE2946042001F058FEAF
:10250000002009B030BD000022544350222C222567
:1025100073222C3830000000000002404349505321
:102520005441525400000000F8B5064600200090C7
:102530000FA13046FDF702FE04466A4613A120466D
:10254000FDF730FE009880B17CB11F340099081D62
:1025500002F0AAFA054621462846009AFDF700FE39
:102560000020009968542846F8BD0020FCE70000D0
:10257000436F6E74656E742D547970653A2074657E
:1025800078742F68746D6C0D0A0D0A00436F6E74B9
:10259000656E742D547970653A20746578742F686F
:1025A000746D6C0D0A0D0A2578000000F8B506461A
:1025B0000020009011A13046FDF7C0FD04466A4698
:1025C00013A12046FDF7EEFD16A13046FDF7B6FD3E
:1025D0000446009880B17CB1241D0099481C02F08B
:1025E00063FA054621462846009AFDF7B9FD00200A
:1025F000009968542846F8BD0020FCE7436F6E74CC
:10260000656E742D4C656E6774683A20000000009A
:10261000436F6E74656E742D4C656E6774683A20F6
:10262000256400000D0A0D0A4D6574686F64000092
:102630002DE9FF4F85B0814616469846DDF848A043
:1026400000270025002410E056F83400FDF794FD23
:10265000284485B206EBC4014868FDF78DFD284487
:1026600085B2A81C85B2601CC4B24445ECDB681E70
:1026700085B22A4637A101A801F082F800240AE0B9
:102680001AF83400022804D101A80AEBC4014860FA
:1026900004E0601CC4B213988442F1DB00BFB9F1BE
:1026A000000F01D1052700E004270698FDF764FD1F
:1026B000384487B207F1090087B2B81C87B2504688
:1026C000139900F0CFF9384487B27A1921A103A8F1
:1026D00001F056F82048C06D1FFA80FB03A91FA027
:1026E00001F01AFD5946022001F030FDB9F1000F4A
:1026F00003D11CA000F084FD02E01CA000F080FDCE
:10270000069800F07DFD1BA000F07AFD1CA000F0F3
:1027100077FD5046139900F0D9F9002414E056F8DB
:10272000340000F06DFD17A000F06AFD06EBC40157
:10273000486800F065FDA8F10100A04202DD12A08A
:1027400000F05EFD601CC4B24445E8DB09B0BDE8A2
:10275000F08F000025640000000002404349505300
:10276000454E4400504F535420000000474554202C
:102770000000000020485454502F312E310000003A
:102780000D0A00003D00000026000000F8B5002002
:102790003C4908723C48008800F0DEFC06463BA13C
:1027A000FDF7CCFC68B13848008800F0D5FC06463F
:1027B000344A38A1FDF7F6FC002032494870012068
:1027C000887030488078E0B12F48008800F0C4FC61
:1027D000064633A1FDF7B2FC002851D0142000F0CA
:1027E000F2FF2948008800F0B7FC0646FFF7DEFE3E
:1027F00024494860002088702C48C06D2249088018
:102800003EE02048407800283AD11E48416825A083
:1028100000F0E6F8054626A12846FDF7B4FCC4B250
:1028200034B9184908782449096800F05BF80DE0CC
:1028300022A12846FDF7A7FCC4B23CB9114908788B
:1028400020A100F04FF801200E4908720D480278CF
:1028500020A1684600F094FF69461FA001F05CFCCF
:102860000120084948700846007A28B1486800F0FD
:10287000C7FC04484068F8BD0249486801F0EAFC1A
:102880000020F8E73C0000200C0000202B495044B9
:10289000000000002B4950442C256868752C00006E
:1028A0000D0A0D0A4D6574686F6400000000024057
:1028B00054616C6B0000000008000020436F6E66DE
:1028C000696700007B22416E7377223A20224F4BCA
:1028D00021227D0025640000434950434C4F53455D
:1028E00000000000F0B587B004460D4613480268AA
:1028F00013A101A800F044FF2846FDF73DFC00F1BC
:1029000025073B4622460FA104A800F039FF0F48D7
:10291000C66D04A90EA001F0FFFBB1B2012001F0C9
:1029200015FC10B1012007B0F0BD0BA000F068FC51
:10293000284600F065FC0020F5E7000000000020BC
:102940002564000025642C2564000000000002407E
:1029500043495053454E4400485454502F312E3172
:1029600020323030204F4B0D0A436F6E6E6563741A
:10297000696F6E3A636C6F73650D0A0D0A00000093
:10298000054908600021054A917051700449C96DDC
:10299000044A118070470000080000203C0000201D
:1029A000000002400C00002070B5064608A1304629
:1029B000FDF7C4FB044608A13046FDF7BFFB054602
:1029C00024B11DB1A54201D9012070BD0020FCE752
:1029D000323030204F4B0000434C4F5345440000F1
:1029E0002DE9F04780460E4641463046FDF7A6FBEE
:1029F00005461BA12846FDF7A1FB81466DB3B9F141
:102A0000000F08D04046FDF7B7FBA9EB0501491EB2
:102A1000081AC4B20DE03046FDF7AEFBA91BA0EBCF
:102A2000010AAAF1010A4046FDF7A6FBAAEB000045
:102A3000C4B2601C02F038F807464046FDF79CFB24
:102A4000284400F1010A224651463846FDF788FB2A
:102A5000002139553846BDE8F0870020FBE700002B
:102A6000260000002DE9F04106460F46002400250F
:102A700024E016F8350030B1012807D0022809D02B
:102A800003280FD10AE0A01D84B20BE004F1080076
:102A900084B207E004F1100084B203E004F10E00F8
:102AA00084B200BF00BF06EBC5014868FDF764FBB8
:102AB000204484B2A01C84B2681CC5B2BD42D8DBDD
:102AC000A01C84B22046BDE8F081000070B5054628
:102AD0000E46002424E015F8340030B1012808D057
:102AE00002280AD0032810D10BE010A000F088FBC8
:102AF0000BE010A000F084FB07E011A000F080FBC9
:102B000003E014A000F07CFB00BF00BF05EBC40194
:102B1000486800F075FB13A000F072FB601CC4B2A3
:102B2000B442D8DB0FA000F06BFB70BD486F73742C
:102B30003A2000004163636570743A200000000091
:102B4000436F6E74656E742D4C656E6774683A20C1
:102B500000000000436F6E74656E742D54797065CB
:102B60003A2000000D0A000010B506210748FEF7C4
:102B70008DFBFEF731F901210548FEF71CF90548E8
:102B8000C06840F008000349C86010BD3000002054
:102B9000002401400010014070B504460D46254850
:102BA000006840F48040234908600846006840F40B
:102BB000005008600846006840F40040086008467D
:102BC000006840F4805008600846006820F4005017
:102BD0000860FEF75EFCFFF7C7FFFEF72FFA2946F5
:102BE0002046FFF73FF81348006840F400501149B1
:102BF00008601148006800F4807010B12078022845
:102C00000CD1002000F00EFC29462046FEF760F9AA
:102C10000646FFF7B5FE0120207008E0012000F015
:102C200001FC00202070D4E9030100F05DFD0020CC
:102C300070BD00000C0C0140080801400848006805
:102C4000401C074908600846006800F0010028B9E8
:102C50000448006880F48040024908607047000022
:102C6000000000200C0C014070B50146B1F1807FDE
:102C700001D3002070BD21F07F40401E4FF0E022C4
:102C8000506150170022002807DA1407260E0B4C5B
:102C900000F00F052D1F665503E01407250E084CA4
:102CA000255400BF00204FF0E02290610323431F12
:102CB00010460069184310610020DBE718ED00E0C2
:102CC00000E400E0704770477047704770477047F6
:102CD0007047704721B1028842F08002028004E010
:102CE00002884FF67F731A400280704721B1028834
:102CF00042F00102028004E002884FF6FE731A409F
:102D00000280704731B1B0F8442042F40042A0F88C
:102D1000442005E0B0F84420C2F30E02A0F844209D
:102D20007047000070B5002400220023058C4FF688
:102D3000FE7635400584028C8388048B4FF68F75B0
:102D40002C40B51E2C400D882C43751E2A400D8941
:102D50002A434D882A43144DA8420BD0134DA84254
:102D600008D0134DA84205D0124DA84202D0124DF2
:102D7000A84213D14FF6F7752A404D892A434FF6E2
:102D8000FB752A408D882A434FF6FF652B404FF68E
:102D9000FF552B408D892B43CD892B4383800483A2
:102DA000CD888586028470BD002C0140003401402E
:102DB0000040014000440140004801400A46002113
:102DC000018B4FF6F77319401143018370470000E0
:102DD00070B5002400220023058C4FF6EF763540B5
:102DE0000584028C8388048B48F6FF752C404FF6CF
:102DF000FF452C400D884FF6FF7606EA05252C434B
:102E00004FF6DF752A400D8906EA05152A434D88DD
:102E100006EA05152A43154DA84202D0144DA842D2
:102E20001DD14FF67F752A404D894FF6FF7606EA91
:102E300005152A434FF6BF752A408D8806EA051509
:102E40002A434FF6FF352B404FF2FF752B408D89FB
:102E500006EA85052B43CD8906EA85052B43838049
:102E60000483CD880587028470BD0000002C0140DA
:102E7000003401400A460021018B4FF2FF731940D4
:102E80004FF6FF7303EA02231943018370470000E2
:102E900070B5002400220023058C4FF6FF663540F4
:102EA0000584028C8388848B4FF68F752C404FF6F7
:102EB000FC752C400D882C434FF6FF552A400D8998
:102EC0004FF6FF7606EA05252A434D8806EA0525D2
:102ED0002A43154DA84202D0144DA8421DD14FF2ED
:102EE000FF752A404D894FF6FF7606EA05252A43ED
:102EF0004FF6FF352A408D8806EA05252A434EF60F
:102F0000FF752B404DF6FF752B408D8906EA0515A0
:102F10002B43CD8906EA05152B4383808483CD8816
:102F20008587028470BD0000002C01400034014000
:102F30000A460021818B4FF6F773194011438183B4
:102F40007047000070B5002200230024058C4EF667
:102F5000FF7635400584038C8488828B48F6FF75A4
:102F60002A404FF6FF452A400D884FF6FF7606EAC5
:102F700005252A434DF6FF752B400D8906EA0535D8
:102F80002B434D8806EA05352B430B4DA84202D052
:102F90000A4DA84208D14BF6FF752C408D894FF69B
:102FA000FF7606EA85152C4384808283CD88A0F8BD
:102FB0004050038470BD0000002C014000340140EB
:102FC0000A460021818B4FF2FF7319404FF6FF73C1
:102FD00003EA02231943818370470000002202881C
:102FE0001D4B98420ED01D4B98420BD0B0F1804F34
:102FF00008D01B4B984205D01A4B984202D01A4B6E
:10300000984204D14FF68F731A404B881A43174BDE
:10301000984207D0164B984204D04FF6FF431A400F
:10302000CB881A4302808B8883850B8803850A4BE3
:1030300098420BD0094B984208D00E4B984205D0CD
:103040000D4B984202D00D4B984201D10B7A03866A
:103050000123838270470000002C014000340140AE
:103060000004004000080040000C00400010004038
:10307000001400400040014000440140004801406D
:10308000FEB506460C461546A0B2ADF80000A8B243
:10309000ADF804000020ADF80600ADF80200694666
:1030A0003046FFF79BFFFEBD10B504460948844239
:1030B00002D00948844203D101210648FFF722FECD
:1030C00001212046FFF706FE01212046FFF70EFEF4
:1030D00010BD0000002C0140003401407FB50646C1
:1030E0000C461546ADF80C506020ADF800000120EC
:1030F000ADF802003220ADF806000020ADF808005F
:10310000012C08D169463046FFF70CFE08213046F5
:10311000FFF754FE1FE0022C08D169463046FFF746
:1031200057FE08213046FFF7A5FE14E0032C08D116
:1031300069463046FFF7ACFE08213046FFF7F8FE3F
:1031400009E0042C07D169463046FFF7FBFE082151
:103150003046FFF735FF7FBD70B504461148C56D99
:10316000AC420AD9621B1048011B1048FCF7F8FF5B
:103170000020611B0D4A505412E00B48011B2246EF
:103180000A48FCF7EDFFC5F58062084908190849AF
:10319000FCF7E6FF002104F58060401B034A115450
:1031A000024870BD0000024048040020480400208E
:1031B000480000201FB504464FF480610E48FEF71A
:1031C0008FF801218803FEF751FE00940020ADF82E
:1031D0000400ADF80600ADF80800ADF80C000C20B6
:1031E000ADF80A006946054800F0A8F80121034837
:1031F00000F040F81FBD00004800002000380140EA
:1032000010B5044603E014F8010B01F083FC2078AC
:103210000028F8D110BD000010B540F22771104809
:1032200000F03DF8D0B10F4800780F490978884286
:103230000ED00D480078401C00F01F000A490870AD
:103240000A480A461278815C054800F0E3F805E078
:10325000002240F22771024800F04BF810BD000038
:1032600000380140240000202500002049080020EB
:103270007047704721B1828942F40052828104E094
:1032800082894DF6FF731A40828170471AB1838A92
:103290000B43838202E0838A8B438382704770B53D
:1032A0000246002400230025002040F66A16B142A1
:1032B00000D100BFC1F3421501F01F03012606FA39
:1032C00003F3012D02D19689334006E0022D02D18D
:1032D000168A334001E0968A33400C12012606FA22
:1032E00004F41688344013B10CB1012000E0002032
:1032F00070BDF0B50346002400260025002040F6EE
:103300006A17B94200D100BF1846C1F3421401F058
:103310001F06012707FA06F5012C01D10C3004E045
:10332000022C01D1103000E014301AB107682F438D
:10333000076002E00768AF430760F0BD2DE9F04782
:1033400086B005460E460024A24600BFA1460027CF
:10335000B08900B100BF2F462C8A4CF6FF700440A4
:10336000F08804432C82AC894EF6F3100440B088F8
:1033700031890843718908430443AC81AC8A4FF614
:10338000FF400440B0890443AC8201A8FEF7AAFDC7
:103390001F48874202D1DDF810A001E0DDF80CA043
:1033A000A88900F4004040B10AEBCA0000EB0A1003
:1033B00031684900B0FBF1F807E00AEBCA0000EB06
:1033C0000A1031688900B0FBF1F86420B8FBF0F016
:1033D00004012009642101FB1089A88900F4004040
:1033E00040B1322000EBC900B0FBF1F000F0070063
:1033F000044308E0322000EB09106421B0FBF1F037
:1034000000F00F0004432C8106B0BDE8F0870000F7
:1034100000380140C1F3080282807047704700BF46
:10342000FEE770472DE9F04105463848006820F472
:103430000050364908604FF4E130FFF7BBFE3348D7
:10344000006840F40050314908600846006840F0C8
:10345000020008600846006820F00100086014209F
:1034600000F0B1F92948006840F0010027490860E0
:103470002748C06840F020002549C8600846C06859
:1034800040F01000C860234800882249091F0988BD
:1034900040EA014600BF0020FFF75EFE07461EA17E
:1034A000FCF74CFE48B91B4800881A49091F0988D7
:1034B00040EA0140801B0A28EDD31448006820F43C
:1034C0008050124908600846006820F400500860E7
:1034D00035B9042212A116A000F034F8044602E027
:1034E00000F0B0F80446012C07D1FDF7D5FC0748E1
:1034F000006840F48050054908600448006840F4C2
:10350000005002490860BDE8F08100000C0C014049
:10351000001001401C2800407265616479000000C1
:103520006D796E6577706C616E7470617373000095
:10353000506C616E74436C6F756453797374656D10
:1035400000000000F0B58BB004460D461646284832
:10355000C06D87B227A128A000F0DEFD3946032008
:1035600000F026FE10B101200BB0F0BD2048C06D68
:1035700087B22B46224622A101A8009600F000F94E
:1035800001A923A000F0C8FD3946032000F010FE79
:1035900008B10120E8E71648C06D87B21EA11FA040
:1035A00000F0BAFD3946032000F002FE08B1012008
:1035B000DAE70F48C06D87B21AA11CA000F0ACFD7D
:1035C0003946032000F0F4FD08B10120CCE708489B
:1035D000C06D87B218A119A000F09EFD39460320E6
:1035E00000F0E6FD08B10120BEE70020BCE70000C6
:1035F000000002403200000043574D4F4445000098
:10360000222573222C222573222C332C25640000C2
:103610004357534150000000310000004349504DD2
:1036200055580000312C38300000000043495053F9
:1036300045525645520000003300000043495053A4
:10364000544F000010B50848C06D84B207A108A00F
:1036500000F062FD2146032000F0AAFD08B1012020
:1036600010BD0020FCE70000000002403100000017
:1036700043574D4F44450000014800787047000013
:103680000E00002070B50C48C06D84B20BA000F095
:103690002DFD224604210BA000F0ACFD054621467D
:1036A000052000F085FD20B90DB9002070BD012076
:1036B000FCE70020FAE700000000024043574A41BF
:1036C000500000004E6F2041500000000448006888
:1036D00020F001000249086001200249087070478B
:1036E0000C0C01400E00002070B590B004460D4651
:1036F0000B48C06D86B22B4622460AA101A800F0F5
:103700003FF801A90AA000F007FD3146142000F09F
:103710004FFD10B1012010B070BD0020FBE700008C
:1037200000000240222573222C2225732200000073
:1037300043574A415000000010B50C48C06D84B298
:103740000B48006840F00100094908602246032147
:1037500008A000F04FFD20B10020084908700120AA
:1037600010BD00200549087000BFF9E700000240C5
:103770000C0C014072656164790000000E000020AD
:103780000FB4084B10B504A902AA039800F0F4F88E
:10379000044602A9002000F086FC204610BC5DF81B
:1037A00014FB0000A740000802E008C8121F08C16F
:1037B000002AFAD170477047002001E001C1121FB2
:1037C000002AFBD1704710B504464FF47A7104FB10
:1037D00001F000F001F810BD10B501464FF0E023F4
:1037E0009B6901EBC104181B084B1A68002802DA18
:1037F000521C074B184400BF044B1B689A42FBD86D
:103800004FF0E0239B698342F6D810BD00000020F2
:10381000405489002DE9FF5FDDE90220010DDDF84C
:1038200038B0024318D044F61050A1F2FF314143A2
:103830000D140F98012820D0A5EB0B00401C5FEA67
:10384000000A4FF00004474EDFF81C91A046504696
:1038500016D5CAF1000728E00F98012443A20128D9
:1038600008D0002100980F9BC0E90021C0E9024365
:10387000BDE8FF9F6FEA0B01F4E7CBF10000DEE744
:10388000074612E0F80707D022463346404649462D
:10389000FCF77BFE80468946224633461046194691
:1038A000FCF773FE04460E467F10002FEAD1DDE9D7
:1038B0000201BAF1000F42464B4602DAFCF765FE00
:1038C00001E0FCF7D4FE04460E460022284BFCF72C
:1038D00055FF03D84FF0FF30014607E00022254B8B
:1038E00020463146FCF7AAFDFCF730FF102409E022
:1038F000002C0ADB0A220023FCF72CFD019B30324E
:103900001A55641E50EA0102F2D1641C019AC4F1F6
:10391000110314440F9A012A03D0012208430DD148
:103920000AE0084304D000204FF0110B0F9080E70D
:10393000A3EB0B056D1E0DE05B4504DD4FF00002AF
:1039400005F1010504E003DA4FF00002A5F10105DD
:10395000002AECD000980F99C0E90231C0E9004577
:1039600086E70000000024400000F03F3000000027
:103970000000F0430000E03F2DE9FF4F95B09B466B
:103980008946064600250FE2252877D100242746E0
:10399000F84A0121059400E0044316F8013F203B5A
:1039A00001FA03F01042F7D130782A2811D06FF0D5
:1039B0002F033078A0F13002092A16D8059A44F076
:1039C000020402EB820203EB42021044761C0590D3
:1039D000EFE759F8042B0592002A03DA504244F429
:1039E0000054059044F00204761C30782E2816D13D
:1039F00016F8010F44F004042A280DD06FF02F02AE
:103A00003078A0F13003092B09D807EB870302EBCC
:103A10004303C718761CF3E759F8047B761C30780B
:103A20006C280FD006DC4C2817D068280DD06A28E7
:103A300014D104E0742810D07A280FD10DE044F49A
:103A400000140AE044F4801401E044F44014727855
:103A5000824202D104F58014761C761C30786628E8
:103A60000BD013DC582877D009DC002875D0452806
:103A7000F6D04628F4D047281AD19DE118E06328F3
:103A800035D0642879D0652812D195E1702873D09B
:103A900008DC6728F1D069286FD06E280DD06F2818
:103AA00006D1B5E073282CD0752875D0782874D04D
:103AB0005A46179990476D1C75E1C4F302500228CD
:103AC00009D003280DD0D9F8001004280DD00D60BE
:103AD00009F1040967E1D9F80010EA17C1E90052B9
:103AE000F6E7D9F800100D80F2E70D70F0E719F84D
:103AF000041B8DF8001000208DF80100EA4601201B
:103B000003E059F804AB4FF0FF3061074FF00001BC
:103B100002D40DE008F101018846B9420FDA804570
:103B2000F8DB1AF808100029F4D108E008F10101C7
:103B300088468142FADB1AF808100029F6D1059868
:103B40005B46A0EB080721463846179A00F094FA26
:103B5000284400EB080507E04DE029E10DE01AF8E4
:103B6000010B5A4617999047B8F10108F7D25B4606
:103B700021463846179A13E142E00A220092C4F324
:103B800002524FF0000A022A08D059F804CB032A47
:103B90004FEAEC710AD00DE029E02AE009F10701B3
:103BA00021F00702F2E802C1914609E00FFA8CFC0D
:103BB0004FEAEC71042A03D14FFA8CFC4FEAEC7106
:103BC000002907DA0A460021DCF1000C61EB020152
:103BD0002D2202E0220504D52B228DF8042001229B
:103BE00003E0E20701D02022F7E7904659E00A21DE
:103BF00002E010220DE010214FF0000A00910BE0CE
:103C000010224FF0000A44F004040827009203E059
:103C100008224FF0000A0092C4F30252022A05D093
:103C200059F804CB0021032A08D009E009F1070163
:103C300021F00702F2E802C1914605E01FFA8CFC70
:103C4000042A01D10CF0FF0C4FF00008220728D500
:103C5000702806D0009B83F0100353EA0A0305D0B6
:103C60000EE040228DF80420012208E05CEA010207
:103C700006D030228DF804208DF8050002229046EF
:103C8000009B83F0080353EA0A030AD15CEA0102AD
:103C900001D1620705D530228DF804204FF00108CC
:103CA0007F1E582804D034A003900EA802900DE087
:103CB00036A0F9E753466046009AFCF74BFB844672
:103CC0000398825C0298401E029002705CEA010038
:103CD000F0D1029806A9081A00F1200A600702D55F
:103CE00024F4803400E00127574502DDA7EB0A00E9
:103CF00000E0002000EB0A01009005984144401AC2
:103D00000590E00306D45B462146179A059800F01B
:103D1000B3F90544002706E001A85A46C05D17998B
:103D200090476D1C7F1C4745F6DBE0030CD55B46D6
:103D30002146179A059800F09FF9054404E03020C9
:103D40005A46179990476D1C0099481E009000290B
:103D5000F5DC08E0029802995A460078491C029165
:103D6000179990476D1CBAF10001AAF1010AF1DC24
:103D700065E100000928010030313233343536372F
:103D800038396162636465660000000030313233A7
:103D90003435363738394142434445460000000047
:103DA00000F058F90544761C307800287FF4ECAD1B
:103DB00019B02846BDE8F08F620700D4062709F144
:103DC000070222F0070CFCE80223E14603F000485A
:103DD0005FEA080C02D00FF2702C0DE05FEA045C81
:103DE00002D50FF2682C07E05FEAC47C02D00FF224
:103DF000602C01E0AFF2700C4FF0FF3823F000436D
:103E0000CDF850C065280CD006DC452809D04628DE
:103E10001DD047283DD13DE0662818D067287ED1C7
:103E200038E00021112F01DB112000E0781CCDE9E2
:103E3000000106A90EA8FFF7EDFCDDE90F010E9ABF
:103E400003910021009207F1010A04914DE04FF027
:103E500000400097CDE9011006A90EA8FFF7DAFC93
:103E6000DDE90F0203920E9B11990022DDF80CA0F0
:103E70000093049211B9791C00EB010AB7EB0A0018
:103E800004D4C0F1FF3007F1010A0490AAEB070047
:103E9000019044E0012F00DA01270021112F01DDFC
:103EA000112000E03846CDE9000106A90EA8FFF771
:103EB000B1FCDDE90F010E9A0391002104910092FB
:103EC000BA4621070CD40399514500DA8A46BAF163
:103ED000010F05DD009AAAF10101515C302908D0DB
:103EE000B84202DA10F1040F06DA0121CDE901101F
:103EF00015E0AAF10101E9E7002805DC0499014475
:103F00000491AAEB000102E0411C514500DD8A4604
:103F10000499401A401C01904FF000400290200785
:103F200004D40198504501DBCDF8048000208DF8C1
:103F30004F0002980DF14F07B0F1004F25D02B2014
:103F40000E9002984FF0020800280CDA40420290CE
:103F50002D200E9007E00A210298FCF7E5F9303198
:103F6000029007F8011DB8F10001A8F10108F2DC88
:103F700002980028EFD1791E0E980870307800F072
:103F8000200040F0450007F8020D12A8C01B00F108
:103F900007081498007800B1012000EB0A0101988D
:103FA00001EBE07105984144401A401E0590E00382
:103FB00006D45B462146179A059800F05DF8054443
:103FC0001498007818B15A46179990476D1CE00371
:103FD00024D55B462146179A059800F04DF8054414
:103FE0001CE00498002807DBDDE90301884203DDBB
:103FF0000098405C179901E0179930205A46904785
:10400000049805F10105401C04900198401E0190A0
:1040100004D12E205A46179990476D1CBAF1000121
:10402000AAF1010ADDDC05E017F8010B5A461799E1
:1040300090476D1CB8F10001A8F10108F4DC5B4663
:104040002146179A0598ABE62D0000002B000000D2
:10405000200000002DE9F041044600251E461746C9
:10406000880404D405E039462020B0476D1C641E46
:10407000F9D52846BDE8F0812DE9F0410446002538
:104080001E469046C80301D5302700E0202788044B
:1040900004D505E041463846B0476D1C641EF9D58D
:1040A0002846BDE8F0810A68531C0B601070704709
:1040B00070B504462046FFF74FF8054608A1FCF707
:1040C0003DF808B1002070BD2046FFF745F80546D1
:1040D00004A1FCF733F808B10120F4E70220F2E76D
:1040E0004F4B00004552524F5200000010B504469D
:1040F00006A0FFF785F82046FFF782F804A0FFF737
:104100007FF804A0FFF77CF810BD000041542B009D
:104110003F0000000D0A000070B505460C4608A0DF
:10412000FFF76EF82846FFF76BF806A0FFF768F870
:104130002046FFF765F804A0FFF762F870BD0000A5
:1041400041542B003D0000000D0A00002DE9F04114
:1041500004460D46144800881349091F098840EA9F
:1041600001402044461C00BF2846FEF7F5FF0746E5
:104170000EA1FBF7E3FF40B90B4800880A49091F6D
:10418000098840EA0140B042EED30748008806495A
:10419000091F098840EA0140B04202D20020BDE870
:1041A000F0810120FBE700001C2800403E000000D9
:1041B00070B504460D460E4800880D49091F098850
:1041C00040EA01402044461C00BF2846FFF770FF2C
:1041D000022808D1064800880549091F098840EAD5
:1041E0000140B042F1D32846FFF762FF70BD0000E6
:1041F0001C2800402DE9F04104460D46164614489F
:1042000000881349091F098840EA01402844471CD7
:1042100000BF3046FEF7A0FF80462146FBF78EFF29
:1042200040B90B4800880A49091F098840EA014043
:10423000B842EED3064800880549091F098840EABC
:104240000140B84202D20020BDE8F0810120FBE726
:104250001C28004010B5002821D0114B0022001F5F
:10426000196803E0814203D80A4649680029F9D158
:1042700052B11368841A9C4204D10068184410603B
:10428000104602E0506000E0186039B102680B1A75
:10429000934203D10B681A4402604968416010BD23
:1042A00028000020F0B587B005460E46002404E043
:1042B000002005A90855601CC4B2052CF8DB3F4856
:1042C000006820F4704040F440503C4908603B488E
:1042D0000830006820F400603849083108601E206A
:1042E000FFF771FA35480830006840F40060334940
:1042F000083108601420FFF76FFA3048006820F496
:10430000704040F400402D4908600120FCF7BEFEDB
:1043100010B1012007B0F0BD0020FCF7B7FE08B1D6
:104320000220F7E7002433E00120FCF7AFFE08B1DC
:104330000320EFE701A800F0A7F8DDE90101CDE9CE
:1043400003010020FCF7A2FE08B10420E2E7DDE94A
:10435000030100F035F8282818D9E21704EB52724F
:10436000D21005AB9A5C2146E31704EB5373DB10C4
:10437000A4EBC303C3F107070123BB401A43204644
:10438000E31704EB5373DB1005AFFA54601CC4B29F
:10439000282CC9DB9DF814009DF8161008449DF8E0
:1043A0001810884201D00520B4E79DF81600287047
:1043B0009DF8140030700020ACE7000004080140B4
:1043C00003B50C4901980968884208D14FF0E020F4
:1043D0008069092190FBF1F00099081A0CBD4FF09B
:1043E000E0208069092190FBF1F00349081A009947
:1043F0000844F3E7000000204054890010B50E483F
:10440000C06820F008000C49C8606420FFF7DBF9A1
:104410000A4840896421484340F2262190FBF1F08C
:10442000C4B21420FFF7CFF90348C06840F0080079
:104430000149C860204610BD001001403000002036
:1044400070B504460E48C06820F008000C49C860EA
:104450006420FFF7B8F90B4830F814006421484392
:1044600040F6BE2190FBF1F0C5B21420FFF7ABF986
:104470000348C06840F008000149C860284670BD84
:1044800000100140300000200CB54FF0E021896998
:10449000092291FBF2F10091034909680191DDE9DC
:1044A0000012C0E900120CBD00000020BCB04FF0AB
:1044B0000009CB46002029902A902790289025902B
:1044C000269023902490219022902BA937A8FEF7C4
:1044D00063FB00208DF820008DF822008DF823006A
:1044E000FE48006840F40050FC4908600846006837
:1044F00020F4804008606420FFF765F9F748006801
:1045000040F40050F54908600846006840F48040D7
:104510000860F3A0099038980A90F3A00B9039999D
:104520000C91F3A00D9021A90E91F3A00F90F5A18D
:104530001091F5A0119029A91291F7A0139027A925
:104540001491F8A0159025A91691F9A0179023A908
:10455000189100208DF86400F8A01A9001208DF8C1
:104560006C00FAA11C9102208DF87400DFA11E914D
:1045700003208DF87C00F6A119A8C16100200690E7
:1045800088E29DF8DC0000287ED1B9F1000F7BD0D5
:104590009DF82300D0B1D148006820F40040CF49F5
:1045A00008600846006820F400500860FCF746FDEB
:1045B00000208DF82300C948006840F40050C74926
:1045C00008600846006840F400400860E948008838
:1045D000E849091F098840EA01400699401AB0F5E8
:1045E000167FCDD9FFF748F8012801D1FFF7A4F8CD
:1045F0009DF8200070B9FFF745F801280AD0B748A8
:10460000006840F48050B5490860DDE93A01FFF7E1
:104610006BF83FE2B148006820F48050AF49086071
:104620009DF82200002878D09DF8200001284BD169
:104630000A20FFF7C8F85046FEF78EFD0290FEF7FD
:10464000B3F90746012F0AD0CA480088C949091F93
:10465000098840EA0140A0EB08001E2890D9C5480F
:104660000088C449091F098840EA0140A0EB0800FE
:104670001E2802D9C0A0FEF7C3FD9DF821109DF8A9
:10468000DD00401E814200E0A2E006DA9DF8210034
:10469000401CC0B28DF8210012E000208DF82200ED
:1046A000FFF714F88D48006840F480508B4908608B
:1046B000B0480088AF49091F098840EA01400690C8
:1046C00000208DF82000E5E19DF8210000EB40007E
:1046D0002BA901EB8000ACA1426821A8FFF750F89C
:1046E0009DF8210000EB40002BA901EB8000027A2D
:1046F000A5A129A8FFF744F8A4A0FDF7EDFE01202D
:104700008DF82000A648C06D1FFA80FA042019A970
:10471000082309AACDE9001000E00BE0A1A10020C8
:10472000FDF786FF934800889249091F098840EAEF
:104730000148AFE16948006820F40050674908600B
:1047400000240AE02046FFF77BFE04EB44012BAA7D
:1047500002EB81010872601CC4B29DF8DD00A0422A
:10476000F0DC0DF1B501481CFFF79CFD06465EB17B
:1047700001208DF8230091A127A8FFF701F88FA150
:1047800025A8FEF7FDFF0BE09DF8B5207EA127A828
:10479000FEF7F6FF9DF8B6207BA125A8FEF7F0FFF7
:1047A000FFF72CFE024678A1029023A8FEF7E8FF4F
:1047B0009DF8230028B901208DF8220000208DF8F3
:1047C00021004648006840F400504449086061E117
:1047D0009DF8DC0038BBB9F1000F24D10BF10100CA
:1047E00000F0FF0B4FF47A70FEF7EDFF3B480068D6
:1047F00020F40050394908602BAA37A919A8FDF701
:104800006FFD48B94FF00109FEF760FF33480068BB
:1048100040F48050314908603048006840F400504E
:104820002E49086036E19DF8DC000128CFD1FDF764
:10483000ADFF0546002D4FD0294661A0FEF7D0F808
:10484000059000200599FCF7D9FDC820FEF7BBFFB5
:104850000598FFF7FFFC29465CA0FEF7C1F805901C
:1048600001200599FCF7CAFDC820FEF7ACFF0598AA
:10487000FFF7F0FC294658A0FEF7B2F80590022099
:104880000599FCF7BBFDC820FEF79DFF0598FFF7D3
:10489000E1FC294653A0FEF7A3F8059003200599F3
:1048A000FCF7ACFDC820FEF78EFF0598FFF7D2FCA1
:1048B00029464FA0FEF794F8059003AA32A1059867
:1048C000FBF770FC0398C1B20120FCF785FDC820FE
:1048D000FEF779FF059891E0BFE000000C0C014065
:1048E0004C6F67696E000000506173730000000038
:1048F000506C616E744964005761746572696E67CB
:104900000000000030000000536F696C4D6F697348
:10491000747572650000000041697248756D6964C4
:104920006974790054656D706572617475726500A3
:10493000496E736F6C6174696F6E000064617769B2
:10494000646B756C70612E706C0000002A2F2A0059
:104950006170706C69636174696F6E2F782D777701
:10496000772D666F726D2D75726C656E636F646501
:10497000640000001C280040202354696D652073EA
:104980002055702123200000256400007777772EC2
:1049900064617769646B756C70612E706C000000E7
:1049A000000002402F736574506C616E7444617432
:1049B000615363726970742E706870002D3100004D
:1049C0007769666953534944000000007769666956
:1049D0005061737300000000757365724C6F6769F6
:1049E0006E00000075736572506173730000000003
:1049F000506C616E7473436E74000000FFF72AFC04
:104A0000082000F051F80490002415E0224622A16D
:104A10000498FEF7B5FE29460498FDF7E1FF0590DE
:104A2000201D0599FCF7EAFCC820FEF7CCFE05988E
:104A3000FFF710FC601CC4B203988442E6D30498CC
:104A4000FFF708FC00210846FCF7C6FC2BA937A895
:104A5000FCF73EFA0290FDF793FF114800881049D9
:104A6000091F098840EA01400699401A12D00D48F2
:104A7000006880F480500B4908600846006880F4A4
:104A800000500860064800880549091F098840EA67
:104A90000140069075E50000506C616E742564005D
:104AA0001C2800400C0C0140F0B50B30154D20F0D7
:104AB00007010024144A0FE003688B420BD38B429A
:104AC00005D95E1A43184768C3E9006700E04368E8
:104AD000136002C004E0021D10680028ECD12046DB
:104AE000002802D1286808B10020F0BD064A074816
:104AF0001060074A121A22F00702C0E900240120C0
:104B00002860D7E72C00002028000020740800202F
:104B10007010002070B505460A480078401C00F06F
:104B20001F0400BF084800788442FBD007480555A1
:104B300004480470012240F227710548FEF7D9FBB2
:104B400070BD00002400002025000020490800203E
:104B500000380140DDDDDDDDDCBBBBDDDDDDDDDDC5
:104B6000DDDDDDDD988888888888888877777777A5
:104B70007788888885555556666666666666666671
:104B8000666888888333333222222222222222221C
:104B90002228888DB44B000800000020300000005F
:104BA000A8370008E44B000830000020401800003F
:104BB000B8370008000000000000000000000000FE
:104BC00000000000000000000102030401020304D1
:104BD00006070809020406080000000000000000A3
:044BE00000000000D1
:04000005080000ED02
:00000001FF
