:020000040800F2
:1030000080180020013100085D4D0008FD4B0008CC
:10301000B94C000819400008836400080000000053
:10302000000000000000000000000000D154000873
:10303000F5430008000000001D4E0008855C0008F4
:10304000876400080F4E0008195D0008415200080F
:103050003547000875500008754600087946000895
:103060007B4600087D4600087F4600089141000825
:1030700093410008954100089741000899410008D4
:103080009B4100089D4100084D3C00081B31000891
:103090001B3100081B3100081B3100088146000865
:1030A0001B5D0008215D00081F5D00081D5D000814
:1030B000235D0008255D0008275D0008134C00080B
:1030C000114C0008174C0008154C0008CD5400089E
:1030D000CF5400087D620008D5620008D76200085E
:1030E000774600081552000881640008DFF80CD00C
:1030F00000F05CFB0048004739750008801800208C
:103100000648804706480047FEE7FEE7FEE7FEE781
:10311000FEE7FEE7FEE7FEE7FEE7FEE7D140000838
:10312000ED300008421E12F8013F002BFBD111F8D0
:10313000013B02F8013B002BF9D1704730B5054641
:103140002A460B4612F8010B13F8014B08B1A042B6
:10315000F8D01CB1002802D06D1CF1E7284630BD24
:1031600010B5044604E00B7800F8013B03B1491C9C
:10317000521EF8D2204610BD421C10F8011B002937
:10318000FBD1801A704710B5002200E0521C835C0E
:103190008C5CA34201D1002BF8D1D8B2E1B2401A25
:1031A00010BD00000FB400B58DB010A909900B90B0
:1031B00000914FF0FF300A9000200C9005480690D7
:1031C000054807906A4609A80F9900F009F90DB063
:1031D0005DF814FBFD3300081B3400082DE9FF5F88
:1031E0001D464FF0FF3BD5E9014691465F464FF043
:1031F0000008A9697F1C01988847296A8246884788
:103200000028F6D1BAF1FF3F0CD024F4C064002EA0
:1032100019DD600614D5BAF12B0F09D0BAF12D0FC4
:103220000ED103E0584604B0BDE8F09F44F480643A
:10323000A9697F1C01988847761E8246002E02DD10
:10324000BAF1300F03D0B9F1000F26D032E0A969EE
:10325000761E44F400747F1C019888478246002E35
:1032600005DDBAF1780F06D0BAF1580F03D0B9F1E5
:10327000000F10D01EE0B9F1000F02D0B9F1100F0D
:1032800018D1A969761E24F400747F1C0198884720
:103290008246102002E0082000E00A20814609E072
:1032A00008FB0908A969761E44F400747F1C019884
:1032B00088478246002E05DD4946504600F07BF8DF
:1032C0000028EDDAE96901988847A00502D46FF07B
:1032D0000100A8E7E00725D1600613D5600502D5F7
:1032E000C8F1000000E0404629680A1D2A6009680C
:1032F000220501D5087015E0220701D5088011E0EC
:1033000008600FE02868011D29600068210502D5CA
:1033100080F8008006E0210702D5A0F8008001E0D7
:10332000C0F8008038467EE730B50B4601460020E5
:103330002022012409E021FA02F59D4205D303FA77
:1033400002F5491B04FA02F52844151EA2F10102F8
:10335000F1DC30BD2DE9F05F0546002092469B462A
:1033600088460646814640241BE02846414647469B
:10337000224600F03CFA53465A46C01A914110D3F7
:1033800011461846224600F023FA2D1A67EB010871
:103390004F4622460120002100F01AFA17EB0009DF
:1033A0004E41201EA4F10104DFDC484631462A4686
:1033B0004346BDE8F09F3A2800D2303820F0200282
:1033C000412A01D3A2F13700884201D34FF0FF30E8
:1033D0007047000002681144137801601846704776
:1033E000D160044951610449116200211161114603
:1033F00000F024BAD533000833380008426842B1DF
:10340000016811F8013B23B1521EC0E900121846B1
:1034100070470121C160881E704742685AB1C36875
:10342000016843B983688B4205D0491E521CC0E92C
:103430000012002070474FF0FF3070472DE9FE4F1B
:10344000804681EA0300C00F0C46009021F0004145
:1034500023F00045B8EB0200A94105D240462146C1
:1034600090461C460B46024623F00040104347D0CE
:10347000270DC7F30A00C3F30A510290401A0190C6
:1034800040286BDAC3F3130040F4801B0098924687
:1034900020B10023D2EB030A63EB0B0B01985946D2
:1034A000C0F14002504600F093F906460D465046E2
:1034B0005946019A00F0ABF910EB08006141002475
:1034C00087EA115284EAE7731A4340D0009A62B344
:1034D000019A012A4FEA075215DC001B61EB020139
:1034E0004FF0004202EA0752CDE90042001C41F5CC
:1034F000801132462B4600F046FB03B0BDE8F08F4A
:1035000040462146F9E7001B61EB0201001C41F532
:10351000801300185B412018A2F5001747EB030148
:1035200040EAD570B6196D4111E06D084FEA3606D4
:1035300045EAC0754FEA0752001B61EB0201001C0F
:1035400041F5801149084FEA3000001951413246D7
:103550002B4603B0BDE8F04F00F006BB00980122F7
:1035600040000023D0EB020263EBE0730098214699
:103570004FEAE074B8EB000061EB0401E9E783F087
:1035800000435BE781F0004158E72DE9FE4F81EAF7
:10359000030404F0004421F0004100944FF0000BBC
:1035A00023F0004350EA01045ED052EA03045BD0EA
:1035B000C3F30A54C1F30A552C44A4F2F334019422
:1035C000A0FB0254C1F3130141F48011C3F31303B0
:1035D00043F4801301FB024400FB034E840A970A64
:1035E00044EA815447EA8357A4FB076802958D0A91
:1035F00005FB07854FEA932C04FB0C542705029D1D
:103600004FEA065847EA1637B5EB08056EEB070C8C
:10361000870E920E47EA811742EA8312A7FB020146
:10362000B6EB0B0164EB00042B0D43EA0C335E1880
:1036300044EB1C50DA465146E7FB0201C5F3130484
:103640004FEA0B3343EA14534FEA0432019C43EA36
:103650000603A4F10C040294009CCDE900B400F030
:1036600092FA03B0BDE8F08F00200146F9E72DE99A
:10367000F04D81EA030404F0004B21F000451446AC
:103680004FF0000A23F0004150EA050220D054EA2E
:1036900001021DD0C5F30A570246C5F31303C1F357
:1036A0001300C1F30A5640F4801543F48013A7EBCE
:1036B0000608101BD64608F2FD3873EB050002D34E
:1036C00008F1010801E092185B41B8F1000F03DA3C
:1036D00000200146BDE8F08D00204FF48011064621
:1036E00084460EE0171B73EB050705D3121B63EB33
:1036F000050306434CEA010C49084FEA30009218D2
:103700005B4150EA0107EDD152EA030012D082EA90
:10371000040083EA0501084305D0101BAB4106D223
:103720000122002306E000224FF0004302E06FF088
:10373000010253101AEB06004CEB085110EB0A0083
:1037400041EB0B01BDE8F04D00F00EBAC1F30A5297
:10375000C1F3130140F2FF3341F480119A4202DABF
:1037600000200146704740F233439A42A2F23342AE
:1037700002DC524200F03BB800F02AB830B5041E1B
:1037800071F1000404DB4FF00044404264EB01019E
:10379000141E73F1000405DB1C464FF00043524237
:1037A00063EB0403994208BF904230BD064C074DBD
:1037B00006E0E06840F0010394E807009847103401
:1037C000AC42F6D3FFF796FC087C0008287C000882
:1037D000202A04DB203A00FA02F1002070479140D1
:1037E000C2F1200320FA03F3194390407047202AC6
:1037F00004DB203A21FA02F00021704721FA02F39B
:10380000D040C2F120029140084319467047202A57
:1038100006DBCB17203A41FA02F043EAE07306E0F8
:1038200041FA02F3D040C2F1200291400843194608
:103830007047C0B24FF4F05100F0F4B92DE9F34FE6
:103840008BB04FF0000801F10C000C464FF0010B5B
:1038500046460DF1080A01906269012101989047DE
:10386000051E2DD0252D2CD0216A8847C0B1626954
:10387000012101989047216A88470028F7D1411E0D
:1038800062690198904700E0761CA1690B9888470F
:10389000216A88470028F7D1E1690B988847DBE760
:1038A000A1690B9888470746A84201D1761CD3E747
:1038B000E1690B9888477F1C02D1B8F1000F6FD0E7
:1038C00046E1002762693D463946019890472A281B
:1038D00004D162690121019890470125DFF88492A3
:1038E0006269012101989047A0F130010A290AD2AA
:1038F0004F45E5DC07EB870100EB4107303FDFD4A4
:1039000045F01005ECE7E90601D46FF000476C289C
:103910000AD04C2814D0682815D06A280DD07428F5
:103920001CD07A281AD01DE06269012101989047C5
:103930006C2802D045F0040514E045F002050DE0C6
:1039400045F020050AE06269012101989047682846
:1039500002D045F0080505E045F4006562690121E3
:1039600001989047C4E9015765283DD019DC5828D3
:103970007AD00CDC452837D004DC252826D0412815
:1039800031D131E046282FD047282CD12CE05B28BC
:1039900077D0612828D063287CD0642823D15AE0CE
:1039A000D0E06F2848D008DC66281DD067281BD0DF
:1039B000692821D06E2816D127E0702845D07328B9
:1039C00068D0752847D078280DD14DE0A1690B98B3
:1039D0008847054625283FF469AFE1690B98884779
:1039E0006D1C3FF46AAFB3E023466A466FF00100F6
:1039F0000B99AFF300809EE045F040006060A8079F
:103A000023464FF0000236D43EE0E8077FF447AF8C
:103A10002068011D21600068290501D506701BE79B
:103A2000290701D5068017E7A90703D5F117C0E9D3
:103A3000006111E706600FE745F040006060A807ED
:103A400023464FF0080216D41EE040F60E0125EA88
:103A50000100606016E045F040006060A807234662
:103A60004FF00A0207D40FE045F040006060A8075D
:103A700008D5234610226FF001000B99AFF30080A8
:103A800059E007E0234610226FF001000B99FFF781
:103A9000A5FB50E04FF000094F464B46632802D08B
:103AA0005B2806D040E0E80601D40120A060012791
:103AB0003AE062690121019890475E2805D14FF0F4
:103AC00001096269494601989047216939B9002185
:103AD0000A46534643F82120491C0829FADBB0B3B3
:103AE000216969B9C11700EBD16253110AEB830157
:103AF00022F01F02821A01200B68904003430B60E2
:103B000062690121019890475D28E8D1B9F1000F61
:103B100009D00020514651F82020D24341F82020FE
:103B2000401C0828F7DB02AB224600976FF001002B
:103B30000B99AFF3008000280CDA401C08D1BBF1D0
:103B4000000F05D04FF0FF300DB0BDE8F08FFFE75C
:103B50004046F9E7E90701D108F1010806444FF0B2
:103B6000000B79E6CCCCCC0C10B5141E73F100041C
:103B700008DA401C41F1000192185B411A4301D15F
:103B800020F0010010BD2DE9F04D92469B4611B189
:103B9000B1FA81F202E0B0FA80F220329046FFF7EB
:103BA00017FE04460F4640EA0A0041EA0B0153465D
:103BB0005A46084313D0114653EA010019D0C8F100
:103BC00040025046FFF713FE05460E465046594642
:103BD0004246FFF7FDFD084305D0012004E02046E2
:103BE0003946BDE8F08D0020054346EAE0762C43D7
:103BF00037430A986305E40AA0EB08000022FD0A97
:103C000044EA47540A3002D500200146E9E701059D
:103C100010196941DDE9084500196941BDE8F04D19
:103C2000A2E700007F2801D9002208E0064A02EB43
:103C30005002C007127800D1120902F00F020120D1
:103C40009040084070470000C87B0008704721B1D1
:103C5000826842F00102826003E0826822F0010281
:103C60008260704721B1826842F48072826003E012
:103C7000826822F4807282607047014600208A6860
:103C800002F004020AB1012000E000207047014662
:103C900000208A6802F008020AB1012000E000203A
:103CA0007047000030B502460020002350680F4CDA
:103CB00020400D790C6844EA052420435060906848
:103CC0000B4C2040D1E902542C434D7944EA450481
:103CD00020439060D06A20F470000C7C641EE4B233
:103CE000234340EA0350D06230BD0000FFFEF0FFE6
:103CF000FDF7F1FFF0B504460D4600200021092D27
:103D000011DDE068A5F10A0606EB4607072606FA6C
:103D100007F18843A5F10A0606EB460603FA06F109
:103D20000843E0600CE0206905EB4507072606FA2A
:103D300007F1884305EB450603FA06F108432061C5
:103D4000072A0FDA606B561E06EB86071F2606FA57
:103D500007F18843561E06EB860605FA06F108436E
:103D6000606322E00D2A0FDA206BD61F06EB860770
:103D70001F2606FA07F18843D61F06EB860605FACA
:103D800006F10843206310E0E06AA2F10D0606EB9D
:103D900086071F2606FA07F18843A2F10D0606EBF7
:103DA000860605FA06F10843E062F0BD816841F03D
:103DB00008018160704721B1826842F4A0028260EC
:103DC00003E0826822F4A00282607047816841F0BB
:103DD000040181607047000000B585B000200090AC
:103DE00001208DF804008DF805004FF4602002904A
:103DF0000020039006208DF8100069462148FFF747
:103E000051FF0723012211461E48FFF773FF0723C6
:103E1000022211461B48FFF76DFF072303220421EE
:103E20001848FFF767FF0723042203211548FFF70F
:103E300061FF0723052211461248FFF75BFF0723A6
:103E4000062219460F48FFF755FF01210D48FFF7DD
:103E500009FF01210B48FFF7FAFE0A48FFF7A6FF0A
:103E600000BF0848FFF713FF0028FAD10548FFF705
:103E7000ADFF00BF0348FFF700FF0028FAD105B0EF
:103E800000BD00000024014010B5012001F004F83D
:103E9000002001F001F810BD10B5002400BF12E0B1
:103EA0000A48006820F4004008490860322002F007
:103EB000C0FC0648006840F4004004490860322015
:103EC00002F0B7FC641C052CEADB10BD0C0C0140B1
:103ED0002DE9F84305460F4600241034A41C08348D
:103EE000E41CE868FFF748F9204484B2601C84B2FF
:103EF000A01C84B204F1080084B2E01C84B22869DA
:103F0000FFF73AF9204484B2601C84B2A01C84B24A
:103F100004F1090084B2A01C84B2601C84B20026A3
:103F200011E0A01C84B2A01D84B2E01C84B206EB98
:103F3000460157F82100FFF71FF9204484B2601CA6
:103F400084B2701CC6B26878B042EADC012004EB8F
:103F5000400084B2204603F0E1FD8046687800907E
:103F600017A14046D5E9032302F040FC00261DE0DE
:103F7000324623A1484602F039FC23A14046FFF710
:103F8000D1F849464046FFF7CDF820A14046FFF75B
:103F9000C9F806EB460057F820104046FFF7C2F874
:103FA0001BA14046FFF7BEF8701CC6B26878B0424D
:103FB000DEDC18A14046FFF7B5F84046BDE8F883BF
:103FC0007B22416E7377223A2248656C6C6F212206
:103FD0002C227769666953534944223A2225732279
:103FE0002C227769666950617373223A2225732205
:103FF0002C22506C616E7473436E74223A256400F7
:10400000506C616E742564002C220000223A22005C
:10401000220000007D00000000BFFEE72DE9F04710
:104020000546681CC4B200264FF6FF79B046022C44
:1040300000D1002400F0DAFB342000F035FB2249E7
:1040400051F8240000F036FB1F4951F824000A21E2
:1040500000F08AFB00201D4908801B4951F825000B
:104060004A464FF4006100F0E0FB064625E0B6F852
:104070000280B6F8009000270DE0134A52F8243071
:10408000124A1288521C03EB820056F8271000F0E7
:104090006BFB781C87B208F10100B842EDDC0B49DC
:1040A0000988084409490880074951F825004A460B
:1040B0004FF4006100F0B9FB0646002ED7D100F0A6
:1040C0003BFB2046BDE8F087140000201C000020C8
:1040D00010B501F039F801F0B4F8044801F0E8FD3A
:1040E00000F0E6FC00F07EFE62B610BD4054890090
:1040F0001CB51248006820F4704040F440500F494D
:1041000008600E480830006820F400600B49083150
:1041100008600846006840F480500860642002F09F
:1041200088FB06480830006820F4805003490831B5
:104130000860694601A803F003F91CBD04080140AA
:104140000146114A01290DD105E0101EA2F101021C
:1041500001D1012070470D48006800F4006000287C
:10416000F3D00CE005E0101EA2F1010201D1012004
:10417000F0E70648006800F400600028F3D1034827
:1041800000680020E6E70000A08601000808014062
:10419000704770477047704770477047704721B14C
:1041A000026842F00102026004E002684FF6FE730A
:1041B0001A4002607047000001684FF6FE7211401D
:1041C00001600021016041608160C1604B4988420B
:1041D00008D14A490839496841F00F01474A083A6D
:1041E00051608AE045491431884208D14349083971
:1041F000496841F0F001414A083A51607DE03F4989
:104200002831884208D13D490839496841F4706134
:104210003A4A083A516070E038493C31884208D146
:1042200036490839496841F47041344A083A5160C6
:1042300063E032495031884208D130490839496831
:1042400041F470212D4A083A516056E02B496431FF
:10425000884208D129490839496841F47001274A40
:10426000083A516049E025497831884208D123490C
:104270000839496841F07061204A083A51603CE0D1
:104280001F49884206D1011F096841F00F01021F32
:10429000116032E01A491431884208D11849091FC7
:1042A000096841F0F001164A121F116025E0144917
:1042B0002831884208D11249091F096841F4706108
:1042C0000F4A121F116018E00D493C31884208D195
:1042D0000B49091F096841F47041094A121F116016
:1042E0000BE007495031884207D10549091F096889
:1042F00041F47021024A121F116070470800024009
:104300000804024010B50022026847F6F0739A4391
:104310000C6A8B6823430C6923434C6923438C69E3
:104320002343CC6923434C6A23438C6A23431A43B7
:104330000260CB6843600B6883604B68C36010BD4C
:1043400030B58BB005460C461048FFF735FF1048D6
:104350000090019500200290039404908020059025
:104360004000069080000790202008904FF44050B5
:10437000099000200A9069460448FFF7C3FF012115
:104380000248FFF70CFF0BB030BD000008000240F0
:104390004C24014030B58BB005460C461348FFF75E
:1043A0000BFF1348009001950020029003940490A5
:1043B0008020059040000690002007902020089063
:1043C0004FF44050099000200A9069460748FFF7D3
:1043D00099FF012240210648001F01F089FF0121B9
:1043E0000248FFF7DCFE0BB030BD00005800024071
:1043F000043801407047000010B5FA201C490870CD
:10440000002418E01B484FF4006101FB04001A4926
:1044100041F82400084650F8240000680A2808D112
:10442000134804704FF40061204600F023FA13494A
:104430000880601CC4B2022CE4DB0D480078FA2826
:1044400014D100F0D3F9342000F02EF90A4908689D
:1044500000F030F9084908680A2100F085F90020C9
:10446000064908800249087000F066F910BD000096
:104470001100002000300308140000201C00002060
:10448000014670472DE9F04781460E4801784846BD
:1044900000F00EFA0646002486B1B6F802804FEA14
:1044A000880003F03BFB0546371D03E0385D2855C7
:1044B000601CC4B2385D0028F8D128552846BDE8F4
:1044C000F08700001100002070B504460D46012061
:1044D00000EB04460121C00200F09EFB28B91648FB
:1044E0000078FFF79BFD1449087000F07FF9342035
:1044F00000F0DAF81149104A127851F822201049D8
:104500000988491C02EB8100314600F02DF90B4966
:10451000094A127851F8222009490988891C02EBBE
:104520008100294600F020F905480088801C0449D4
:10453000088000F001F970BD110000201400002077
:104540001C0000202DE9F04781460D462846FEF765
:1045500013FE86B24FEA094040EA960A06F00300CD
:1045600008B10AF1010AC6F38F014FF4006000F0B0
:1045700053FB28B93C480078FFF750FD3A490870D2
:1045800000F034F9342000F08FF83849364A1278B8
:1045900051F8222036490988491C02EB8100514616
:1045A00000F0E2F8002424E015F82400012101EBDA
:1045B0008401695C40EA0120022101EB8401695C0D
:1045C00040EA0140032101EB8401695C40EA016794
:1045D0002649254A127851F8222025490988891C44
:1045E00002EB810101EB8400394600F0BDF8601C4C
:1045F00084B2B4EB960FD7D306F0030030B34FF676
:10460000FF7000EA84080027002407E008EB04009C
:10461000285CE10088400743601C84B206F0030078
:10462000A042F3D81149104A127851F822201049BB
:104630000988891C02EB810101EB0800394600F072
:1046400093F80B480088401C0949088008480088F6
:1046500000EB96000649088008460088401C088048
:1046600000F06AF8BDE8F087110000201400002077
:104670001C000020704770477047704770477047B4
:10468000704710B54FF4B4624FF4FA71080701F0A7
:1046900021FD00220421080701F04AFD4FF080406F
:1046A00001F02CFD10BD00000149C86070470000FA
:1046B0000020024030B5044604254FF4302000F0BD
:1046C000A1F80546042D17D10C48006940F00200FE
:1046D0000A49086108464461006940F040000861E9
:1046E0004FF4302000F08EF805460448006941F68A
:1046F000FD71084001490861284630BD0020024094
:1047000004200B49C96801F0010109B101200EE044
:104710000749C96801F0040109B1022007E0044912
:10472000C96801F0100109B1032000E004207047BE
:1047300000200240704700000348006940F08000FC
:1047400001490861704700000020024005490968DE
:1047500021F01001034A11601146096801431160FC
:10476000704700000020024078B506460C4604253C
:1047700000200090E80200F045F80546042D24D101
:104780001348006940F00100114908613480E802D3
:1047900000F038F80546042D10D1B01C0090200C14
:1047A00000990880E80200F02DF8054608480069E5
:1047B00041F6FE7108400649086106E004480069B8
:1047C00041F6FE71084002490861284678BD0000A4
:1047D0000020024001460020034A106800F0380023
:1047E000084310607047000000200240024803495F
:1047F0004860034848607047230167450020024035
:10480000AB89EFCD00B502460423FFF779FF0346DD
:1048100003E0FFF775FF0346521E012B01D1002A6A
:10482000F7D102B90523184600BDF0B503460C4682
:10483000154600270020012111E033F8212003EB69
:10484000810CBCF80260BA4204D3AA4202D21746D5
:1048500003EB810006F1010C8C441FFA8CF1B4EBE0
:10486000810F06DD53F821C00CF1010CBCF1000FE3
:10487000E3D1F0BD10B502460B46012108E00B481C
:1048800050F8220000EB81004488601C084481B28B
:10489000B3EB810F07DD054850F8220050F82100E6
:1048A000401C0028EBD1481E80B210BD140000202F
:1048B00070B503460A460020012114E0114E56F857
:1048C000226036F821400F4E56F8226006EB810632
:1048D00075889C4204D10B4E56F8226006EB81008D
:1048E0006E1C0E44B1B24FF40066B6EB810F07DDCB
:1048F000044E56F8226056F82160761C002EDDD159
:1049000070BD0000140000202DE9F0410246002592
:104910000026002000230024002791F803C00CF09B
:104920000F0591F803C00CF0100CBCF1000F03D080
:1049300091F802C04CEA050591F800C0BCF1000FE7
:1049400031D0146800202BE04FF0010C0CFA00F37A
:10495000B1F800C00CEA03069E4220D183004FF05C
:104960000F0C0CFA03F7BC4305FA03FC4CEA0404F1
:1049700091F803C0BCF1280F06D14FF0010C0CFADE
:1049800000FCC2F814C00AE091F803C0BCF1480F63
:1049900005D14FF0010C0CFA00FCC2F810C0401C0D
:1049A0000828D1D31460B1F800C0BCF1FF0F34DD8A
:1049B000546800202EE000F1080C4FF0010808FABE
:1049C0000CF3B1F800C00CEA03069E4221D183002B
:1049D0004FF00F0C0CFA03F7BC4305FA03FC4CEA4A
:1049E000040491F803C0BCF1280F05D100F1080CB4
:1049F00008FA0CF8C2F8148091F803C0BCF1480F13
:104A000007D100F1080C4FF0010808FA0CF8C2F8C1
:104A10001080401C0828CED35460BDE8F08100000F
:104A2000F0B50A46002300240021002500F00046CE
:104A3000B6F1004F02D11D4EF16901E01B4E7168C5
:104A4000C0F3034583B200F44016B6F5401F08D109
:104A500021F07061154E766826F07066134F7E6007
:104A600012E000F48016B6F5801F06D1032606FA80
:104A700005F4A14341F0706106E0460D360103FAEA
:104A800006F6B14341F0706122B1460D360103FADA
:104A900006F6314300F00046B6F1004F02D1034E56
:104AA000F16101E0014E7160F0BD000000000140C5
:104AB00008B501214D48FFF7B3FF01210420FFF79E
:104AC000AFFF4FF47040ADF8000010208DF80300E8
:104AD00003208DF8020069464548FFF715FF402086
:104AE000ADF8000018208DF8030003208DF80200B7
:104AF00069463F48FFF708FF8020ADF800004820D6
:104B00008DF8030003208DF8020069463848FFF74E
:104B1000FBFE0320ADF8000010208DF803000320F9
:104B20008DF8020069463248FFF7EEFE3020ADF8FE
:104B3000000010208DF8030003208DF80200694664
:104B40002C48FFF7E1FE4FF4C050ADF800001020F4
:104B50008DF8030003208DF8020069462648FFF710
:104B6000D3FEBE20ADF8000000208DF80300032026
:104B70008DF8020069462048FFF7C6FE0820ADF810
:104B8000000010208DF8030003208DF80200694614
:104B90001848FFF7B9FE4FF40070ADF80000102080
:104BA0008DF8030003208DF8020069461148FFF7D5
:104BB000ABFE4FF40070ADF8000048208DF8030004
:104BC00003208DF8020069460B48FFF79DFE4FF465
:104BD0004060ADF8000003208DF802001C208DF825
:104BE000030069460248FFF78FFE08BD000230004F
:104BF000000C01400010014000080140034800681B
:104C000020F400400149086000BFFEE70C0C0140A1
:104C1000704770477047704702460548008808444F
:104C2000801C904201DA012070470020FCE7000060
:104C30001C0000202DE9F04780460E4641463046D4
:104C4000FEF77CFA05461BA12846FEF777FA814657
:104C50006DB3B9F1000F08D04046FEF78DFAA9EB0D
:104C60000501891E081AC4B20DE03046FEF784FA29
:104C7000A91BA0EB010AAAF1050A4046FEF77CFA3F
:104C8000AAEB0000C4B2601C02F048FF0746404691
:104C9000FEF772FA284400F1030A224651463846CC
:104CA000FEF75EFA002139553846BDE8F08700204E
:104CB000FBE700002C00000000BFFEE72DE9F041FB
:104CC00004460F46FFF798FB642001F0B2FD002177
:104CD0000846FFF7F9FB0020FFF7D2FB064666B156
:104CE0000220207017A0E06016A0206115A060606F
:104CF00014A0A0600020607022E013A10220FFF742
:104D000021FC13A10320FFF71DFC0120FFF7B8FBD6
:104D100060700220FFF7B6FBE0600320FFF7B2FBF4
:104D200020610420FFF7AEFB60600520FFF7AAFBBF
:104D3000A060002501E0681CC5B26078A842FADCDA
:104D4000BDE8F08100000000646C696E6B0000003B
:104D500073696B616B616D61310000007047000029
:104D600070B5002100230F22C47804B3154C2468C9
:104D700004F4E064C4F5E064210AC1F10403CA400C
:104D8000447804FA03F184781440214309010E4C5D
:104D90000678A155047804F01F050124AC4005787D
:104DA0006D11AD0005F1E025C5F8004109E004787A
:104DB00004F01F050124AC40044D0678761145F837
:104DC000264070BD0CED00E000E400E080E100E072
:104DD00002490143024A1160704700000000FA05D1
:104DE0000CED00E008B54FF4A060FFF7F1FF2520BF
:104DF0008DF8000001208DF8010000208DF80200E0
:104E000001208DF803006846FFF7AAFF08BD704730
:104E1000014908627047000000000E427047000020
:104E200001460020034A506820F440400843506087
:104E3000704700000010024029B1064A526902433F
:104E4000044B5A6104E0034A52698243014B5A61A0
:104E5000704700000010024029B1064AD26902439F
:104E6000044BDA6104E0034AD2698243014BDA6100
:104E7000704700000010024029B1064A92690243BF
:104E8000044B9A6104E0034A92698243014B9A61A0
:104E900070470000001002400149086070470000A0
:104EA000400442420F48006840F001000D4908608C
:104EB000084640680C4908400A49486008460068AE
:104EC0000A490840074908600846006820F4802025
:104ED00008600846406820F4FE0048604FF41F0058
:104EE00088607047001002400000FFF8FFFFF6FEE8
:104EF00030B500210022002400232D4D6D6805F0FF
:104F00000C0121B1042905D0082923D105E0294D40
:104F1000056022E0274D05601FE0254D6D6805F412
:104F20007012234D6D6805F48034022505EB924222
:104F30001CB9214D554305600BE01D4D6D6805F40E
:104F400000351DB11C4D5543056002E0194D554318
:104F5000056002E0174D056000BF00BF144D6D688D
:104F600005F0F0010909154D6B5C0568DD404560F1
:104F70000F4D6D6805F4E061090A104D6B5C4568E2
:104F8000DD4085600A4D6D6805F46051C90A0B4D1E
:104F90006B5C4568DD40C560054D6D6805F44041BA
:104FA000890B074D6B5CC568B5FBF3F5056130BD3A
:104FB0000010024000127A0000093D001E0000208F
:104FC0002E00002010B501460022002300204A11C7
:104FD000012A02D1094C236806E0022A02D1074CBB
:104FE000236A01E0054C636A01F01F02012494402A
:104FF0001C400CB1012000E0002010BD0010024058
:105000000248406800F00C007047000000100240A9
:1050100001460020034A506820F0F0000843506029
:1050200070470000001002401149096821F48031E6
:105030000F4A11601146096821F480211160B0F512
:10504000803F03D0B0F5802F0ED106E008490968F3
:1050500041F48031064A116007E00549096841F4CE
:10506000A021034A116000E000BF00BF70470000AC
:1050700000100240704700000149086070470000BE
:105080008004424201460020034A506820F4E06058
:1050900008435060704700000010024001460020A5
:1050A000034A506820F4605040EAC10050607047E5
:1050B00000100240014908667047000000004242AB
:1050C00002460020044B586820F47C1042EA010399
:1050D0001843014B586070470010024001490860B6
:1050E000704700003C0442420249096A0143014AF8
:1050F000116270470010024001460020034A5068C8
:1051000020F0030008435060704700000010024088
:1051100038B5002000900024002500BF3120FFF7A3
:1051200051FF05460098401C00900098B0F5A06F14
:1051300001D0002DF2D03120FFF744FF08B1012447
:1051400000E00024204638BD10B5FFF7ABFE4FF459
:105150008030FFF769FFFFF7DBFF0446012C58D1D1
:105160001020FFF7F3FA0220FFF734FB0020FFF7CF
:105170004FFF0020FFF792FFA002FFF783FF4FF4DD
:10518000E0112004FFF79CFF0120FFF793FF00BF11
:105190003920FFF717FF0028FAD00220FFF7ACFFF5
:1051A00000BFFFF72DFF0828FBD14FF44040FFF769
:1051B00037FE01210846FFF75FFE01214020FFF77F
:1051C0005BFE01210420FFF757FE01210820FFF7B5
:1051D00053FE01211020FFF74FFE01210846FFF783
:1051E0003BFE01218803FFF747FE01218805FFF7F9
:1051F00033FE01210807FFF72FFE0121C806FFF744
:105200002BFE01214802FFF737FE01210846FFF778
:1052100013FE10BD704700000348008840F01000E6
:1052200001490880704700000428004003480088B6
:105230004FF6EF710840014908807047042800408C
:10524000704710B50120FFF7E3FDFEF71DFE0120BA
:10525000FFF712FF00BF6120FFF7B4FE0028FAD06D
:105260004FF40070FFF740FF0120FFF737FF00F019
:1052700023F800F017F849F2646000F003F800F03A
:1052800011F810BD00B50246FFF7C6FFC2F3034098
:1052900003490880091D0A80FFF7C8FF00BD000010
:1052A0000828004000BF0348008800F020000028C4
:1052B000F9D0704704280040074800884FF6F7717E
:1052C00008400549088000BF0348008800F0080036
:1052D0000028F9D070470000042800402DE9F04F65
:1052E0009BB081460D461646554800885449091F13
:1052F000098840EA014A4FF0020B00201A9051A0A1
:1053000003906868049051A00590A968069151A087
:105310000790012252A117A801F068FA17A9089175
:1053200050A009906A784EA116A801F05FFA16A95C
:105330000A914FA00B9050A00D9051A00F9052A039
:10534000119000240AE004EB440056F82010201DC0
:1053500003AA02EBC0004160601CC4B26878A0429E
:10536000F1DC4DE0BBF1010F17D0BBF1020F46D1CC
:1053700047A000F0AFF84B48C06D80B219900420F0
:10538000CDE900906878001DC3B203AA46A10020B1
:1053900000F054F94FF0010B31E0199800F006FFCE
:1053A000029000F00DFB074647B3199800F0FEFE8F
:1053B000029000F0BFF88046002417E0621C41A173
:1053C00014A801F013FA414614A8FFF733FC139018
:1053D00004EB440006EB8000021D21A11398FDF7A9
:1053E000E1FE139801F06CFF601CC4B26878A04223
:1053F000E4DC4FF0000B404601F062FF00BF00BF4D
:105400000F4800880E49091F098840EA0140A0EBB7
:105410000A000A2802D2BBF1000FA3D10848008875
:105420000749091F098840EA0140A0EB0A000A2841
:1054300001D901201A901A981BB0BDE8F08F000026
:105440001C2800404C6F67696E0000005061737348
:10545000000000004465766963654964000000004F
:1054600025640000506C616E7473436E740000001C
:10547000506C616E74310000506C616E74320000CB
:10548000506C616E74330000506C616E74340000B7
:105490007777772E64617769646B756C70612E70B5
:1054A0006C000000000002402F736574446576694B
:1054B0006365436F6E6669675363726970742E70BB
:1054C00068700000506C616E74256400704770470E
:1054D0007047000030B589B0044622460BA101A8F0
:1054E00001F084F90D48C06D85B201A90CA001F04E
:1054F00049FE2A4604210DA001F0B2FE29460420EF
:1055000001F08CFE002009B030BD00002254435051
:10551000222C222573222C3830000000000002408B
:10552000434950535441525400000000434F4E4EE3
:1055300045435400F8B50646002000900FA13046C0
:10554000FDF7FCFD04466A4613A12046FDF72AFE3E
:10555000009880B17CB11F340099081D02F0DEFA7A
:10556000054621462846009AFDF7FAFD00200099DD
:1055700068542846F8BD0020FCE70000436F6E74B5
:10558000656E742D547970653A20746578742F684F
:10559000746D6C0D0A0D0A00436F6E74656E742D88
:1055A000547970653A20746578742F68746D6C0D49
:1055B0000A0D0A2578000000F8B506460020009084
:1055C00011A13046FDF7BAFD04466A4613A12046F4
:1055D000FDF7E8FD16A13046FDF7B0FD0446009842
:1055E00080B17CB1241D0099481C02F097FA054651
:1055F00021462846009AFDF7B3FD00200099685423
:105600002846F8BD0020FCE7436F6E74656E742D6C
:105610004C656E6774683A2000000000436F6E743A
:10562000656E742D4C656E6774683A2025640000C1
:105630000D0A0D0A4D6574686F6400002DE9FF4F77
:1056400085B0814616469846DDF848A0002700251B
:10565000002410E056F83400FDF78EFD284485B292
:1056600006EBC4014868FDF787FD284485B2A81CF5
:1056700085B2601CC4B24445ECDB681E85B22A4684
:1056800037A101A801F0B2F800240AE01AF83400AA
:10569000022804D101A80AEBC401486004E0601CA0
:1056A000C4B213988442F1DB00BFB9F1000F01D1FD
:1056B000052700E004270698FDF75EFD384487B211
:1056C00007F1090087B2B81C87B25046139900F061
:1056D000D5F9384487B27A1921A103A801F086F8D8
:1056E0002048C06D1FFA80FB03A91FA001F04AFDEE
:1056F0005946022001F060FDB9F1000F03D11CA052
:1057000000F0B0FD02E01CA000F0ACFD069800F037
:10571000A9FD1BA000F0A6FD1CA000F0A3FD5046B3
:10572000139900F0DFF9002414E056F8340000F07B
:1057300099FD17A000F096FD06EBC401486800F043
:1057400091FDA8F10100A04202DD12A000F08AFD47
:10575000601CC4B24445E8DB09B0BDE8F08F00002E
:10576000256400000000024043495053454E440068
:10577000504F5354200000004745542000000000C3
:1057800020485454502F312E310000000D0A0000E3
:105790003D00000026000000F8B500203B490872DB
:1057A0003B48008800F002FD06463AA1FDF7C6FC22
:1057B00068B13748008800F0F9FC0646334A37A143
:1057C000FDF7F0FC002031494870012088702F4817
:1057D0008078E0B12E48008800F0E8FC064632A14F
:1057E000FDF7ACFC00284ED0142001F022F8284828
:1057F000008800F0DBFC0646FFF7DEFE2349486028
:10580000002088702B48C06D214908803BE01F486C
:105810004078002837D11D48416824A000F0ECF8FA
:10582000054625A12846FDF7AEFCC4B234B9174998
:1058300008782349096800F059F80DE021A12846AD
:10584000FDF7A1FCC4B23CB9104908781FA100F0D3
:105850004DF801200D4908720C4802781FA16846D6
:1058600000F0C4FF69461EA001F08CFC012007492E
:1058700048700846007A10B108464068F8BD0349F0
:10588000486801F01DFD0020F8E700004C000020F2
:105890000C0000202B495044000000002B495044CC
:1058A0002C256868752C00000D0A0D0A4D6574687A
:1058B0006F6400000000024054616C6B0000000047
:1058C00008000020436F6E66696700007B22416E0E
:1058D0007377223A20224F4B21227D00256400005D
:1058E000434950434C4F534500000000F0B587B08A
:1058F00004460D461548026815A101A800F076FF80
:105900002846FDF739FC00F125073B46224611A148
:1059100004A800F06BFF1148C66D04A910A001F0A7
:1059200031FCB1B2012001F047FC10B1012007B0F9
:10593000F0BD0DA000F096FC284600F093FCB2B23A
:10594000042113A001F08CFC0020F0E700000020EF
:105950002564000025642C2564000000000002403E
:1059600043495053454E4400485454502F312E3132
:1059700020323030204F4B0D0A436F6E6E656374DA
:10598000696F6E3A636C6F73650D0A0D0A00000053
:1059900053454E44204F4B00054908600021054AFD
:1059A000917051700449C96D044A1180704700001C
:1059B000080000204C000020000002400C000020E5
:1059C00070B5064608A13046FDF7B8FB044608A1AD
:1059D0003046FDF7B3FB054624B11DB1A54201D900
:1059E000012070BD0020FCE7323030204F4B00001A
:1059F000434C4F53454400002DE9F04780460E4686
:105A000041463046FDF79AFB05461BA12846FDF7A7
:105A100095FB81466DB3B9F1000F08D04046FDF704
:105A2000ABFBA9EB0501491E081AC4B20DE03046D4
:105A3000FDF7A2FBA91BA0EB010AAAF1010A40464F
:105A4000FDF79AFBAAEB0000C4B2601C02F066F8F6
:105A500007464046FDF790FB284400F1010A224624
:105A600051463846FDF77CFB002139553846BDE8E4
:105A7000F0870020FBE70000260000002DE9F04140
:105A800006460F460024002524E016F8350030B104
:105A9000012807D0022809D003280FD10AE0A01D51
:105AA00084B20BE004F1080084B207E004F11000B6
:105AB00084B203E004F10E0084B200BF00BF06EB25
:105AC000C5014868FDF758FB204484B2A01C84B28D
:105AD000681CC5B2BD42D8DBA01C84B22046BDE81C
:105AE000F081000070B505460E46002424E015F84C
:105AF000340030B1012808D002280AD0032810D180
:105B00000BE010A000F0AEFB0BE010A000F0AAFB31
:105B100007E011A000F0A6FB03E014A000F0A2FB38
:105B200000BF00BF05EBC401486800F09BFB13A059
:105B300000F098FB601CC4B2B442D8DB0FA000F0A8
:105B400091FB70BD486F73743A2000004163636538
:105B500070743A2000000000436F6E74656E742DFF
:105B60004C656E6774683A2000000000436F6E74E5
:105B7000656E742D547970653A2000000D0A00009E
:105B800010B506210748FEF7DBFBFEF725F90121DA
:105B90000548FEF710F90548C06840F008000349C1
:105BA000C86010BD400000200024014000100140EA
:105BB0002DE9F04104460D462648006840F4804037
:105BC000244908600846006840F400500860084610
:105BD000006840F4004008600846006840F48050C7
:105BE00008600846006820F4005008604FF6FF7215
:105BF0004915194801F08CFB0646FEF742FDFFF7F8
:105C0000BFFFFEF775FA29462046FFF757F81148FF
:105C1000006840F400500F49086016B92078022847
:105C20000CD1002000F030FC29462046FEF750F948
:105C30000746FFF7B1FE0120207008E0012000F0C8
:105C400023FC00202070D4E9030100F083FD002034
:105C5000BDE8F0810C0C014000080140042808D187
:105C60004FF0E021096941F004014FF0E022116199
:105C700007E04FF0E021096921F004014FF0E02234
:105C80001161704708480068401C074908600846D1
:105C9000006800F0010028B90448006880F48040E2
:105CA0000249086070470000000000200C0C014011
:105CB00070B50446B4F1807F01D3002070BD24F09C
:105CC0007F40401E4FF0E021486148170021002826
:105CD00007DA0A07160E0E4A00F00F031B1FD654F0
:105CE00003E00A07130E0B4A135400BF00204FF0C5
:105CF000E0218861401FFFF7B1FF03254FF0E0204E
:105D0000006928434FF0E02108610020D6E7000039
:105D100018ED00E000E400E07047704770477047FE
:105D2000704770477047704721B1028842F0800287
:105D3000028004E002884FF67F731A4002807047A9
:105D400021B1028842F00102028004E002884FF68D
:105D5000FE731A400280704731B1B0F8442042F41B
:105D60000042A0F8442005E0B0F84420C2F30E023F
:105D7000A0F844207047000070B5002400220023E2
:105D8000058C4FF6FE7635400584028C8388048BA3
:105D90004FF68F752C40B51E2C400D882C43751E78
:105DA0002A400D892A434D882A43144DA8420BD01E
:105DB000134DA84208D0134DA84205D0124DA84259
:105DC00002D0124DA84213D14FF6F7752A404D89E3
:105DD0002A434FF6FB752A408D882A434FF6FF650C
:105DE0002B404FF6FF552B408D892B43CD892B43FC
:105DF00083800483CD888586028470BD002C014099
:105E0000003401400040014000440140004801408E
:105E10000A460021018B4FF6F773194011430183A5
:105E20007047000070B5002400220023058C4FF657
:105E3000EF7635400584028C8388048B48F6FF7525
:105E40002C404FF6FF452C400D884FF6FF7606EAB2
:105E500005252C434FF6DF752A400D8906EA051506
:105E60002A434D8806EA05152A43154DA84202D05B
:105E7000144DA8421DD14FF67F752A404D894FF62B
:105E8000FF7606EA05152A434FF6BF752A408D882E
:105E900006EA05152A434FF6FF352B404FF2FF75F2
:105EA0002B408D8906EA85052B43CD8906EA8505B9
:105EB0002B4383800483CD880587028470BD000056
:105EC000002C0140003401400A460021018B4FF2B2
:105ED000FF7319404FF6FF7303EA0223194301834E
:105EE0007047000070B5002400220023058C4FF697
:105EF000FF6635400584028C8388848B4FF68F754E
:105F00002C404FF6FC752C400D882C434FF6FF5566
:105F10002A400D894FF6FF7606EA05252A434D886B
:105F200006EA05252A43154DA84202D0144DA84281
:105F30001DD14FF2FF752A404D894FF6FF7606EAD4
:105F400005252A434FF6FF352A408D8806EA0525A8
:105F50002A434EF6FF752B404DF6FF752B408D8979
:105F600006EA05152B43CD8906EA05152B438380E8
:105F70008483CD888587028470BD0000002C014099
:105F8000003401400A460021818B4FF6F773194017
:105F9000114381837047000070B500220023002464
:105FA000058C4EF6FF7635400584038C8488828B01
:105FB00048F6FF752A404FF6FF452A400D884FF6F8
:105FC000FF7606EA05252A434DF6FF752B400D891D
:105FD00006EA05352B434D8806EA05352B430B4D64
:105FE000A84202D00A4DA84208D14BF6FF752C40BA
:105FF0008D894FF6FF7606EA85152C4384808283CF
:10600000CD88A0F84050038470BD0000002C0140F2
:10601000003401400A460021818B4FF2FF73194082
:106020004FF6FF7303EA0223194381837047000090
:10603000002202881D4B98420ED01D4B98420BD077
:10604000B0F1804F08D01B4B984205D01A4B9842B4
:1060500002D01A4B984204D14FF68F731A404B88E6
:106060001A43174B984207D0164B984204D04FF66C
:10607000FF431A40CB881A4302808B8883850B88A4
:1060800003850A4B98420BD0094B984208D00E4B1F
:10609000984205D00D4B984202D00D4B984201D149
:1060A0000B7A03860123838270470000002C014095
:1060B000003401400004004000080040000C004093
:1060C0000010004000140040004001400044014026
:1060D00000480140FEB506460C461546A0B2ADF894
:1060E0000000A8B2ADF804000020ADF80600ADF83D
:1060F000020069463046FFF79BFFFEBD10B504461F
:106100000948844202D00948844203D1012106484B
:10611000FFF722FE01212046FFF706FE012120465F
:10612000FFF70EFE10BD0000002C014000340140BE
:106130007FB506460C461546ADF80C506020ADF80C
:1061400000000120ADF802003220ADF8060000206A
:10615000ADF80800012C08D169463046FFF70CFE67
:1061600008213046FFF754FE1FE0022C08D1694693
:106170003046FFF757FE08213046FFF7A5FE14E032
:10618000032C08D169463046FFF7ACFE08213046A3
:10619000FFF7F8FE09E0042C07D169463046FFF707
:1061A000FBFE08213046FFF735FF7FBD70B5044682
:1061B0001548C56DAC4222D0AC420BD9621B1348C6
:1061C000011B1348FCF7CCFF0021601B401C104A48
:1061D000115417E00D48011B22460D48FCF7C0FF83
:1061E000C5F580620A4908190A49FCF7B9FF002180
:1061F00004F58060401B401C054A115402E0002059
:1062000003490870024870BD000002405804002095
:1062100058040020580000201FB504464FF4806148
:106220000E48FEF7B7F801218803FEF725FE00941B
:106230000020ADF80400ADF80600ADF80800ADF898
:106240000C000C20ADF80A006946054800F0A8F8DB
:106250000121034800F040F81FBD00005800002055
:106260000038014010B5044603E014F8010B01F0BA
:106270008BFC20780028F8D110BD000010B540F24A
:106280002771104800F03DF8D0B10F4800780F4951
:10629000097888420ED00D480078401C00F01F009D
:1062A0000A4908700A480A461278815C054800F0DD
:1062B000E3F805E0002240F22771024800F04BF8B5
:1062C00010BD0000003801403200002033000020E3
:1062D000590800207047704721B1828942F400526A
:1062E000828104E082894DF6FF731A4082817047F3
:1062F0001AB1838A0B43838202E0838A8B438382B1
:10630000704770B50246002400230025002040F6A7
:106310006A16B14200D100BFC1F3421501F01F035C
:10632000012606FA03F3012D02D19689334006E0D7
:10633000022D02D1168A334001E0968A33400C12B6
:10634000012606FA04F41688344013B10CB101207A
:1063500000E0002070BDF0B50346002400260025B3
:10636000002040F66A17B94200D100BF1846C1F3B9
:10637000421401F01F06012707FA06F5012C01D18E
:106380000C3004E0022C01D1103000E014301AB1BE
:1063900007682F43076002E00768AF430760F0BD5E
:1063A0002DE9F04786B005460E460024A24600BF00
:1063B000A1460027B08900B100BF2F462C8A4CF6B9
:1063C000FF700440F08804432C82AC894EF6F31031
:1063D0000440B08831890843718908430443AC8183
:1063E000AC8A4FF6FF400440B0890443AC8201A858
:1063F000FEF77EFD1F48874202D1DDF810A001E0C4
:10640000DDF80CA0A88900F4004040B10AEBCA00F6
:1064100000EB0A1031684900B0FBF1F807E00AEB25
:10642000CA0000EB0A1031688900B0FBF1F8642063
:10643000B8FBF0F004012009642101FB1089A88950
:1064400000F4004040B1322000EBC900B0FBF1F095
:1064500000F00700044308E0322000EB091064213B
:10646000B0FBF1F000F00F0004432C8106B0BDE852
:10647000F087000000380140C1F3080282807047B5
:10648000704700BFFEE770472DE9F04105463948E7
:10649000006820F40050374908604FF4E130FFF7FE
:1064A000BBFE3448006840F400503249086008469A
:1064B000006840F0020008600846006820F0010013
:1064C00008602D48C06D87B2142000F0B2F9294849
:1064D000006840F00100274908602848C06840F083
:1064E00020002649C8600846C06840F01000C86017
:1064F000234800882249091F098840EA014600BF55
:106500003846FFF753FE80461EA1FCF717FE48B938
:106510001B4800881A49091F098840EA0140801B6E
:106520000A28EDD31348006820F480501149086010
:106530000846006820F40050086035B9042213A111
:1065400016A000F035F8044602E000F0B1F8044669
:10655000012C07D1FDF7A0FC0648006840F48050EC
:10656000044908600348006840F40050014908608D
:10657000BDE8F0810C0C0140000002400010014019
:106580001C28004072656164790000006D796E65B9
:1065900077706C616E74706173730000506C616E23
:1065A00074436C6F756453797374656D00000000FB
:1065B000F0B58BB004460D4616462848C06D87B22C
:1065C00027A128A000F0DEFD3946032000F026FEBA
:1065D00010B101200BB0F0BD2048C06D87B22B4632
:1065E000224622A101A8009600F000F901A923A0EB
:1065F00000F0C8FD3946032000F010FE08B101206C
:10660000E8E71648C06D87B21EA11FA000F0BAFDD2
:106610003946032000F002FE08B10120DAE70F48F6
:10662000C06D87B21AA11CA000F0ACFD3946032052
:1066300000F0F4FD08B10120CCE70848C06D87B236
:1066400018A119A000F09EFD3946032000F0E6FDD8
:1066500008B10120BEE70020BCE7000000000240B6
:106660003200000043574D4F44450000222573225D
:106670002C222573222C332C2564000043575341D0
:1066800050000000310000004349504D55580000B3
:10669000312C3830000000004349505345525645D4
:1066A000520000003300000043495053544F000093
:1066B00010B50848C06D84B207A108A000F062FDC3
:1066C0002146032000F0AAFD08B1012010BD0020E2
:1066D000FCE70000000002403100000043574D4F2E
:1066E0004445000001480078704700000E0000207B
:1066F00070B50C48C06D84B20BA000F02DFD224691
:1067000004210BA000F0ACFD05462146052000F059
:1067100085FD20B90DB9002070BD0120FCE70020E7
:10672000FAE700000000024043574A4150000000D1
:106730004E6F2041500000000448006820F0010026
:106740000249086001200249087070470C0C0140A2
:106750000E00002070B590B004460D460B48C06D89
:1067600086B22B4622460AA101A800F03FF801A9F3
:106770000AA000F007FD3146142000F04FFD10B1D3
:10678000012010B070BD0020FBE7000000000240B7
:10679000222573222C2225732200000043574A41F0
:1067A0005000000010B50C48C06D84B20B48006862
:1067B00040F00100094908602246032108A000F0CA
:1067C0004FFD20B1002008490870012010BD0020B5
:1067D0000549087000BFF9E7000002400C0C0140B9
:1067E00072656164790000000E0000200FB4084B50
:1067F00010B504A902AA039800F0F4F8044602A90F
:10680000002000F086FC204610BC5DF814FB000060
:106810001371000802E008C8121F08C1002AFAD14B
:1068200070477047002001E001C1121F002AFBD110
:10683000704710B504464FF47A7104FB01F000F084
:1068400001F810BD10B501464FF0E0239B6901EB44
:10685000C104181B084B1A68002802DA521C074BA7
:10686000184400BF044B1B689A42FBD84FF0E0234A
:106870009B698342F6D810BD000000204054890077
:106880002DE9FF5FDDE90220010DDDF838B002439C
:1068900018D044F61050A1F2FF3141430D140F9867
:1068A000012820D0A5EB0B00401C5FEA000A4FF046
:1068B0000004474EDFF81C91A046504616D5CAF199
:1068C000000728E00F98012443A2012808D00021E6
:1068D00000980F9BC0E90021C0E90243BDE8FF9F7B
:1068E0006FEA0B01F4E7CBF10000DEE7074612E0A8
:1068F000F80707D02246334640464946FCF745FE96
:10690000804689462246334610461946FCF73DFE2E
:1069100004460E467F10002FEAD1DDE90201BAF1EC
:10692000000F42464B4602DAFCF72FFE01E0FCF76F
:106930009EFE04460E460022284BFCF71FFF03D89C
:106940004FF0FF30014607E00022254B204631463C
:10695000FCF774FDFCF7FAFE102409E0002C0ADBBA
:106960000A220023FCF7F6FC019B30321A55641E04
:1069700050EA0102F2D1641C019AC4F111031444DB
:106980000F9A012A03D0012208430DD10AE00843DF
:1069900004D000204FF0110B0F9080E7A3EB0B0504
:1069A0006D1E0DE05B4504DD4FF0000205F10105B1
:1069B00004E003DA4FF00002A5F10105002AECD053
:1069C00000980F99C0E90231C0E9004586E7000050
:1069D000000024400000F03F300000000000F043C1
:1069E0000000E03F2DE9FF4F95B09B4689460646E3
:1069F00000250FE2252877D100242746F84A0121F7
:106A0000059400E0044316F8013F203B01FA03F02F
:106A10001042F7D130782A2811D06FF02F03307848
:106A2000A0F13002092A16D8059A44F0020402EBBC
:106A3000820203EB42021044761C0590EFE759F8FE
:106A4000042B0592002A03DA504244F400540590C6
:106A500044F00204761C30782E2816D116F8010F67
:106A600044F004042A280DD06FF02F023078A0F1F2
:106A70003003092B09D807EB870302EB4303C71840
:106A8000761CF3E759F8047B761C30786C280FD01D
:106A900006DC4C2817D068280DD06A2814D104E0F1
:106AA000742810D07A280FD10DE044F400140AE0C5
:106AB00044F4801401E044F440147278824202D11C
:106AC00004F58014761C761C307866280BD013DC15
:106AD000582877D009DC002875D04528F6D04628FC
:106AE000F4D047281AD19DE118E0632835D06428F6
:106AF00079D0652812D195E1702873D008DC672819
:106B0000F1D069286FD06E280DD06F2806D1B5E07E
:106B100073282CD0752875D0782874D05A461799C8
:106B200090476D1C75E1C4F30250022809D0032878
:106B30000DD0D9F8001004280DD00D6009F104091A
:106B400067E1D9F80010EA17C1E90052F6E7D9F871
:106B500000100D80F2E70D70F0E719F8041B8DF8B6
:106B6000001000208DF80100EA46012003E059F8EA
:106B700004AB4FF0FF3061074FF0000102D40DE08D
:106B800008F101018846B9420FDA8045F8DB1AF8AE
:106B900008100029F4D108E008F10101884681427B
:106BA000FADB1AF808100029F6D105985B46A0EB2D
:106BB000080721463846179A00F094FA284400EB5B
:106BC000080507E04DE029E10DE01AF8010B5A46EF
:106BD00017999047B8F10108F7D25B46214638462D
:106BE000179A13E142E00A220092C4F302524FF0D6
:106BF000000A022A08D059F804CB032A4FEAEC71A4
:106C00000AD00DE029E02AE009F1070121F007028E
:106C1000F2E802C1914609E00FFA8CFC4FEAEC71F0
:106C2000042A03D14FFA8CFC4FEAEC71002907DAF1
:106C30000A460021DCF1000C61EB02012D2202E08A
:106C4000220504D52B228DF80420012203E0E2075F
:106C500001D02022F7E7904659E00A2102E01022F5
:106C60000DE010214FF0000A00910BE010224FF0D0
:106C7000000A44F004040827009203E008224FF0C1
:106C8000000A0092C4F30252022A05D059F804CB3C
:106C90000021032A08D009E009F1070121F00702C9
:106CA000F2E802C1914605E01FFA8CFC042A01D1EA
:106CB0000CF0FF0C4FF00008220728D5702806D0F2
:106CC000009B83F0100353EA0A0305D00EE0402234
:106CD0008DF80420012208E05CEA010206D030228F
:106CE0008DF804208DF8050002229046009B83F069
:106CF000080353EA0A030AD15CEA010201D16207E0
:106D000005D530228DF804204FF001087F1E582849
:106D100004D034A003900EA802900DE036A0F9E74D
:106D200053466046009AFCF715FB84460398825C44
:106D30000298401E029002705CEA0100F0D10298B5
:106D400006A9081A00F1200A600702D524F480344D
:106D500000E00127574502DDA7EB0A0000E0002014
:106D600000EB0A01009005984144401A0590E003A9
:106D700006D45B462146179A059800F0B3F90544FE
:106D8000002706E001A85A46C05D179990476D1C80
:106D90007F1C4745F6DBE0030CD55B462146179A7E
:106DA000059800F09FF9054404E030205A461799F1
:106DB00090476D1C0099481E00900029F5DC08E002
:106DC000029802995A460078491C029117999047F7
:106DD0006D1CBAF10001AAF1010AF1DC65E10000C5
:106DE00009280100303132333435363738396162A1
:106DF0006364656600000000303132333435363765
:106E000038394142434445460000000000F058F93B
:106E10000544761C307800287FF4ECAD19B0284684
:106E2000BDE8F08F620700D4062709F1070222F0BF
:106E3000070CFCE80223E14603F000485FEA080C77
:106E400002D00FF2702C0DE05FEA045C02D50FF265
:106E5000682C07E05FEAC47C02D00FF2602C01E0EE
:106E6000AFF2700C4FF0FF3823F00043CDF850C064
:106E700065280CD006DC452809D046281DD04728B7
:106E80003DD13DE0662818D067287ED138E000214A
:106E9000112F01DB112000E0781CCDE9000106A9CB
:106EA0000EA8FFF7EDFCDDE90F010E9A039100211A
:106EB000009207F1010A04914DE04FF00040009765
:106EC000CDE9011006A90EA8FFF7DAFCDDE90F02F3
:106ED00003920E9B11990022DDF80CA000930492FE
:106EE00011B9791C00EB010AB7EB0A0004D4C0F118
:106EF000FF3007F1010A0490AAEB0700019044E07B
:106F0000012F00DA01270021112F01DD112000E0FF
:106F10003846CDE9000106A90EA8FFF7B1FCDDE96E
:106F20000F010E9A0391002104910092BA462107A5
:106F30000CD40399514500DA8A46BAF1010F05DDF8
:106F4000009AAAF10101515C302908D0B84202DA56
:106F500010F1040F06DA0121CDE9011015E0AAF1C4
:106F60000101E9E7002805DC049901440491AAEB3A
:106F7000000102E0411C514500DD8A460499401A97
:106F8000401C01904FF000400290200704D401986B
:106F9000504501DBCDF8048000208DF84F000298A9
:106FA0000DF14F07B0F1004F25D02B200E90029825
:106FB0004FF0020800280CDA404202902D200E907B
:106FC00007E00A210298FCF7AFF93031029007F888
:106FD000011DB8F10001A8F10108F2DC02980028B7
:106FE000EFD1791E0E980870307800F0200040F044
:106FF000450007F8020D12A8C01B00F107081498FD
:10700000007800B1012000EB0A01019801EBE0716A
:1070100005984144401A401E0590E00306D45B46A3
:107020002146179A059800F05DF8054414980078F9
:1070300018B15A46179990476D1CE00324D55B465A
:107040002146179A059800F04DF805441CE0049875
:10705000002807DBDDE90301884203DD0098405C7E
:10706000179901E0179930205A469047049805F186
:107070000105401C04900198401E019004D12E206F
:107080005A46179990476D1CBAF10001AAF1010AFE
:10709000DDDC05E017F8010B5A46179990476D1C87
:1070A000B8F10001A8F10108F4DC5B462146179A0B
:1070B0000598ABE62D0000002B000000200000002A
:1070C0002DE9F041044600251E461746880404D4E5
:1070D00005E039462020B0476D1C641EF9D52846CE
:1070E000BDE8F0812DE9F041044600251E4690469A
:1070F000C80301D5302700E02027880404D505E027
:1071000041463846B0476D1C641EF9D52846BDE897
:10711000F0810A68531C0B601070704770B504460C
:107120002046FFF743F8054608A1FCF707F808B129
:10713000002070BD2046FFF739F8054604A1FBF793
:10714000FDFF08B10120F4E70220F2E74F4B0000F9
:107150004552524F5200000010B5044606A0FFF7FA
:1071600081F82046FFF77EF804A0FFF77BF804A023
:10717000FFF778F810BD000041542B003F000000DD
:107180000D0A000070B505460C4608A0FFF76AF826
:107190002846FFF767F806A0FFF764F82046FFF7D8
:1071A00061F804A0FFF75EF870BD000041542B00A9
:1071B0003D0000000D0A00002DE9F04104460D4697
:1071C000144800881349091F098840EA01402044F7
:1071D000461C00BF2846FEF7E9FF07460EA1FBF755
:1071E000ADFF40B90B4800880A49091F098840EAE9
:1071F0000140B042EED3074800880649091F0988BC
:1072000040EA0140B04202D20020BDE8F0810120F6
:10721000FBE700001C2800403E00000070B504465B
:107220000D460E4800880D49091F098840EA0140B3
:107230002044461C00BF2846FFF770FF022808D1F3
:10724000064800880549091F098840EA0140B04204
:10725000F1D32846FFF762FF70BD00001C280040F4
:107260002DE9F04104460D4616461448008813499E
:10727000091F098840EA01402844471C00BF3046E6
:10728000FEF794FF80462146FBF758FF40B90B48B4
:1072900000880A49091F098840EA0140B842EED334
:1072A000064800880549091F098840EA0140B8429C
:1072B00002D20020BDE8F0810120FBE71C2800403D
:1072C00010B5002821D0114B0022001F196803E0DF
:1072D000814203D80A4649680029F9D152B113689E
:1072E000841A9C4204D1006818441060104602E0E1
:1072F000506000E0186039B102680B1A934203D164
:107300000B681A4402604968416010BD38000020D3
:1073100070B505460C461646A868204004EA0601EA
:10732000484050B11420FFF784FAA868204004EACE
:107330000601484008B1012070BD0020FCE70000B4
:10734000F0B587B005460E46002404E0002005A9EC
:107350000855601CC4B2052CF8DB3F48006820F4D7
:10736000704040F440503C4908603B480830006899
:1073700020F400603849083108601E20FFF759FAF0
:1073800035480830006840F400603349083108602F
:107390001420FFF757FA3048006820F4704040F49A
:1073A00000402D4908600120FCF7CAFE10B1012001
:1073B00007B0F0BD0020FCF7C3FE08B10220F7E7DC
:1073C000002433E00120FCF7BBFE08B10320EFE707
:1073D00001A800F09FF8DDE90101CDE903010020DB
:1073E000FCF7AEFE08B10420E2E7DDE9030100F09E
:1073F00035F8282818D9E21704EB5272D21005ABE1
:107400009A5C2146E31704EB5373DB10A4EBC30330
:10741000C3F107070123BB401A432046E31704EBDF
:107420005373DB1005AFFA54601CC4B2282CC9DBBF
:107430009DF814009DF8161008449DF81810884215
:1074400001D00520B4E79DF8160028709DF81400BF
:1074500030700020ACE700000408014003B50C497F
:1074600001980968884208D14FF0E020806909211D
:1074700090FBF1F00099081A0CBD4FF0E0208069F4
:10748000092190FBF1F00349081A00990844F3E739
:10749000000000204054890010B50848408940F29F
:1074A000FA51081A6421484340F2D25190FBF1F09E
:1074B000C4B21420FFF7BDF9204610BD40000020E3
:1074C00070B504461148C06820F008000F49C86034
:1074D0006420FFF7AEF90E4830F8140064214843E9
:1074E00040F6BE2190FBF1F01420FFF7A2F9074807
:1074F000C06840F008000549C860054840890A2175
:1075000090FBF1F0C5B2284670BD000000100140AC
:10751000400000200CB54FF0E0218969092291FB61
:10752000F2F10091034909680191DDE90012C0E917
:1075300000120CBD00000020BCB04FF00008C34694
:10754000002029902A90279028902590269023901B
:107550002490219022902BA937A8FEF729FB002028
:107560008DF820008DF822008DF82300FE48006879
:1075700040F40050FC4908600846006820F4804050
:1075800008606420FFF755F9F748006840F40050A0
:10759000F54908600846006840F480400860F3A0A0
:1075A000099038980A90F3A00B9039990C91F3A0A8
:1075B0000D9021A90E91F3A00F90F5A11091F5A0C7
:1075C000119029A91291F7A0139027A91491F8A05E
:1075D000159025A91691F9A0179023A918910020BC
:1075E0008DF86400F8A01A9001208DF86C00FAA1C3
:1075F0001C9102208DF87400DFA11E9103208DF8EC
:107600007C00F6A119A8C161FD480088FC49091F4A
:10761000098840EA01400A38069076E29DF8DC00CD
:1076200000287AD1B8F1000F77D09DF82300D0B1AF
:10763000CD48006820F40040CB4908600846006847
:1076400020F400500860FCF753FD00208DF8230063
:10765000C548006840F40050C34908600846006807
:1076600040F400400860E6480088E549091F0988A1
:1076700040EA01400699401A2828CED9FFF732F88F
:10768000012801D1FFF78EF89DF8200090B9FFF78F
:107690002FF801280ED0B448006840F48050B24959
:1076A0000860DDE93A01FFF755F84FF4FA70FFF78B
:1076B000C0F82AE2AC48006820F48050AA4908606B
:1076C0009DF82200002875D09DF8200001283CD1AB
:1076D0000A20FFF7AEF85046FEF768FD0290FEF76D
:1076E0006FF90746012F0AD0C5480088C449091F11
:1076F000098840EA0140A0EB09001E288DD99DF8B9
:1077000021109DF8DD00401E814207DA9DF821001E
:10771000401CC0B28DF8210013E099E000208DF8E4
:107720002200FFF709F89048006840F480508E4925
:107730000860B3480088B249091F098840EA01403F
:10774000069000208DF82000DFE19DF8210000EB7D
:1077500040002BA901EB8000AAA1426821A8FFF7F5
:1077600045F89DF8210000EB40002BA901EB8000BB
:10777000027AA4A129A8FFF739F8A3A0FDF7AAFE71
:1077800001208DF82000A548C06D1FFA80FA042062
:1077900019A9082309AACDE90010A1A10020FDF72D
:1077A0004DFF974800889649091F098840EA01491A
:1077B000ABE1FFE76C48006820F400506A490860BC
:1077C00000240AE02046FFF77BFE04EB44012BAACD
:1077D00002EB81010872601CC4B29DF8DD00A0427A
:1077E000F0DC0DF1B501481CFFF7AAFD06465EB1BD
:1077F00001208DF8230090A127A8FEF7F7FF8EA1A6
:1078000025A8FEF7F3FF0BE09DF8B5207DA127A882
:10781000FEF7ECFF9DF8B6207AA125A8FEF7E6FF5B
:10782000FFF73AFE024677A1029023A8FEF7DEFF9B
:107830009DF8230028B901208DF8220000208DF842
:1078400021004948006840F40050474908605CE165
:107850009DF8DC0038BBB8F1000F24D10BF101001A
:1078600000F0FF0B4FF47A70FEF7E3FF3E4800682C
:1078700020F400503C4908602BAA37A919A8FDF74D
:107880002DFD48B94FF00108FEF756FF3648006855
:1078900040F48050344908603348006840F4005098
:1078A0003149086031E19DF8DC000128CFD1FDF7B6
:1078B00073FF0546002D55D0294660A0FEF79CF8C1
:1078C000059002200599FCF73DFE0598FFF7F8FCAE
:1078D000C820FEF7AEFF29465BA0FEF78DF80590A5
:1078E00003200599FCF72EFE0598FFF7E9FCC82058
:1078F000FEF79FFF294657A0FEF77EF8059004206B
:107900000599FCF71FFE0598FFF7DAFCC820FEF783
:1079100090FF294652A0FEF76FF8059005200599C3
:10792000FCF710FE0598FFF7CBFCC820FEF781FF9F
:1079300029464EA0FEF760F8059003AA31A10598EC
:10794000FBF730FC0398C1B20120FCF7BDFD0598A0
:10795000FFF7B6FCC820FEF76CFF082000F0DEF849
:10796000049089E0B4E000000C0C01404C6F6769A2
:107970006E0000005061737300000000506C616E77
:10798000744964005761746572696E670000000095
:1079900030000000536F696C4D6F697374757265C8
:1079A0000000000041697248756D6964697479006E
:1079B00054656D706572617475726500496E736FA0
:1079C0006C6174696F6E000064617769646B756CDB
:1079D00070612E706C0000002A2F2A006170706C9C
:1079E00069636174696F6E2F782D7777772D666F75
:1079F000726D2D75726C656E636F64656400000056
:107A00001C280040256400007777772E6461776931
:107A1000646B756C70612E706C0000000000024099
:107A20002F736574506C616E74446174615363723A
:107A30006970742E706870002D3100007769666976
:107A400053534944000000007769666950617373BD
:107A500000000000757365724C6F67696E0000006E
:107A6000757365725061737300000000506C616E35
:107A70007473436E74000000002415E0224623A1B5
:107A80000498FEF7B3FE29460498FDF7B5FF05906C
:107A9000A01D0599FCF756FDC820FEF7CAFE059803
:107AA000FFF70EFC601CC4B203988442E6D304982E
:107AB000FFF706FC2846FFF703FC00210846FCF709
:107AC00003FD2BA937A8FCF703FA0290FDF764FF2A
:107AD000104800880F49091F098840EA01400699AB
:107AE000401A12D00C48006880F480500A4908609F
:107AF0000846006880F40050086006480088054980
:107B0000091F098840EA0140069087E5506C616EC4
:107B1000742564001C2800400C0C0140F0B50B30AB
:107B2000154D20F007010024144A0FE003688B4232
:107B30000BD38B4205D95E1A43184768C3E9006727
:107B400000E04368136002C004E0021D10680028D2
:107B5000ECD12046002802D1286808B10020F0BDF1
:107B6000064A07481060074A121A22F00702C0E9C5
:107B7000002401202860D7E73C00002038000020C6
:107B8000840800208010002070B505460A4800785F
:107B9000401C00F01F0400BF084800788442FBD05E
:107BA0000748055504480470012240F22771054832
:107BB000FEF7D1FB70BD0000320000203300002032
:107BC0005908002000380140DDDDDDDDDCBBBBDD18
:107BD000DDDDDDDDDDDDDDDD98888888888888886D
:107BE000777777777788888885555556666666668D
:107BF000666666666668888883333332222222226C
:107C0000222222222228888D287C000800000020C1
:107C10004000000014680008687C00084000002054
:107C20004018000024680008000000000000000068
:107C30000000000000000000000000000000000044
:107C40000000000000000000000001020304010227
:107C500003040607080902040608000000000000EB
:087C600000000000000000001C
:04000005080030EDD2
:00000001FF
