:020000040800F2
:10000000580A002001010008D51000086D0F0008F3
:10001000D110000819090008AB21000800000000F9
:100020000000000000000000000000008116000831
:10003000450C000800000000B5110008111A000866
:10004000AF210008A5110008991A0008E115000861
:10005000790C000819140008470C00084B0C000824
:100060004D0C00084F0C0008510C0008E109000875
:10007000E3090008E5090008E7090008E9090008A4
:10008000EB090008ED090008A106000817010008A7
:10009000170100081701000817010008530C000899
:1000A0009B1A0008A11A00089F1A00089D1A000850
:1000B000A31A0008A51A0008A71A0008830F000851
:1000C000810F0008CB0F0008C90F00087D1600083B
:1000D0007F160008A51F0008FD1F0008FF1F00086D
:1000E000490C0008B7150008A9210008DFF80CD05A
:1000F00000F036FA00480047D5300008580A0020C2
:1001000005480047FEE7FEE7FEE7FEE7FEE7FEE7FD
:10011000FEE7FEE7FEE7FEE7ED00000830B5054626
:100120002A460B4612F8010B13F8014B08B1A04206
:10013000F8D01CB1002802D06D1CF1E7284630BD74
:10014000421C10F8011B0029FBD1801A704703469E
:1001500011F8012B00F8012B002AF9D1184670473D
:1001600030B50B46014600202022012409E021FA87
:1001700002F59D4205D303FA02F5491B04FA02F584
:100180002844151EA2F10102F1DC30BD2DE9F05F1B
:100190000546002092469B468846064681464024F6
:1001A0001BE0284641464746224600F0FAF95346EE
:1001B0005A46C01A914110D311461846224600F003
:1001C000E1F92D1A67EB01084F4622460120002174
:1001D00000F0D8F917EB00094E41201EA4F10104EC
:1001E000DFDC484631462A464346BDE8F09F2DE90C
:1001F000FE4F804681EA0300C00F0C46009021F0BC
:10020000004123F00045B8EB0200A94105D2404669
:10021000214690461C460B46024623F00040104300
:1002200047D0270DC7F30A00C3F30A510290401AC2
:10023000019040286BDAC3F3130040F4801B009850
:10024000924620B10023D2EB030A63EB0B0B01981B
:100250005946C0F14002504600F094F906460D465A
:1002600050465946019A00F0ACF910EB0800614184
:10027000002487EA115284EAE7731A4340D0009AB7
:1002800062B3019A012A4FEA075215DC001B61EBA9
:1002900002014FF0004202EA0752CDE90042001C81
:1002A00041F5801132462B4600F0ACF903B0BDE8B1
:1002B000F08F40462146F9E7001B61EB0201001C6C
:1002C00041F5801300185B412018A2F5001747EB99
:1002D000030140EAD570B6196D4111E06D084FEA8F
:1002E000360645EAC0754FEA0752001B61EB020172
:1002F000001C41F5801149084FEA300000195141B6
:1003000032462B4603B0BDE8F04F00F06CB90098C0
:10031000012240000023D0EB020263EBE07300985F
:1003200021464FEAE074B8EB000061EB0401E9E715
:1003300083F000435BE781F0004158E72DE9FE4F71
:1003400081EA030404F0004421F0004100944FF0DE
:10035000000B23F0004350EA01045ED052EA03048C
:100360005BD0C3F30A54C1F30A552C44A4F2F3340E
:100370000194A0FB0254C1F3130141F48011C3F3B3
:10038000130343F4801301FB024400FB034E840A71
:10039000970A44EA815447EA8357A4FB0768029509
:1003A0008D0A05FB07854FEA932C04FB0C542705A7
:1003B000029D4FEA065847EA1637B5EB08056EEB83
:1003C000070C870E920E47EA811742EA8312A7FBB9
:1003D0000201B6EB0B0164EB00042B0D43EA0C3376
:1003E0005E1844EB1C50DA465146E7FB0201C5F3A8
:1003F00013044FEA0B3343EA14534FEA0432019CCF
:1004000043EA0603A4F10C040294009CCDE900B475
:1004100000F0F8F803B0BDE8F08F00200146F9E7DE
:100420002DE9F04D81EA030404F0004B21F0004572
:1004300014464FF0000A23F0004150EA050220D094
:1004400054EA01021DD0C5F30A570246C5F313034F
:10045000C1F31300C1F30A5640F4801543F480132E
:10046000A7EB0608101BD64608F2FD3873EB050013
:1004700002D308F1010801E092185B41B8F1000FC6
:1004800003DA00200146BDE8F08D00204FF4801112
:10049000064684460EE0171B73EB050705D3121BB7
:1004A00063EB050306434CEA010C49084FEA3000B0
:1004B00092185B4150EA0107EDD152EA030012D0D5
:1004C00082EA040083EA0501084305D0101BAB4112
:1004D00006D20122002306E000224FF0004302E092
:1004E0006FF0010253101AEB06004CEB085110EBB1
:1004F0000A0041EB0B01BDE8F04D00F074B8C1F308
:100500000A52C1F3130140F2FF3341F480119A42C1
:1005100002DA00200146704740F233439A42A2F2C9
:10052000334202DC524200F03CB800F02BB800002D
:1005300030B5041E71F1000404DB4FF0004440426A
:1005400064EB0101141E73F1000405DB1C464FF03F
:100550000043524263EB0403994208BF904230BD0E
:10056000064C074D06E0E06840F0010394E8070000
:1005700098471034AC42F6D3FFF7BCFD9434000822
:10058000B4340008202A04DB203A00FA02F10020EB
:1005900070479140C2F1200320FA03F319439040C1
:1005A0007047202A04DB203A21FA02F0002170472C
:1005B00021FA02F3D040C2F12002914008431946CB
:1005C0007047202A06DBCB17203A41FA02F043EAB3
:1005D000E07306E041FA02F3D040C2F120029140FC
:1005E00008431946704710B5141E73F1000408DA69
:1005F000401C41F1000192185B411A4301D120F0E7
:10060000010010BD2DE9F04D92469B4611B1B1FAA3
:1006100081F202E0B0FA80F220329046FFF7B2FF9A
:1006200004460F4640EA0A0041EA0B0153465A4687
:10063000084313D0114653EA010019D0C8F1400213
:100640005046FFF7AEFF05460E4650465946424615
:10065000FFF798FF084305D0012004E02046394603
:10066000BDE8F08D0020054346EAE0762C43374391
:100670000A986305E40AA0EB08000022FD0A44EA98
:1006800047540A3002D500200146E9E70105101958
:100690006941DDE9084500196941BDE8F04DA2E76F
:1006A000704721B1826842F00102826003E08268F3
:1006B00022F001028260704721B1826842F48072A8
:1006C000826003E0826822F4807282607047014693
:1006D00000208A6802F004020AB1012000E0002034
:1006E0007047014600208A6802F008020AB1012022
:1006F00000E000207047000030B5024600200023D3
:1007000050680F4C20400D790C6844EA05242043C2
:10071000506090680B4C2040D1E902542C434D7935
:1007200044EA450420439060D06A20F470000C7CB9
:10073000641EE4B2234340EA0350D06230BD00009F
:10074000FFFEF0FFFDF7F1FFF0B504460D46002077
:100750000021092D11DDE068A5F10A0606EB460728
:10076000072606FA07F18843A5F10A0606EB4606B6
:1007700003FA06F10843E0600CE0206905EB450749
:10078000072606FA07F1884305EB450603FA06F14A
:1007900008432061072A0FDA606B561E06EB8607B6
:1007A0001F2606FA07F18843561E06EB860605FA51
:1007B00006F10843606322E00D2A0FDA206BD61F92
:1007C00006EB86071F2606FA07F18843D61F06EBBD
:1007D000860605FA06F10843206310E0E06AA2F1FC
:1007E0000D0606EB86071F2606FA07F18843A2F1DD
:1007F0000D0606EB860605FA06F10843E062F0BD39
:10080000816841F008018160704721B1826842F43B
:10081000A002826003E0826822F4A0028260704736
:10082000816841F0040181607047000000B585B027
:100830000020009001208DF804008DF805004FF491
:10084000602002900020039002208DF8100069467D
:100850001E48FFF751FF0723012211461B48FFF7EF
:1008600073FF0723022211461848FFF76DFF072385
:10087000032204211548FFF767FF07230422032101
:100880001248FFF761FF0723052211460F48FFF7C3
:100890005BFF01210D48FFF70FFF01210B48FFF718
:1008A00000FF0A48FFF7ACFF00BF0848FFF719FF39
:1008B0000028FAD10548FFF7B3FF00BF0348FFF750
:1008C00006FF0028FAD105B000BD00000024014059
:1008D00010B5012000F0ACFC002000F0A9FC10BD18
:1008E00010B5002400BF12E00A48006820F4004060
:1008F00008490860642001F0B0FD0648006840F433
:10090000004004490860642001F0A7FD641C052C28
:10091000EADB10BD0C0C014000BFFEE710B500F093
:10092000E5FD00F05EFE044801F088F800F094FA5E
:1009300000F01EFC10BD0000405489001CB5134897
:10094000006820F4704040F44050104908600F489F
:100950000830006820F400600C490831086008463F
:10096000006840F4805008604FF4617001F075FD3C
:1009700006480830006820F48050044908310860B7
:10098000694601A802F0A4FA1CBD00000408014059
:100990000146114A01290DD105E0101EA2F1010204
:1009A00001D1012070470D48006800F40060002864
:1009B000F3D00CE005E0101EA2F1010201D10120EC
:1009C000F0E70648006800F400600028F3D103480F
:1009D00000680020E6E70000A0860100080801404A
:1009E000704770477047704770477047704721B134
:1009F000026842F00102026004E002684FF6FE73F2
:100A00001A4002607047000001684FF6FE72114004
:100A100001600021016041608160C1604B498842F2
:100A200008D14A490839496841F00F01474A083A54
:100A300051608AE045491431884208D14349083958
:100A4000496841F0F001414A083A51607DE03F4970
:100A50002831884208D13D490839496841F470611C
:100A60003A4A083A516070E038493C31884208D12E
:100A700036490839496841F47041344A083A5160AE
:100A800063E032495031884208D130490839496819
:100A900041F470212D4A083A516056E02B496431E7
:100AA000884208D129490839496841F47001274A28
:100AB000083A516049E025497831884208D12349F4
:100AC0000839496841F07061204A083A51603CE0B9
:100AD0001F49884206D1011F096841F00F01021F1A
:100AE000116032E01A491431884208D11849091FAF
:100AF000096841F0F001164A121F116025E01449FF
:100B00002831884208D11249091F096841F47061EF
:100B10000F4A121F116018E00D493C31884208D17C
:100B20000B49091F096841F47041094A121F1160FD
:100B30000BE007495031884207D10549091F096870
:100B400041F47021024A121F1160704708000240F0
:100B50000804024010B50022026847F6F0739A4379
:100B60000C6A8B6823430C6923434C6923438C69CB
:100B70002343CC6923434C6A23438C6A23431A439F
:100B80000260CB6843600B6883604B68C36010BD34
:100B900030B58BB005460C461048FFF735FF1048BE
:100BA000009001950020029003940490802005900D
:100BB0004000069080000790202008904FF440509D
:100BC000099000200A9069460448FFF7C3FF0121FD
:100BD0000248FFF70CFF0BB030BD000008000240D8
:100BE0004C24014030B58BB005460C461348FFF746
:100BF0000BFF13480090019500200290039404908D
:100C0000802005904000069000200790202008904A
:100C10004FF44050099000200A9069460748FFF7BA
:100C200099FF012240210648001F01F0F5F901213A
:100C30000248FFF7DCFE0BB030BD00005800024058
:100C400004380140704770477047704770477047DD
:100C50007047704710B54FF4B4624FF4FA7108074B
:100C600001F0F8F800220421080701F021F94FF003
:100C7000804001F003F910BD704700000549096884
:100C800021F01001034A1160114609680143116007
:100C9000704700000020024001460020034A10680F
:100CA00000F0380008431060704700000020024048
:100CB0002DE9F041024600250026002000230024F3
:100CC000002791F803C00CF00F0591F803C00CF059
:100CD000100CBCF1000F03D091F802C04CEA0505DE
:100CE00091F800C0BCF1000F31D0146800202BE057
:100CF0004FF0010C0CFA00F3B1F800C00CEA030647
:100D00009E4220D183004FF00F0C0CFA03F7BC4336
:100D100005FA03FC4CEA040491F803C0BCF1280F67
:100D200006D14FF0010C0CFA00FCC2F814C00AE026
:100D300091F803C0BCF1480F05D14FF0010C0CFA3B
:100D400000FCC2F810C0401C0828D1D31460B1F8D0
:100D500000C0BCF1FF0F34DD546800202EE000F12C
:100D6000080C4FF0010808FA0CF3B1F800C00CEAC7
:100D700003069E4221D183004FF00F0C0CFA03F7BB
:100D8000BC4305FA03FC4CEA040491F803C0BCF12F
:100D9000280F05D100F1080C08FA0CF8C2F81480ED
:100DA00091F803C0BCF1480F07D100F1080C4FF0D7
:100DB000010808FA0CF8C2F81080401C0828CED3AD
:100DC0005460BDE8F0810000F0B50A46002300241D
:100DD0000021002500F00046B6F1004F02D11D4E63
:100DE000F16901E01B4E7168C0F3034583B200F462
:100DF0004016B6F5401F08D121F07061154E766897
:100E000026F07066134F7E6012E000F48016B6F58F
:100E1000801F06D1032606FA05F4A14341F0706154
:100E200006E0460D360103FA06F6B14341F0706163
:100E300022B1460D360103FA06F6314300F00046B2
:100E4000B6F1004F02D1034EF16101E0014E716035
:100E5000F0BD00000000014008B501213F48FFF748
:100E6000B3FF01210420FFF7AFFF4FF47040ADF84E
:100E7000000010208DF8030003208DF80200694661
:100E80003748FFF715FF4020ADF8000018208DF817
:100E9000030003208DF8020069463148FFF708FF80
:100EA0008020ADF8000048208DF8030003208DF865
:100EB000020069462A48FFF7FBFE40F60540ADF800
:100EC000000010208DF8030003208DF80200694611
:100ED0002348FFF7EDFE4FF4F850ADF80000102066
:100EE0008DF8030003208DF8020069461D48FFF7C6
:100EF000DFFE1E20ADF8000000208DF80300032067
:100F00008DF8020069461748FFF7D2FE0820ADF8B9
:100F1000000010208DF8030003208DF802006946C0
:100F20001148FFF7C5FE0820ADF8000018208DF825
:100F3000030003208DF8020069460A48FFF7B8FE57
:100F40000320ADF8000048208DF8030001208DF843
:100F5000020069460448FFF7ABFE08BD00023000FE
:100F6000000C0140000801400010014003480068E7
:100F700020F400400149086000BFFEE70C0C01406E
:100F8000704770471FB50121480500F031F9002076
:100F9000ADF804004BF6FF70ADF806004FF480602A
:100FA000ADF80A000001ADF80C0005480090694654
:100FB000044800F017F80121024800F007F81FBDAF
:100FC000801A0600005400407047704721B1028823
:100FD00042F00102028004E002884FF6FE731A40DC
:100FE000028070472DE9F04385B004460D46002687
:100FF000B1460427DFF8CC80A6884FF6C0700640C3
:10100000684600F041F9DDF808802F48B8FBF0F0A1
:101010001FFA80F946EA0906A68020884FF6FE717D
:101020000840208000262949286888420CD8286872
:101030004000B8FBF0F087B2042F00DA04273E43EB
:1010400009F10100208427E0E8884BF6FF7188420F
:1010500006D1286800EB4000B8FBF0F087B209E049
:10106000286800EBC00101EB0010B8FBF0F087B27C
:1010700047F48047C7F30B0008B947F0010747F46E
:10108000004006434FF4967009FB00F04FF47A716C
:1010900090FBF1F0401C2084A683208840F00100E2
:1010A000208026884FF6F5300640A88869890843D5
:1010B00006432680A88929890843208105B0BDE818
:1010C000F083000000127A0040420F00A086010069
:1010D00000BFFEE77047000070B5002100230F221B
:1010E000C47804B3154C246804F4E064C4F5E064E7
:1010F000210AC1F10403CA40447804FA03F1847858
:101100001440214309010E4C0678A155047804F0DF
:101110001F050124AC4005786D11AD0005F1E025F7
:10112000C5F8004109E0047804F01F050124AC4033
:10113000044D0678761145F8264070BD0CED00E0B0
:1011400000E400E080E100E002490143024A11604E
:10115000704700000000FA050CED00E0024A0A406A
:101160000243024B1A60704780FFFF1F08ED00E04A
:1011700008B500214FF00060FFF7F0FF4FF4A060CA
:10118000FFF7E2FF25208DF8000001208DF8010017
:1011900000208DF8020001208DF803006846FFF75B
:1011A0009BFF08BD704700000149086270470000BE
:1011B00000000E427047000001460020034A5068BC
:1011C00020F4404008435060704700000010024087
:1011D00029B1064A52690243044B5A6104E0034AAA
:1011E00052698243014B5A6170470000001002406F
:1011F00029B1064AD2690243044BDA6104E0034A8A
:10120000D2698243014BDA6170470000001002404E
:1012100029B1064A92690243044B9A6104E0034AE9
:1012200092698243014B9A617047000000100240AE
:101230000149086070470000400442420F480068BE
:1012400040F001000D490860084640680C4908401C
:101250000A494860084600680A490840074908608A
:101260000846006820F4802008600846406820F4A2
:10127000FE0048604FF41F00886070470010024075
:101280000000FFF8FFFFF6FE30B500210022002429
:1012900000232D4D6D6805F00C0121B1042905D006
:1012A000082923D105E0294D056022E0274D05607E
:1012B0001FE0254D6D6805F47012234D6D6805F42F
:1012C0008034022505EB92421CB9214D554305603F
:1012D0000BE01D4D6D6805F400351DB11C4D5543E7
:1012E000056002E0194D5543056002E0174D0560A9
:1012F00000BF00BF144D6D6805F0F0010909154DE0
:101300006B5C0568DD4045600F4D6D6805F4E0617C
:10131000090A104D6B5C4568DD4085600A4D6D68BB
:1013200005F46051C90A0B4D6B5C4568DD40C56032
:10133000054D6D6805F44041890B074D6B5CC56830
:10134000B5FBF3F5056130BD0010024000127A00D4
:1013500000093D000E0000201E00002010B50146CF
:101360000022002300204A11012A02D1094C2368DF
:1013700006E0022A02D1074C236A01E0054C636AA9
:1013800001F01F02012494401C400CB1012000E038
:10139000002010BD001002400248406800F00C0020
:1013A000704700000010024001460020034A5068C8
:1013B00020F0F00008435060704700000010024029
:1013C0001149096821F480310F4A116011460968FA
:1013D00021F480211160B0F5803F03D0B0F5802F5B
:1013E0000ED106E00849096841F48031064A1160CF
:1013F00007E00549096841F4A021034A116000E0B3
:1014000000BF00BF704700000010024001490860A3
:101410007047000000004242704700000149086028
:10142000704700008004424201460020034A506891
:1014300020F4E06008435060704700000010024054
:1014400001460020034A506820F4605040EAC10081
:101450005060704700100240014908667047000064
:101460000000424202460020044B586820F47C10E1
:1014700042EA01031843014B5860704700100240D4
:1014800001490860704700003C0442420249096A71
:101490000143014A116270470010024001460020DA
:1014A000034A506820F00300084350607047000072
:1014B0000010024038B5002000900024002500BF35
:1014C0003120FFF74BFF05460098401C0090009824
:1014D000B0F5A06F01D0002DF2D03120FFF73EFF14
:1014E00008B1012400E00024204638BD10B5FFF704
:1014F000A5FE4FF48030FFF763FFFFF7DBFF0446E4
:10150000012C57D11020FFF7B9FB0220FFF7C4FBD5
:101510000020FFF749FF0020FFF792FFA002FFF72E
:1015200083FF4FF4E0112004FFF79CFF0120FFF739
:1015300093FF00BF3920FFF711FF0028FAD00220E7
:10154000FFF7ACFF00BFFFF727FF0828FBD1002003
:10155000FFF75CFF4FF44040FFF72EFE01210846E5
:10156000FFF756FE01214020FFF752FE0121042023
:10157000FFF74EFE01210820FFF74AFE012110204F
:10158000FFF746FE01210846FFF732FE01218803DE
:10159000FFF73EFE01210807FFF72AFE0121C806DA
:1015A000FFF726FE01214802FFF732FE012108461F
:1015B000FFF70EFE10BD70470348008840F0100092
:1015C0000149088070470000042800400348008853
:1015D0004FF6EF7108400149088070470428004029
:1015E000704710B50120FFF7DFFDFFF771F901200B
:1015F000FFF714FF00BF6120FFF7B0FE0028FAD00C
:101600004FF40070FFF742FF0120FFF739FF00F0B1
:1016100023F800F017F849F2646000F003F800F0D6
:1016200011F810BD00B50246FFF7C6FFC2F3034034
:1016300003490880091D0A80FFF7C8FF00BD0000AC
:101640000828004000BF0348008800F02000002860
:10165000F9D0704704280040074800884FF6F7711A
:1016600008400549088000BF0348008800F00800D2
:101670000028F9D0704700000428004070477047E8
:101680007047000010B588B00446224606A168469F
:1016900000F0C0FE694608A001F086FB022001F0C0
:1016A000CDFB08B010BD000022544350222C22254F
:1016B00073222C3830000000434950535441525497
:1016C000000000002DE9FF4F85B081461646984680
:1016D000DDE912AB00270025002410E056F83400A5
:1016E000FEF72EFD284485B206EBC4014868FEF7DC
:1016F00027FD284485B2A81C85B2601CC4B24445AD
:10170000ECDB681C85B22A4636A101A800F082FEF7
:1017100000240AE01AF83400022804D101A80AEBD8
:10172000C401486003E0601CC4B25C45F2DB00BF4A
:10173000B9F1000F01D1052700E004270698FEF754
:10174000FFFC384487B207F1090087B2B81C87B2A2
:101750005946504600F08AF8384487B27A1921A1D8
:1017600003A800F057FE03A91FA001F01DFB0220F3
:1017700001F036FBB9F1000F03D11DA000F006FC0B
:1017800002E01DA000F002FC069800F0FFFB1CA088
:1017900000F0FCFB1DA000F0F9FB5946504600F09C
:1017A00099F8002418E056F8340000F0EFFB18A078
:1017B00000F0ECFB06EBC401486800F0E7FBA8F181
:1017C0000100A04203DD13A000F0E0FB02E00FA047
:1017D00000F0DCFB601CC4B24445E4DB09B0BDE8AA
:1017E000F08F00002564000043495053454E4400EB
:1017F000504F535420000000474554200000000083
:1018000020485454502F312E310000000D0A0000A2
:101810003D0000002600000010B5044600F086FBE5
:101820000148046010BD00000800002070B50546A6
:1018300009A10B48FEF772FC58B10AA10848FEF74F
:101840006DFC04462CB1211D2846FEF780FC0120CA
:1018500070BD0020FCE70000323030204F4B00000C
:10186000320200200D0A0D0A000000002DE9F041AF
:1018700006460F460024002524E016F8350030B156
:10188000012807D0022809D003280FD10AE0A01DA3
:1018900084B20BE004F1080084B207E004F1100008
:1018A00084B203E004F10E0084B200BF00BF06EB77
:1018B000C5014868FEF744FC204484B2A01C84B2F1
:1018C000681CC5B2BD42D8DBA01C84B22046BDE86E
:1018D000F081000070B505460E46002424E015F89E
:1018E000340030B1012808D002280AD0032810D1D2
:1018F0000BE010A000F04AFB0BE010A000F046FB4C
:1019000007E011A000F042FB03E014A000F03EFB52
:1019100000BF00BF05EBC401486800F037FB13A00F
:1019200000F034FB601CC4B2B442D8DB0FA000F05E
:101930002DFB70BD486F73743A20000041636365EE
:1019400070743A2000000000436F6E74656E742D51
:101950004C656E6774683A2000000000436F6E7437
:10196000656E742D547970653A2000000D0A0000F0
:1019700010B505210748FFF70BF9FEF757FF0121C6
:101980000548FEF742FF0548C06840F008000349DB
:10199000C86010BD28020020002401400010014052
:1019A00010B5FEF7BBFF1748006840F4005015491A
:1019B00008600846006840F48040086008460068F7
:1019C00040F4004008600846006840F48050086019
:1019D000FFF740F9FFF7CCFFFEF7B0FFFFF7D2FAB1
:1019E0000948806800F0020030B9002000F0E0FBF8
:1019F0000648FFF711FF02E0012000F0D9FB0020AC
:101A000010BD00000C0C01400010014050340008D3
:101A100008480068401C074908600846006800F054
:101A2000010028B90448006880F4005002490860A9
:101A300070470000000000200C0C014070B501460A
:101A4000B1F1807F01D3002070BD21F07F40401EA6
:101A50004FF0E022506150170022002807DA1407E7
:101A6000260E0B4C00F00F052D1F665503E01407E2
:101A7000250E084C255400BF00204FF0E022906155
:101A80000323431F10460069184310610020DBE761
:101A900018ED00E000E400E07047704770477047C1
:101AA000704770477047704721B1028842F080024A
:101AB000028004E002884FF67F731A40028070476C
:101AC00021B1028842F00102028004E002884FF650
:101AD000FE731A400280704731B1B0F8442042F4DE
:101AE0000042A0F8442005E0B0F84420C2F30E0202
:101AF000A0F844207047000070B5002400220023A5
:101B0000058C4FF6FE7635400584028C8388048B65
:101B10004FF68F752C40B51E2C400D882C43751E3A
:101B20002A400D892A434D882A43144DA8420BD0E0
:101B3000134DA84208D0134DA84205D0124DA8421B
:101B400002D0124DA84213D14FF6F7752A404D89A5
:101B50002A434FF6FB752A408D882A434FF6FF65CE
:101B60002B404FF6FF552B408D892B43CD892B43BE
:101B700083800483CD888586028470BD002C01405B
:101B80000034014000400140004401400048014051
:101B90000A460021018B4FF6F77319401143018368
:101BA0007047000070B5002400220023058C4FF61A
:101BB000EF7635400584028C8388048B48F6FF75E8
:101BC0002C404FF6FF452C400D884FF6FF7606EA75
:101BD00005252C434FF6DF752A400D8906EA0515C9
:101BE0002A434D8806EA05152A43154DA84202D01E
:101BF000144DA8421DD14FF67F752A404D894FF6EE
:101C0000FF7606EA05152A434FF6BF752A408D88F0
:101C100006EA05152A434FF6FF352B404FF2FF75B4
:101C20002B408D8906EA85052B43CD8906EA85057B
:101C30002B4383800483CD880587028470BD000018
:101C4000002C0140003401400A460021018B4FF274
:101C5000FF7319404FF6FF7303EA02231943018310
:101C60007047000070B5002400220023058C4FF659
:101C7000FF6635400584028C8388848B4FF68F7510
:101C80002C404FF6FC752C400D882C434FF6FF5529
:101C90002A400D894FF6FF7606EA05252A434D882E
:101CA00006EA05252A43154DA84202D0144DA84244
:101CB0001DD14FF2FF752A404D894FF6FF7606EA97
:101CC00005252A434FF6FF352A408D8806EA05256B
:101CD0002A434EF6FF752B404DF6FF752B408D893C
:101CE00006EA05152B43CD8906EA05152B438380AB
:101CF0008483CD888587028470BD0000002C01405C
:101D0000003401400A460021818B4FF6F7731940D9
:101D1000114381837047000070B500220023002426
:101D2000058C4EF6FF7635400584038C8488828BC3
:101D300048F6FF752A404FF6FF452A400D884FF6BA
:101D4000FF7606EA05252A434DF6FF752B400D89DF
:101D500006EA05352B434D8806EA05352B430B4D26
:101D6000A84202D00A4DA84208D14BF6FF752C407C
:101D70008D894FF6FF7606EA85152C438480828391
:101D8000CD88A0F84050038470BD0000002C0140B5
:101D9000003401400A460021818B4FF2FF73194045
:101DA0004FF6FF7303EA0223194381837047000053
:101DB000002202881D4B98420ED01D4B98420BD03A
:101DC000B0F1804F08D01B4B984205D01A4B984277
:101DD00002D01A4B984204D14FF68F731A404B88A9
:101DE0001A43174B984207D0164B984204D04FF62F
:101DF000FF431A40CB881A4302808B8883850B8867
:101E000003850A4B98420BD0094B984208D00E4BE1
:101E1000984205D00D4B984202D00D4B984201D10B
:101E20000B7A03860123838270470000002C014057
:101E3000003401400004004000080040000C004055
:101E400000100040001400400040014000440140E8
:101E500000480140FEB506460C461546A0B2ADF856
:101E60000000A8B2ADF804000020ADF80600ADF8FF
:101E7000020069463046FFF79BFFFEBD10B50446E1
:101E80000948844202D00948844203D1012106480E
:101E9000FFF722FE01212046FFF706FE0121204622
:101EA000FFF70EFE10BD0000002C01400034014081
:101EB0007FB506460C461546ADF80C506020ADF8CF
:101EC00000000120ADF802003220ADF8060000202D
:101ED000ADF80800012C08D169463046FFF70CFE2A
:101EE00008213046FFF754FE1FE0022C08D1694656
:101EF0003046FFF757FE08213046FFF7A5FE14E0F5
:101F0000032C08D169463046FFF7ACFE0821304665
:101F1000FFF7F8FE09E0042C07D169463046FFF7C9
:101F2000FBFE08213046FFF735FF7FBD0020002172
:101F3000054AD16500BF03E02021044A1154401C2A
:101F4000B0F5806FF8DB70470000024032020020DD
:101F50001FB5044601218803FFF75AF900940020B9
:101F6000ADF80400ADF80600ADF80800ADF80C00BF
:101F70000C20ADF80A006946034800F0A5F80121DD
:101F8000014800F03DF81FBD0038014010B504467F
:101F900003E014F8010B01F03BFA20780028F8D197
:101FA00010BD000010B540F22771104800F03DF858
:101FB000D0B10F4800780F49097888420ED00D48FB
:101FC0000078401C00F01F000A4908700A480A46C1
:101FD0001278815C054800F0E3F805E0002240F249
:101FE0002771024800F04BF810BD00000038014096
:101FF0002200002023000020320600207047704796
:1020000021B1828942F40052828104E082894DF636
:10201000FF731A40828170471AB1838A0B4383820F
:1020200002E0838A8B438382704770B502460024A6
:1020300000230025002040F66A16B14200D100BFFF
:10204000C1F3421501F01F03012606FA03F3012D27
:1020500002D19689334006E0022D02D1168A334020
:1020600001E0968A33400C12012606FA04F4168821
:10207000344013B10CB1012000E0002070BDF0B578
:102080000346002400260025002040F66A17B942C6
:1020900000D100BF1846C1F3421401F01F0601270A
:1020A00007FA06F5012C01D10C3004E0022C01D115
:1020B000103000E014301AB107682F43076002E0C7
:1020C0000768AF430760F0BD2DE9F04786B00546CD
:1020D0000E460024A24600BFA1460027B08900B1E9
:1020E00000BF2F462C8A4CF6FF700440F088044352
:1020F0002C82AC894EF6F3100440B0883189084335
:10210000718908430443AC81AC8A4FF6FF40044018
:10211000B0890443AC8201A8FFF7B6F81F48874294
:1021200002D1DDF810A001E0DDF80CA0A88900F4D0
:10213000004040B10AEBCA0000EB0A1031684900C8
:10214000B0FBF1F807E00AEBCA0000EB0A103168B7
:102150008900B0FBF1F86420B8FBF0F0040120091D
:10216000642101FB1089A88900F4004040B13220AD
:1021700000EBC900B0FBF1F000F00700044308E0F9
:10218000322000EB09106421B0FBF1F000F00F00E9
:1021900004432C8106B0BDE8F08700000038014000
:1021A000C1F3080282807047704700BFFEE77047A6
:1021B00070B505462948006820F48040274908602A
:1021C00009152748FEF70EFD4FF4E130FFF7C0FE7A
:1021D0002248006840F480402049086008460068B2
:1021E00040F4006008600846006840F480600860C1
:1021F0000846006840F0040008600846006840F0A7
:10220000010008604FF47A7000F027F91348006865
:1022100020F48050114908600846006820F480408E
:10222000086035B904220FA112A000F02DF8044671
:1022300002E000F09BF80446012C07D1FEF750FBAA
:102240000648006840F4805004490860034800686C
:1022500040F480400149086070BD00000C0C014052
:10226000320200206D796E6577706C616E747465F2
:1022700073740000506C616E74436C6F75645379B5
:102280007374656D00000000F0B58BB004460D4618
:102290001646214800882049091F098840EA01475D
:1022A0001EA11FA000F080FD012000F0C7FD10B1AD
:1022B00001200BB0F0BD2B4622461BA101A80096C1
:1022C00000F0A8F801A91CA000F06EFD012000F0AC
:1022D000B5FD08B10120ECE719A11AA000F064FDDA
:1022E000012000F0ABFD08B10120E2E717A119A021
:1022F00000F05AFD012000F0A1FD08B10120D8E74F
:1023000017A118A000F050FD012000F097FD08B1C2
:102310000120CEE70020CCE71C280040320000005E
:1023200043574D4F44450000222573222C2225732C
:10233000222C332C256400004357534150000000E9
:10234000310000004349504D55580000312C3830C1
:1023500000000000434950534552564552000000CA
:102360003300000043495053544F000010B5094852
:1023700000880849091F098840EA014406A107A00E
:1023800000F012FD012000F059FD08B1012010BD40
:1023900000BFFCE71C2800403100000043574D4FB0
:1023A0004445000010B506A000F0E6FC022106A09E
:1023B00000F062FD08B9002010BD0120FCE700001C
:1023C00043574A41500000004E6F2041500000002A
:1023D00030B58FB004460D462B46224608A168460C
:1023E00000F018F8694609A000F0DEFC142000F0A7
:1023F00025FD10B101200FB030BD00BFFBE700008C
:10240000222573222C2225732200000043574A41C3
:10241000500000000FB4084B10B504A902AA03989D
:1024200000F0F4F8044602A9002000F086FC2046E3
:1024300010BC5DF814FB00003B2D000802E008C84A
:10244000121F08C1002AFAD170477047002001E02E
:1024500001C1121F002AFBD1704710B504464FF48A
:102460007A7104FB01F000F001F810BD10B50146CF
:102470004FF0E0239B6901EBC104181B084B1A685D
:10248000002802DA521C074B184400BF044B1B689B
:102490009A42FBD84FF0E0239B698342F6D810BDE7
:1024A00000000020405489002DE9FF5FDDE9022093
:1024B000010DDDF838B0024318D044F61050A1F2F7
:1024C000FF3141430D140F98012820D0A5EB0B00DC
:1024D000401C5FEA000A4FF00004474EDFF81C91F1
:1024E000A046504616D5CAF1000728E00F980124EF
:1024F00043A2012808D0002100980F9BC0E90021C9
:10250000C0E90243BDE8FF9F6FEA0B01F4E7CBF19E
:102510000000DEE7074612E0F80707D02246334600
:1025200040464946FDF70AFF804689462246334623
:1025300010461946FDF702FF04460E467F10002F95
:10254000EAD1DDE90201BAF1000F42464B4602DA58
:10255000FDF7F4FE01E0FDF763FF04460E4600229E
:10256000284BFDF7E5FF03D84FF0FF30014607E0A9
:102570000022254B20463146FDF739FEFDF7BFFF0F
:10258000102409E0002C0ADB0A220023FDF7FEFDDF
:10259000019B30321A55641E50EA0102F2D1641CCC
:1025A000019AC4F1110314440F9A012A03D00122A5
:1025B00008430DD10AE0084304D000204FF0110B6E
:1025C0000F9080E7A3EB0B056D1E0DE05B4504DD6E
:1025D0004FF0000205F1010504E003DA4FF00002BC
:1025E000A5F10105002AECD000980F99C0E902314D
:1025F000C0E9004586E70000000024400000F03FED
:10260000300000000000F0430000E03F2DE9FF4FE4
:1026100095B09B468946064600250FE2252877D1CE
:1026200000242746F84A0121059400E0044316F8E7
:10263000013F203B01FA03F01042F7D130782A28FD
:1026400011D06FF02F033078A0F13002092A16D88C
:10265000059A44F0020402EB820203EB42021044AA
:10266000761C0590EFE759F8042B0592002A03DA4F
:10267000504244F40054059044F00204761C307833
:102680002E2816D116F8010F44F004042A280DD084
:102690006FF02F023078A0F13003092B09D807EB37
:1026A000870302EB4303C718761CF3E759F8047B52
:1026B000761C30786C280FD006DC4C2817D06828A0
:1026C0000DD06A2814D104E0742810D07A280FD1D4
:1026D0000DE044F400140AE044F4801401E044F4F2
:1026E00040147278824202D104F58014761C761C64
:1026F000307866280BD013DC582877D009DC002806
:1027000075D04528F6D04628F4D047281AD19DE147
:1027100018E0632835D0642879D0652812D195E176
:10272000702873D008DC6728F1D069286FD06E2834
:102730000DD06F2806D1B5E073282CD0752875D040
:10274000782874D05A46179990476D1C75E1C4F3E8
:102750000250022809D003280DD0D9F8001004280F
:102760000DD00D6009F1040967E1D9F80010EA17EE
:10277000C1E90052F6E7D9F800100D80F2E70D70BC
:10278000F0E719F8041B8DF8001000208DF8010007
:10279000EA46012003E059F804AB4FF0FF3061072F
:1027A0004FF0000102D40DE008F101018846B94262
:1027B0000FDA8045F8DB1AF808100029F4D108E098
:1027C00008F1010188468142FADB1AF80810002955
:1027D000F6D105985B46A0EB080721463846179AC4
:1027E00000F094FA284400EB080507E04DE029E1E9
:1027F0000DE01AF8010B5A4617999047B8F10108F5
:10280000F7D25B4621463846179A13E142E00A2286
:102810000092C4F302524FF0000A022A08D059F87D
:1028200004CB032A4FEAEC710AD00DE029E02AE03C
:1028300009F1070121F00702F2E802C1914609E01F
:102840000FFA8CFC4FEAEC71042A03D14FFA8CFC8E
:102850004FEAEC71002907DA0A460021DCF1000C8E
:1028600061EB02012D2202E0220504D52B228DF816
:102870000420012203E0E20701D02022F7E790467E
:1028800059E00A2102E010220DE010214FF0000A69
:1028900000910BE010224FF0000A44F004040827D6
:1028A000009203E008224FF0000A0092C4F30252A3
:1028B000022A05D059F804CB0021032A08D009E0E8
:1028C00009F1070121F00702F2E802C1914605E093
:1028D0001FFA8CFC042A01D10CF0FF0C4FF0000809
:1028E000220728D5702806D0009B83F0100353EAF6
:1028F0000A0305D00EE040228DF80420012208E0F2
:102900005CEA010206D030228DF804208DF8050023
:1029100002229046009B83F0080353EA0A030AD17F
:102920005CEA010201D1620705D530228DF804204E
:102930004FF001087F1E582804D034A003900EA841
:1029400002900DE036A0F9E753466046009AFDF785
:102950001DFC84460398825C0298401E029002701F
:102960005CEA0100F0D1029806A9081A00F1200AD9
:10297000600702D524F4803400E00127574502DDCA
:10298000A7EB0A0000E0002000EB0A010090059888
:102990004144401A0590E00306D45B462146179A4D
:1029A000059800F0B3F90544002706E001A85A464F
:1029B000C05D179990476D1C7F1C4745F6DBE0030F
:1029C0000CD55B462146179A059800F09FF90544FF
:1029D00004E030205A46179990476D1C0099481E14
:1029E00000900029F5DC08E0029802995A46007828
:1029F000491C0291179990476D1CBAF10001AAF188
:102A0000010AF1DC65E100000928010030313233B0
:102A1000343536373839616263646566000000001A
:102A20003031323334353637383941424344454604
:102A30000000000000F058F90544761C30780028AA
:102A40007FF4ECAD19B02846BDE8F08F620700D4E2
:102A5000062709F1070222F0070CFCE80223E146F1
:102A600003F000485FEA080C02D00FF2702C0DE072
:102A70005FEA045C02D50FF2682C07E05FEAC47CD1
:102A800002D00FF2602C01E0AFF2700C4FF0FF3873
:102A900023F00043CDF850C065280CD006DC452853
:102AA00009D046281DD047283DD13DE0662818D0E2
:102AB00067287ED138E00021112F01DB112000E0D2
:102AC000781CCDE9000106A90EA8FFF7EDFCDDE9B1
:102AD0000F010E9A03910021009207F1010A04915F
:102AE0004DE04FF000400097CDE9011006A90EA877
:102AF000FFF7DAFCDDE90F0203920E9B1199002229
:102B0000DDF80CA00093049211B9791C00EB010AC6
:102B1000B7EB0A0004D4C0F1FF3007F1010A0490BA
:102B2000AAEB0700019044E0012F00DA0127002101
:102B3000112F01DD112000E03846CDE9000106A982
:102B40000EA8FFF7B1FCDDE90F010E9A03910021F9
:102B500004910092BA4621070CD40399514500DA3A
:102B60008A46BAF1010F05DD009AAAF10101515C14
:102B7000302908D0B84202DA10F1040F06DA012138
:102B8000CDE9011015E0AAF10101E9E7002805DC13
:102B9000049901440491AAEB000102E0411C514553
:102BA00000DD8A460499401A401C01904FF0004015
:102BB0000290200704D40198504501DBCDF8048031
:102BC00000208DF84F0002980DF14F07B0F1004F33
:102BD00025D02B200E9002984FF0020800280CDA26
:102BE000404202902D200E9007E00A210298FDF746
:102BF000B7FA3031029007F8011DB8F10001A8F1D1
:102C00000108F2DC02980028EFD1791E0E980870B6
:102C1000307800F0200040F0450007F8020D12A8BF
:102C2000C01B00F107081498007800B1012000EBE8
:102C30000A01019801EBE07105984144401A401ED9
:102C40000590E00306D45B462146179A059800F0EC
:102C50005DF805441498007818B15A4617999047C2
:102C60006D1CE00324D55B462146179A059800F0B9
:102C70004DF805441CE00498002807DBDDE903015A
:102C8000884203DD0098405C179901E017993020D5
:102C90005A469047049805F10105401C049001989C
:102CA000401E019004D12E205A46179990476D1C62
:102CB000BAF10001AAF1010ADDDC05E017F8010B09
:102CC0005A46179990476D1CB8F10001A8F1010808
:102CD000F4DC5B462146179A0598ABE62D00000010
:102CE0002B000000200000002DE9F04104460025E3
:102CF0001E461746880404D405E039462020B04714
:102D00006D1C641EF9D52846BDE8F0812DE9F0411F
:102D1000044600251E469046C80301D5302700E032
:102D20002027880404D505E041463846B0476D1C8D
:102D3000641EF9D52846BDE8F0810A68531C0B6073
:102D40001070704710B508A10848FDF7E7F908B101
:102D5000002010BD06A10548FDF7E0F908B10120EB
:102D6000F7E70220F5E700004F4B00003202002099
:102D70004552524F5200000010B50446FFF7D6F8F6
:102D800006A0FFF703F92046FFF700F904A0FFF7BC
:102D9000FDF804A0FFF7FAF810BD000041542B0025
:102DA0003F0000000D0A000070B505460C46FFF715
:102DB000BDF808A0FFF7EAF82846FFF7E7F806A0F5
:102DC000FFF7E4F82046FFF7E1F804A0FFF7DEF88C
:102DD00070BD000041542B003D0000000D0A0000B2
:102DE00070B50446124800881149091F098840EA55
:102DF00001402044451C00BF0EA10F48FDF78EF98D
:102E000040B90B4800880A49091F098840EA014077
:102E1000A842F1D3064800880549091F098840EAFD
:102E20000140A84201D2002070BD0120FCE7000053
:102E30001C2800403E0000003202002070B504460D
:102E40000C4800880B49091F098840EA01402044CA
:102E5000451C00BFFFF776FF022808D1054800880F
:102E60000449091F098840EA0140A842F2D3FFF74C
:102E700069FF70BD1C28004070B504460D4612481D
:102E800000881149091F098840EA01402844461C6E
:102E900000BF21460D48FDF741F940B90A480088B6
:102EA0000949091F098840EA0140B042F1D30648A8
:102EB00000880549091F098840EA0140B04201D253
:102EC000002070BD0120FCE71C28004032020020D9
:102ED000F0B587B005460E46002404E0002005A9A1
:102EE0000855601CC4B2052CF8DB3F48006820F48C
:102EF000704040F440503C4908603B48083000684E
:102F000020F400603849083108601E20FFF7A5FA58
:102F100035480830006840F40060334908310860E3
:102F20001420FFF7A3FA3048006820F4704040F402
:102F300000402D4908600120FDF72AFD10B1012055
:102F400007B0F0BD0020FDF723FD08B10220F7E730
:102F5000002433E00120FDF71BFD08B10320EFE75B
:102F600001A800F0A5F8DDE90101CDE90301002089
:102F7000FDF70EFD08B10420E2E7DDE9030100F0F2
:102F800035F8282818D9E21704EB5272D21005AB95
:102F90009A5C2146E31704EB5373DB10A4EBC303E5
:102FA000C3F107070123BB401A432046E31704EB94
:102FB0005373DB1005AFFA54601CC4B2282CC9DB74
:102FC0009DF814009DF8161008449DF818108842CA
:102FD00001D00520B4E79DF8160028709DF8140074
:102FE00030700020ACE700000408014003B50C4934
:102FF00001980968884208D14FF0E02080690921D2
:1030000090FBF1F00099081A0CBD4FF0E0208069A8
:10301000092190FBF1F00349081A00990844F3E7ED
:10302000000000204054890010B50E48C06820F010
:1030300008000C49C8606420FFF70FFA0A4840886E
:1030400064214843E12190FBF1F0C4B21420FFF762
:1030500004FA0448C06840F008000249C8602046ED
:1030600010BD0000001001402802002010B50E48DD
:10307000C06820F008000C49C8606420FFF7EDF933
:103080000A4800886421484340F6BE2190FBF1F0D5
:10309000C4B21420FFF7E1F90348C06840F008000B
:1030A0000149C860204610BD0010014028020020E0
:1030B0000CB54FF0E0218969092291FBF2F10091F2
:1030C000034909680191DDE90012C0E900120CBD55
:1030D00000000020C4B00020229023902090219076
:1030E0001E901F901C901D90FEF75AFC00208DF83A
:1030F0000C008DF80D008DF80E008348006840F438
:103100008040814908600846006820F4005008604B
:103110006420FFF7A2F97C48006840F480407A49B7
:1031200008600846006840F40050086077A00490EA
:1031300078A0059079A006907AA107917CA00890CC
:103140007DA109917DA00A907FA10B917FA00C9099
:1031500022A90D9181A00E9020A90F9182A010901C
:103160001EA9119183A012901CA9139100208DF823
:10317000500083A0159001208DF8580084A117916C
:1031800002208DF8600066A1199103208DF8680077
:1031900080A11B91B7E09DF80E00D0B15A4800689D
:1031A00020F40040584908600846006820F4804038
:1031B0000860FDF7C3FB00208DF80E005248006840
:1031C00040F48040504908600846006840F40040E0
:1031D0000860794800887849091F098840EA014059
:1031E0000299401A1E28D5D9FFF7DCF850B9464895
:1031F000006840F480504449086070A172A0FFF755
:10320000E7F880E04048006820F480503E490860BC
:103210009DF80D0058B39DF80C00012816D16D499A
:103220006D48FCF794FF6C48FEF700FB00286AD05D
:1032300000208DF80C008DF80D005F4800885E4975
:10324000091F098840EA014002905CE063A0FEF794
:1032500019FA01208DF80C00042014A9082304AAEF
:10326000CDE9001062A10020FEF72CFA4BE02648C1
:10327000006820F4804024490860FFF7F7FE8DF8CD
:10328000A8009DF8A82060A122A8FFF7C3F80DF1BF
:10329000A901481CFFF71CFE04465CB101208DF813
:1032A0000E005AA120A8FFF7B5F858A11EA8FFF7F5
:1032B000B1F80BE09DF8A92053A120A8FFF7AAF8C8
:1032C0009DF8AA2050A11EA8FFF7A4F8FFF7ACFEB6
:1032D00005462A464CA11CA8FFF79CF89DF8A800BB
:1032E000282802DA11A10B9101E017A10B919DF89A
:1032F0000E0010B901208DF80D000348006840F45D
:1033000080400149086046E70C0C01404C6F67693A
:103310006E0000003164617769646B005061737303
:103320000000000073696B616B616D61310000002A
:10333000506C616E7449640035000000576174651B
:1033400072696E670000000030000000536F696C06
:103350004D6F6973747572650000000041697248B1
:10336000756D69646974790054656D706572617416
:1033700075726500496E736F6C6174696F6E0000E1
:1033800064617769646B756C70612E706C0000000D
:103390002A2F2A006170706C69636174696F6E2FE7
:1033A000782D7777772D666F726D2D75726C656EDF
:1033B000636F6465640000001C280040646F6D65E5
:1033C0006B3132330000000046756E426F782D3845
:1033D0003343420032020020280000207777772E06
:1033E00064617769646B756C70612E706C000000AD
:1033F0002F736574506C616E7444617461536372B1
:103400006970742E70687000256400002D31000012
:1034100070B505460A480078401C00F01F0400BF44
:10342000084800788442FBD00748055504480470DA
:10343000012240F227710548FEF721FE70BD000011
:103440002200002023000020320600200038014026
:103450003C68313E48692C206D79206E616D652095
:10346000697320506C616E74213C2F68313E3C7052
:103470003E466972737420736574207570206D798F
:1034800020636F6E66696775726174696F6E3C2F39
:10349000703E0000B4340008000000202800000046
:1034A0003C240008DC34000828000020300A00001A
:1034B0004C24000800000000000000000000000094
:1034C00000000000000001020304010203040607DB
:0C34D000080902040608000000000000CB
:04000005080000ED02
:00000001FF
